S113000000200020C50400004522000065220000F5
S113001045220000452200004522000000000000A7
S11300200000000000000000000000004522000065
S11300304522000000000000452200004522000087
S11300404522000045220000452200004522000010
S11300504522000045220000452200004522000000
S113006045220000452200004522000045220000F0
S113007045220000452200004522000045220000E0
S113008045220000452200004522000045220000D0
S113009045220000452200004522000045220000C0
S11300A045220000452200004522000045220000B0
S11300B045220000452200004522000045220000A0
S11300C04522000045220000452200004522000090
S11300D04522000045220000452200004522000080
S11300E04522000045220000452200004522000070
S11300F0452200004522000000000000000000002E
S113010000000000000000000000000000000000EB
S113011000000000000000000000000000000000DB
S113012000000000000000000000000000000000CB
S113013000000000000000000000000000000000BB
S11304000001020304050607FFFFFFFFFEF9FFFFDB
S113041010B5054C237833B9044B13B10448AFF33A
S113042000800123237010BD70E0FF1F0000000056
S113043010A6000008B5034B1BB103490348AFF3F2
S1130440008008BD0000000074E0FF1F10A600003B
S1130450154B002B08BF134B9D46A3F5803A002192
S11304608B460F461348144A121A03F0BFFF0F4B72
S1130470002B00D098470E4B002B00D0984700204B
S1130480002104000D000D48002802D00C48AFF3F1
S1130490008003F07FFF2000290003F0A9FD03F092
S11304A065FF00BF000008000020002000000000DD
S11304B05B1F000070E0FF1F58E4FF1F00000000F6
S11304C00000000001F050FD0A490B4A0B4B9A4210
S11304D0BEBF51F8040B42F8040BF8E70849094A77
S11304E000209142BCBF41F8040BFAE701F035FD4E
S11304F0FFF7AEFF1CA6000000E0FF1F70E0FF1F27
S113050070E0FF1F58E4FF1F81F0004102E000BFCC
S113051083F0004330B54FEA41044FEA430594EABF
S1130520050F08BF90EA020F1FBF54EA000C55EAFA
S1130530020C7FEA645C7FEA655C00F0E2804FEACB
S11305405454D4EB5555B8BF6D420CDD2C4480EAAD
S1130550020281EA030382EA000083EA010180EADD
S1130560020281EA0303362D88BF30BD11F0004F2B
S11305704FEA01314FF4801C4CEA113102D0404261
S113058061EB410113F0004F4FEA03334CEA13339C
S113059002D0524263EB430394EA050F00F0A780B4
S11305A0A4F10104D5F1200E0DDB02FA0EFC22FAAF
S11305B005F2801841F1000103FA0EF2801843FAA3
S11305C005F359410EE0A5F120050EF1200E012A94
S11305D003FA0EFC28BF4CF0020C43FA05F3C018D2
S11305E051EBE37101F0004507D54FF0000EDCF14B
S11305F0000C7EEB00006EEB0101B1F5801F1BD3F4
S1130600B1F5001F0CD349085FEA30004FEA3C0CF7
S113061004F101044FEA445212F5800F80F09A80ED
S1130620BCF1004F08BF5FEA500C50F1000041EBF1
S1130630045141EA050130BD5FEA4C0C404141EBF5
S1130640010111F4801FA4F10104E9D191F0000F1C
S113065004BF01460020B1FA81F308BF2033A3F19F
S11306600B03B3F120020CDA0C3208DD02F1140C96
S1130670C2F10C0201FA0CF021FA02F10CE002F1D1
S11306801402D8BFC2F1200C01FA02F120FA0CFCCA
S1130690DCBF41EA0C019040E41AA2BF01EB045113
S11306A0294330BD6FEA04041F3C1CDA0C340EDC11
S11306B004F11404C4F1200220FA04F001FA02F354
S11306C040EA030021FA04F345EA030130BDC4F112
S11306D00C04C4F1200220FA02F001FA04F340EA07
S11306E00300294630BD21FA04F0294630BD94F0B8
S11306F0000F83F4801306BF81F480110134013D9F
S11307004EE77FEA645C18BF7FEA655C29D094EA0F
S1130710050F08BF90EA020F05D054EA000C04BF8D
S11307201946104630BD91EA030F1EBF0021002078
S113073030BD5FEA545C05D14000494128BF41F017
S1130740004130BD14F580043CBF01F5801130BD7B
S113075001F0004545F0FE4141F470014FF0000006
S113076030BD7FEA645C1ABF194610467FEA655CB7
S11307701CBF0B46024650EA013406BF52EA033559
S113078091EA030F41F4002130BD00BF90F0000F47
S113079004BF0021704730B54FF4806404F1320483
S11307A04FF000054FF0000150E700BF90F0000F3C
S11307B004BF0021704730B54FF4806404F1320463
S11307C010F0004548BF40424FF000013EE700BF33
S11307D042004FEAE2014FEA31014FEA02701FBFC3
S11307E012F07F4393F07F4F81F06051704732F0F5
S11307F07F4208BF704793F07F4F04BF41F400214C
S1130800704730B54FF4607401F0004521F00041A9
S11308101CE700BF50EA010208BF704730B54FF033
S113082000050AE050EA010208BF704730B511F034
S1130830004502D5404261EB41014FF4806404F16C
S113084032045FEA915C3FF4D8AE4FF003025FEAF2
S1130850DC0C18BF03325FEADC0C18BF033202EB76
S1130860DC02C2F1200300FA03FC20FA02F001FAD0
S113087003FE40EA0E0021FA02F11444BDE600BF73
S113088070B54FF0FF0C4CF4E06C1CEA11541DBF22
S11308901CEA135594EA0C0F95EA0C0F00F0DEF8ED
S11308A02C4481EA030621EA4C5123EA4C5350EAD2
S11308B0013518BF52EA033541F4801143F4801323
S11308C038D0A0FB02CE4FF00005E1FB02E506F0B4
S11308D00042E0FB03E54FF00006E1FB03569CF009
S11308E0000F18BF4EF0010EA4F1FF04B6F5007F0F
S11308F064F5407404D25FEA4E0E6D4146EB060681
S113090042EAC62141EA55514FEAC52040EA5E5009
S11309104FEACE2EB4F1FD0C88BFBCF5E06F1ED8B3
S1130920BEF1004F08BF5FEA500E50F1000041EBEA
S1130930045170BD06F0004646EA010140EA020097
S113094081EA0301B4EB5C04C2BFD4EB0C0541EAB9
S1130950045170BD41F480114FF0000E013C00F3CE
S1130960AB8014F1360FDEBF002001F0004170BDF2
S1130970C4F10004203C35DA0C341BDC04F114040B
S1130980C4F1200500FA05F320FA04F001FA05F297
S113099040EA020001F0004221F0004110EBD37064
S11309A021FA04F642EB06015EEA430E08BF20EA90
S11309B0D37070BDC4F10C04C4F1200500FA04F333
S11309C020FA05F001FA04F240EA020001F00041C5
S11309D010EBD37041F100015EEA430E08BF20EA38
S11309E0D37070BDC4F1200500FA05F24EEA020E80
S11309F020FA04F301FA05F243EA020321FA04F0AF
S1130A0001F0004121FA04F220EA020000EBD37065
S1130A105EEA430E08BF20EAD37070BD94F0000F65
S1130A200FD101F00046400041EB010111F4801F99
S1130A3008BF013CF7D041EA060195F0000F18BF4A
S1130A40704703F00046520043EB030313F4801F86
S1130A5008BF013DF7D043EA0603704794EA0C0F40
S1130A600CEA135518BF95EA0C0F0CD050EA410656
S1130A7018BF52EA4306D1D181EA030101F00041D3
S1130A804FF0000070BD50EA410606BF10461946FB
S1130A9052EA430619D094EA0C0F02D150EA013607
S1130AA013D195EA0C0F05D152EA03361CBF104648
S1130AB019460AD181EA030101F0004141F0FE41E7
S1130AC041F470014FF0000070BD41F0FE4141F46B
S1130AD0780170BD70B54FF0FF0C4CF4E06C1CEA6B
S1130AE011541DBF1CEA135594EA0C0F95EA0C0F20
S1130AF000F0A7F8A4EB050481EA030E52EA0335DB
S1130B004FEA013100F088804FEA03334FF08055FB
S1130B1045EA131343EA12634FEA022245EA111528
S1130B2045EA10654FEA00260EF000419D4208BFD9
S1130B30964244F1FD0404F5407402D25B084FEA86
S1130B403202B61A65EB03055B084FEA32024FF432
S1130B5080104FF4002CB6EB020E75EB030E22BF8F
S1130B60B61A754640EA0C005B084FEA3202B6EB4F
S1130B70020E75EB030E22BFB61A754640EA5C00FE
S1130B805B084FEA3202B6EB020E75EB030E22BF8E
S1130B90B61A754640EA9C005B084FEA3202B6EB8F
S1130BA0020E75EB030E22BFB61A754640EADC004E
S1130BB055EA060E18D04FEA051545EA16754FEAB0
S1130BC006164FEAC30343EA52734FEAC2025FEACE
S1130BD01C1CC0D111F4801F0BD141EA00014FF05D
S1130BE000004FF0004CB6E711F4801F04BF01432E
S1130BF00020B4F1FD0C88BFBCF5E06F3FF6AFAE4A
S1130C00B5EB030C04BFB6EB020C5FEA500C50F1D9
S1130C10000041EB045170BD0EF0004E4EEA11315C
S1130C2014EB5C04C2BFD4EB0C0541EA045170BD63
S1130C3041F480114FF0000E013C90E645EA060EA7
S1130C408DE60CEA135594EA0C0F08BF95EA0C0FD5
S1130C503FF43BAF94EA0C0F0AD150EA01347FF41D
S1130C6034AF95EA0C0F7FF425AF104619462CE7F4
S1130C7095EA0C0F06D152EA03353FF4FDAE104657
S1130C80194622E750EA410618BF52EA43067FF4A8
S1130C90C5AE50EA41047FF40DAF52EA43057FF438
S1130CA0EBAE12E74FF0FF3C06E000BF4FF0010C43
S1130CB002E000BF4FF0010C4DF804CD4FEA410CA7
S1130CC07FEA6C5C4FEA430C18BF7FEA6C5C1BD074
S1130CD001B050EA410C0CBF52EA430C91EA030FF5
S1130CE002BF90EA020F0020704710F1000F91EA52
S1130CF0030F58BF994208BF90422CBFD8176FEA20
S1130D00E37040F0010070474FEA410C7FEA6C5CED
S1130D1002D150EA013C07D14FEA430C7FEA6C5CF4
S1130D20D6D152EA033CD3D05DF8040B704700BF20
S1130D308446104662468C461946634600E000BF6E
S1130D4001B5FFF7B7FF002848BF10F1000F01BD40
S1130D504DF808EDFFF7F4FF0CBF012000205DF80B
S1130D6008FB00BF4DF808EDFFF7EAFF34BF012090
S1130D7000205DF808FB00BF4DF808EDFFF7E0FF29
S1130D8094BF012000205DF808FB00BF4DF808ED7A
S1130D90FFF7CEFF94BF012000205DF808FB00BFE1
S1130DA04DF808EDFFF7C4FF34BF012000205DF8C3
S1130DB008FB00BF53B94AB9002908BF00281CBF6B
S1130DC04FF0FF314FF0FF3000F074B9ADF1080C73
S1130DD06DE904CE00F006F8DDF804E0DDE9022355
S1130DE004B070472DE9F047089E04468846002B5E
S1130DF040F085808A42154648D9B2FA82F24AB157
S1130E00C2F1200701FA02F320FA07F7954047EAF6
S1130E10030894404FEA154E230CB8FBFEF71FFA63
S1130E2085FC0EFB178843EA084307FB0CF1994243
S1130E3009D9EB1807F1FF3080F0E380994240F2C2
S1130E40E080023F2B445B1AA4B2B3FBFEF00EFB1E
S1130E50103344EA034400FB0CFCA44509D92C19C3
S1130E6000F1FF3380F0CB80A44540F2C880023803
S1130E702C4440EA0740A4EB0C0400271EB1D440E4
S1130E800023C6E900433946BDE8F087002A53D061
S1130E90B2FA82F2002A40F0B680491B4FEA154E9E
S1130EA01FFA85F80127B1FBFEFC230C0EFB1C1175
S1130EB043EA014308FB0CF1994207D9EB180CF102
S1130EC0FF3002D2994200F2EC808446591AA3B250
S1130ED0B1FBFEF00EFB101443EA044408FB00F8D7
S1130EE0A04507D92C1900F1FF3302D2A04500F226
S1130EF0DC801846A4EB080440EA0C40BEE78B42B1
S1130F0008D9002E78D00027C6E9000138463946B2
S1130F10BDE8F087B3FA83F77FB98B4202D38242EC
S1130F2000F2BD80841A61EB030301209846002E71
S1130F30A9D0C6E90048A6E7FFDEC7F12005BB40FB
S1130F4022FA05FC4CEA030C01FA07F420FA05F82E
S1130F5021FA05F34FEA1C4E48EA0404B3FBFEF9F8
S1130F60210C0EFB19331FFA8CF841EA034309FBE9
S1130F7008FA9A4502FA07F200FA07F10BD91CEBBA
S1130F80030309F1FF3080F088809A4540F28580A0
S1130F90A9F102096344A3EB0A03A4B2B3FBFEF074
S1130FA00EFB103344EA034400FB08F8A04508D9BB
S1130FB01CEB040400F1FF336BD2A04569D902385D
S1130FC0644440EA0940A4EB0804A0FB02894C45B0
S1130FD0C6464B4654D351D0002E69D0B1EB0E0215
S1130FE064EB030404FA05F522FA07F3FC401D43FD
S1130FF0C6E90054002746E73746304643E718461B
S113100037E707461FE7C2F1200320FA03F79540AC
S113101001FA02F021FA03F34FEA154E3843010CAA
S1131020B3FBFEF71FFA85F80EFB173341EA0341C1
S113103007FB08F38B4204FA02F407D9691807F195
S1131040FF3C28D28B4226D9023F2944CB1A81B2D5
S1131050B3FBFEF00EFB103341EA034100FB08F33F
S11310608B4207D9691800F1FF3C10D28B420ED98C
S113107002382944C91A40EA074714E74145ABD26C
S1131080B8EB020E69EB0C0201381346A4E7604684
S1131090F0E7184695E76746D8E781467BE7384688
S11310A045E7ACF1020C2B4410E702382C4421E74D
S11310B03746E8E6704700BF80B483B000AF03460C
S11310C03960FB7197F90730002B0CDA3B68DAB210
S11310D00D4997F9073003F00F03043B1201D2B214
S11310E00B441A760BE03B68DBB2084A97F9071009
S11310F008461B01D9B213180A4683F8002300BF1F
S11311000C37BD4680BC704700ED00E000E100E014
S113111080B483B000AF7860094B03F58153183372
S11311201A6807497B681A4301F5815318331A601A
S1131130BFF35F8F00BF0C37BD4680BC704700BF54
S11311400070044080B400AF024B1B681846BD46D3
S113115080BC704704E0FF1F80B400AF074B03F569
S1131160815314331B68054943F4806201F58153AC
S113117014331A6000BFBD4680BC70470070044041
S113118080B500AFFFF7DEFF0346184680BD0000C0
S113119080B582B000AF78604FF40070FFF7B8FFFD
S11311A0054A7B6843F4C02343F40073C2F88030DB
S11311B000BF0837BD4680BD0090044080B483B0B2
S11311C000AF78607B684FF47A721A607B680A22F9
S11311D01A717B6801225A717B6800229A717B68BC
S11311E00022DA717B6800221A727B6800225A722C
S11311F07B6803229A727B6818460C37BD4680BC14
S11312007047000080B582B000AF7860094A7B68FF
S11312101A607B6804331846FFF7D0FF7B6800220E
S11312201A747B684FF6FF725A827B681846083737
S1131230BD4680BDF04B000080B483B000AF786041
S1131240044A7B681A607B6818460C37BD4680BC2C
S1131250704700BFF04B000080B582B000AF7860EB
S11312607868FFF7E9FF1421786803F06CF87B686D
S113127018460837BD4680BD80B582B000AF78609F
S11312800B46FB707B681B6810331B68FA781146A9
S11312907868984700BF0837BD4680BD80B582B0E6
S11312A000AF78600B46FB70FB7819467868FFF74F
S11312B0E3FF7B6818460837BD4680BD80B582B021
S11312C000AF78600A217868FFF7E8FF0346184604
S11312D00837BD4680BD80B582B000AF7860396004
S11312E03B681B78002B08D03B685A1C3A601B787B
S11312F019467868FFF7D2FFF2E77B68184608378B
S1131300BD4680BD80B582B000AF78603960396871
S11313107868FFF7E0FF7868FFF7D0FF03461846C8
S11313200837BD4680BD80B483B000AF78600B46FB
S1131330FB707B68FA785A727B6818460C37BD4696
S113134080BC704780B483B000AF78607B685B6911
S11313501B79DBB203F02003002B14BF012300230D
S1131360DBB218460C37BD4680BC704780B584B0EC
S113137000AF78607B685B691B79FB73FB7B03F0D0
S11313800F03002B05D07B681B6820331B6878682B
S11313909847FB7B03F02003002B00D1EAE77B682E
S11313A05B69DB79DBB218461037BD4680BD80B57A
S11313B082B000AF78600B46FB707B685B691B7979
S11313C0DBB25BB2DB43DBB2DB09DBB2002B01D067
S11313D000BFF2E77B685B69FA78DA71FB780A2B65
S11313E004D17B680D211846FFF758FF00BF08376A
S11313F0BD4680BD80B582B000AF786039607B683F
S11314001846FFF7FFFE054A7B681A607B683A6856
S11314105A617B6818460837BD4680BDC44B00003E
S113142080B582B000AF7860054A7B681A607B683B
S11314301846FFF701FF7B6818460837BD4680BD94
S1131440C44B000080B582B000AF78607868FFF7C5
S1131450E7FF1821786802F076FF7B6818460837A2
S1131460BD4680BD80B487B000AFF860B9607A60D3
S1131470FB685B69DB78FB75FB685B690022DA70EB
S11314807B685A00BB68B2FBF3F33B61FB685B69A2
S11314901B78DBB223F01F03D9B23B695B13DBB2C9
S11314A003F01F03DAB2FB685B690A43D2B21A7015
S11314B03B695A11FB685B69D2B25A70FB685B697D
S11314C09B7ADBB223F01F03D9B23B69DBB203F092
S11314D01F03DAB2FB685B690A43D2B29A72FB68F3
S11314E05B69FA7DDA7000BF1C37BD4680BC70476B
S11314F080B483B000AF78607B685B691B79DBB232
S113150003F04003002B0CBF01230023DBB2002BAC
S113151000D0F1E700BF0C37BD4680BC704780B4F3
S113152083B000AF78607B685B69DB797B684FF6DA
S1131530FF725A8200BF0C37BD4680BC7047000062
S113154080B500AF4FF4E131054800F031F80121D6
S11315500348FFF7E8FE0020FFF71AFE00BF80BD36
S11315608CE0FF1F80B582B000AF786079680348D3
S1131570FFF7C8FE00BF0837BD4680BD8CE0FF1FE3
S113158080B582B000AF786039607B68184600F09F
S113159021F8064A7B681A603968786800F008F810
S11315A07B6818460837BD4680BD00BF6C4B000001
S11315B090B583B000AF786039607C68FFF7E0FDD8
S11315C003461A4639682046FFF74CFF00BF0C3724
S11315D0BD4690BD80B582B000AF78607B680B4A91
S11315E011461846FFF706FF094A7B681A60FFF7A1
S11315F0B3FD7B685B690C22DA70082000F02CF8DC
S11316007B6818460837BD4680BD00BF00A0064071
S1131610984B000080B582B000AF7860054A7B68C3
S11316201A607B681846FFF7FBFE7B68184608378C
S1131630BD4680BD984B000080B582B000AF786095
S11316407868FFF7E7FF1821786802F07CFE7B6872
S113165018460837BD4680BD80B582B000AF7860BB
S11316600F2379681846FFF727FD10237968184679
S1131670FFF722FD112379681846FFF71DFD00BF0F
S11316800837BD4680BD000080B582B000AF7860E9
S113169039607B68012B0ED13B684FF6FF72934291
S11316A009D14FF4E1310648FFF76AFF054A0649BC
S11316B0034802F043FE00BF0837BD4680BD00BFAB
S11316C08CE0FF1F00E0FF1FCD16000080B582B044
S11316D000AF7860054A7B681A607B681846FFF79C
S11316E099FF7B6818460837BD4680BD6C4B0000E7
S11316F080B582B000AF78607868FFF7E7FF182103
S1131700786802F020FE7B6818460837BD4680BD25
S113171080B483B000AF78607B685B69DB7900BF1D
S11317200C37BD4680BC704780B500AF4FF6FF71E3
S11317300120FFF7A9FF80BD80B483B000AF03464A
S1131740FB7197F9073003F01F02074997F9073037
S11317505B09012000FA02F241F8232000BF0C3794
S1131760BD4680BC704700BF00E100E080B483B098
S113177000AF7860044A7B681360034B1B6818460B
S11317800C37BD4680BC7047B8E0FF1F80B483B0FF
S113179000AF7860094B03F5815318331A68074981
S11317A07B681A4301F5815318331A60BFF35F8FC6
S11317B000BF0C37BD4680BC704700BF00700440BA
S11317C080B400AF024B1846BD4680BC704700BFD2
S11317D00024F40080B582B000AF78604FF400704C
S11317E0FFF7D4FF044A7B6843F44023C2F88430F3
S11317F000BF0837BD4680BD0090044080B400AFF0
S1131800074B03F581531C331B68054943F0005211
S113181001F581531C331A6000BFBD4680BC70477C
S11318200070044080B400AF064B1B6903F480735E
S1131830002B02D04FF4004300E000231846BD46BD
S113184080BC704700D0034080B500AF0A4B1B7BBF
S1131850DBB203F00103002B03D0012B05D00023DE
S113186007E0FFF7ADFF034603E0FFF7DBFF0346A6
S113187000BF184680BD00BF0040064080B400AFE2
S11318800D4B5B78DBB203F00103002B14BF012383
S11318900023DBB2002B09D0074B1B7ADBB25B08B9
S11318A003F00703054A22FA03F301E04FF400436F
S11318B01846BD4680BC70470040064000093D0004
S11318C080B400AF184A02F5815314331B6823F423
S11318D0802102F5815314331960134B4FF4002215
S11318E01A60114B03F580530433104A1A600E4BEF
S11318F003F580530C3300221A600B4B03F580531D
S1131900103300221A60084B03F580531833002269
S11319101A60054B03F58253083302221A6000BF94
S1131920BD4680BC704700BF007004404000050005
S113193080B483B000AF7860054B03F58253043361
S11319407A681A6000BF0C37BD4680BC704700BF80
S11319500070044080B500AF26231846FFF7ECFE64
S113196000BF80BD80B500AF00F0AAFA00BF80BD03
S113197080B586B000AF78607B681B7ABB73A648DD
S1131980FFF7D6FF7B68DA7BA44B1A737B689A7BDC
S1131990A24B1A72A14B00225A73A14B93F9003047
S11319A0B3F1FF3F02D10023FB750DE09C4B93F98B
S11319B0003018469A4B93F900301946994AC300EF
S11319C013440B441B78FB7597F90E30B3F1FF3FBA
S11319D000F02A8100233B610023FB7397F9173041
S11319E00133082B00F2DA8001A252F823F000BF81
S11319F0151A0000151A0000691A0000931A000055
S1131A00831B0000E51A00007F1B0000251B00005B
S1131A10711B00007B68DA7B804B1A737B689A7AAF
S1131A207E4B5A707B685B7A43F00403DAB27B4BDB
S1131A301A707A4BDB78DBB203F01F03DAB27B68EF
S1131A40DB7A1343DAB2754BDA7000BF734B9B79C0
S1131A50DBB203F01C03102B14BF01230023DBB201
S1131A60002B00F09680F0E77B685A7A6B4B1A7073
S1131A7000BF6A4B9B79DBB203F01C03002B14BF3D
S1131A8001230023DBB2002B00D0F1E70123FB7319
S1131A9084E07B68DA7B614B1A737B689A7A5F4BCC
S1131AA05A707B685B7A43F04403DAB25B4B1A707A
S1131AB05A4BDB78DBB203F01F03DAB27B68DB7AC4
S1131AC01343DAB2554BDA7000BF544B9B79DBB247
S1131AD003F01C03142B14BF01230023DBB2002BDF
S1131AE059D0F1E77B689A7A4C4B5A707B685B7AE1
S1131AF063F07F03DAB2494B1A707B685A7B474B19
S1131B005A7100BF454B9B79DBB203F01C03082BD1
S1131B1014BF01230023DBB2002B00D0F1E7012323
S1131B20FB733BE07B689A7A3C4B5A707B681A7B68
S1131B303A4B1A717B685B7B43F04003DAB2374B54
S1131B405A717B685B7A63F07F03DAB2334B1A70A5
S1131B500123FB73314B9B79DBB203F02003002B91
S1131B600CBF01230023DBB2002B16D000BFF1E72A
S1131B707B685A7A294B1A700123FB730EE0012308
S1131B80FB737B689B7A43F00203DAB2234B5A70EF
S1131B9004E000BF02E000BF00E000BFFB7B002BBD
S1131BA013D07B689B7A03F00403002B0DD000BF95
S1131BB01A4B9B79DBB203F00203002B0CBF012309
S1131BC00023DBB2002B00D0F1E7154AFB7D137034
S1131BD0134B93F900301A4697F90E301149D2008D
S1131BE00A4413441B78FB753B695A1C3A61052B64
S1131BF0CCBF01230023DBB2002B04D00D20FFF760
S1131C00B5FD03462BE0064B93F9003097F90E20FF
S1131C109A4209D0E0E600BF0000055500400640A6
S1131C20B4E0FF1F484C00007B681B681846FFF7B0
S1131C307FFE0D4B03F5805304331B6823F480327D
S1131C407B685B6808491A4301F5805304331A60C2
S1131C5000F00EF87B681A7C044B5A730023184674
S1131C601837BD4680BD00BF0070044000400640E8
S1131C7080B584B000AFFFF7E7FDF860864B1B78B2
S1131C80DBB203F00403002B0CBF01230023DBB2FF
S1131C90002B4DD0804B1B78DBB2DB0803F007032D
S1131CA0FA6822FA03F37D4A13607B4B5B78DBB25C
S1131CB003F03003002B08D0774B1B7BDBB203F01F
S1131CC00103012B01D0012300E00023002B33D0BA
S1131CD0714B1B78DBB203F03803302B0CBF0123AC
S1131CE00023DBB2002B08D06C4B1B686C4AA2FBB0
S1131CF003231B09694A13601EE0674B1B78DBB2A0
S1131D0003F03803382B0CBF01230023DBB2002B74
S1131D1008D0624B1B68634AA2FB0323DB085F4ABB
S1131D20136009E05D4B1B685B095C4A136003E0C8
S1131D305A4B4FF400421A60574BDB78DBB25BB26C
S1131D40002B02DA4FF4377301E04FF42073534A47
S1131D50126802FB03F3504AD278D2B2520902F05D
S1131D600302013202FB03F3BB6000237B60FB68C8
S1131D704B4AA2FB0323DB08474A5279D2B202F052
S1131D801F02183202FB03F37B60434B1B79DBB267
S1131D9003F01F0301337A68B2FBF3F37B607A68C4
S1131DA013469B0013445B007B603F4B00221A6088
S1131DB03E4B00221A60384B9B79DBB203F00C03D4
S1131DC00C2B37D801A252F823F000BF011E0000EB
S1131DD0351E0000351E0000351E00000F1E0000D9
S1131DE0351E0000351E0000351E00001B1E0000BD
S1131DF0351E0000351E0000351E0000271E0000A1
S1131E002B4ABB681360294ABB68136012E0FFF7D2
S1131E1035FD0246264B1A600CE0FFF715FD02461D
S1131E20234B1A6006E0224A7B6813601E4A7B68D3
S1131E30136000BF184B1B79DBB203F04003002B87
S1131E4014BF01230023DBB2002B02D0164A7B68A7
S1131E501360174B1A68174B03F5825304331B683E
S1131E601B0F03F00F030133B2FBF3F3124A1360A9
S1131E700F4B1A680F4B03F5825304331B681B0E78
S1131E8003F00F030133B2FBF3F30C4A136000BFFA
S1131E901037BD4680BD00BF00400640A4E0FF1FD0
S1131EA0CDCCCCCCABAAAAAAB0E0FF1FACE0FF1FFC
S1131EB0A8E0FF1F0070044004E0FF1F08E0FF1FBC
S1131EC080B500AF064BFF221A700648FFF750FD9D
S1131ED0FFF7F6FCFFF73EFDFFF7CAFE00BF80BD2B
S1131EE0B4E0FF1F0C4C000080B500AF00F006F812
S1131EF000F00AF8FFF736FD00BF80BD80B500AFE3
S1131F0000F008F800BF80BD80B500AF00F00EF807
S1131F1000BF80BD80B500AF0020FFF75BFC024B23
S1131F2082221A7000BF80BD0050064080B500AF09
S1131F30FFF764FC00BF80BD80B483B000AF78605D
S1131F4000BEFDE780B500AF012002F00FFA80B4B7
S1131F5000AF00BFBD4680BC704780B400AF00BF77
S1131F60BD4680BC7047000080B400AF0C4B0D4AE6
S1131F709A600B4B5B690A4A43F0100353610A4BA6
S1131F804CF22052DA81084B4DF62812DA81BFF365
S1131F904F8F054B10221A8000BFBD4680BC70478E
S1131FA000ED00E0000000000020054080B500AF17
S1131FB000F008F8FFF798FFFFF7C2FAFFF7C7FF32
S1131FC000BF80BD80B400AF054B9A78D2B242F016
S1131FD00802D2B29A7000BFBD4680BC704700BFF1
S1131FE000D0074080B483B000AF78600B46FB702C
S1131FF07B68FA789A727B6818460C37BD4680BCB9
S1132000704780B483B000AF786039603B68DAB25F
S11320107B68DA727B6818460C37BD4680BC704713
S113202080B489B000AFF860B96011461A460B4617
S1132030FB711346BB71FB68002B00D100BEFB791A
S1132040012B02D9FB79102B00D900BEFB687B6100
S1132050FA79BB68B3FBF2F102FB01F29B1A4B4A1B
S1132060D15CFB685A1CFA600A461A70FB79BA689C
S1132070B2FBF3F3BB60BB68002B00D0E8E7BB798D
S1132080032B51D801A252F823F000BF9D20000079
S1132090B1200000DB2000002921000097F82C303B
S11320A0002B3CD0FB685A1CFA602D221A7036E0D3
S11320B097F82C30002B04D0FB685A1CFA602D22B0
S11320C01A70FA687B69D31ABA6A9A4229DDFB68E6
S11320D05A1CFA6020221A70F3E7FA687B69D21A54
S11320E0BB6A013B9A4205DAFB685A1CFA6030224B
S11320F01A70F2E797F82C30002B04D0FB685A1CB6
S1132100FA602D221A70FA687B69D31ABA6A9A4265
S113211009DDFB685A1CFA6030221A7003E000BF24
S113212002E000BF00E000BFFB68013BFB617B698C
S1132130BB61BA69FB699A4210D2BB691B78FB7414
S1132140FB691978BB695A1CBA610A461A70F97C92
S1132150FB695A1EFA610A461A70EAE7BB79032B37
S11321600BD1FA687B69D31ABA6A9A4205DDFB6817
S11321705A1CFA6020221A70F3E7FB6800221A70D6
S1132180FB6818462437BD4680BC7047B444000041
S113219090B591B002AFF860B9601346FB71FB686B
S11321A0997AFB68DB7A1C46FA7907F1140000235C
S11321B0019300940B46B968FFF732FF07F114034B
S11321C01946F868FFF787F8034618463C37BD46BA
S11321D090BD80B584B000AFF860B9601346FB7160
S11321E0FB791A46B968F868FFF7D2FFF868FFF779
S11321F065F8034618461037BD4680BD80B584B0E7
S113220000AFF860B9601346FB71BB68FA791946F0
S1132210F868FFF7DEFF034618461037BD4680BD59
S113222080B584B000AFF860B9601346FB71FB79E8
S11322301A46B968F868FFF7CCFF0346184610370A
S1132240BD4680BD684620F007018D4681B482B04A
S113225000AF034B5B68C3F308037B6000BEFDE77C
S113226000ED00E01EF0040F0CBFEFF30880EFF365
S11322700980714600F002B800BF000004460D4614
S113228002215648FFF7AEFE08215448FFF7B9FE75
S113229053495248FFF71FF852495048FFF71BF8BB
S11322A0236810221946FFF7BBFF4F494B48FFF73D
S11322B012F8636810221946FFF7B2FF4B494748EA
S11322C0FFF709F8A36810221946FFF7A9FF484948
S11322D04248FFF700F8E36810221946FFF7A0FF11
S11322E044493E48FEF7F7FF236910221946FFF7D9
S11322F097FF41493948FEF7EEFF636910221946FA
S1132300FFF77CFF3D493548FEF7E5FFA36910223E
S11323101946FFF773FF3A493048FEF7DCFFE369DB
S113232010221946FFF77CFF36492C48FEF7D3FFED
S1132330354B9C6A35492948FEF7CDFF03460A22EE
S113234021461846FFF745FF31492448FEF7C3FFED
S11323502D4BDB6A10221946FFF73BFF2D491F481E
S1132360FEF7B9FF284B1B6B10221946FFF731FF0C
S113237029491A48FEF7AFFF234BDB6B102219469D
S1132380FFF727FF04F08003002B09D023491348EB
S1132390FEF7A1FF1C4B5B6B10221946FFF719FFD8
S11323A004F40043002B09D01D490C48FEF793FFA9
S11323B0154B9B6B10221946FFF70BFF1949074871
S11323C0FEF7A0FF18490548FEF785FF03461022D3
S11323D029461846FFF7FDFE00BEFDE78CE0FF1F0F
S11323E0C8440000E8440000F44400000045000034
S11323F00C4500001845000024450000304500004D
S11324003C4500004845000000ED00E05445000054
S1132410604500006C4500007845000084450000DC
S1132420904500009C450000A44500002DE9F00300
S113243084B000AFC7E90001184A4FF0FF31516082
S1132440164A05211160154A9268FA60D7E900120C
S1132450012972F100021ADB104A9268BA60F96825
S1132460BA688A1A11464FF000026FF07F484FF0A5
S1132470000901EA080302EA0904D7E90012CD1AA7
S113248062EB0406C7E90056BA68FA60DEE700BFEB
S11324901037BD46BDE8F003704700BF10E000E010
S11324A0B0B582B000AF78607B6819464FF0000287
S11324B00D4B1B684FF0000403FB02F501FB04F015
S11324C00544A1FB03016B181946084A4FF00003A9
S11324D0FEF770FC03460C4618462146FFF7A6FF9C
S11324E000BF0837BD46B0BD04E0FF1F40420F00E7
S11324F0B0B582B000AF78607B6819464FF0000237
S11325000E4B1B684FF0000403FB02F501FB04F0C3
S11325100544A1FB03016B1819464FF47A724FF07E
S11325200003FEF747FC03460C4618462146FFF716
S11325307DFF00BF0837BD46B0BD00BF04E0FF1FEC
S113254080B582B000AF78607868FFF70BF84FF081
S1132550FF30FFF7F1FC80B400AF00BFBD4680BC84
S11325607047000080B483B000AF7860094B03F576
S1132570815318331A6807497B681A4301F581535C
S113258018331A60BFF35F8F00BF0C37BD4680BCA1
S1132590704700BF0070044080B483B000AF78601F
S11325A07B6808491A1D0B4603CB106051601988DB
S11325B09B78118193727B6818460C37BD4680BCAA
S11325C0704700BFA8A5000080B483B000AF786056
S11325D07B6818460C37BD4680BC704780B582B016
S11325E002AF002301930023009300230022402123
S11325F0032001F00FFA0F2001F02BFA0B2001F059
S113260046FA00BFBD4680BD80B500AF01F056FA62
S113261000BF80BD80B582B000AF0346FB71FB797B
S1132620184601F056FA00BF0837BD4680BD80B594
S113263082B000AF0346FB71FB79184601F05AFAE9
S113264000BF0837BD4680BD80B500AF01F063FA16
S113265001F06AFA00BF80BD80B500AF01F06DFAE9
S11326600346184680BD80B582B000AF78607B68B1
S11326705A1E7A60002B14BF01230023DBB2002B07
S113268002D0FFF7E1FFF2E700BF0837BD4680BD87
S113269080B582B000AF78607868FFF701FF00BFB3
S11326A00837BD4680BD80B584B000AF7860002394
S11326B0FB607B681B681B68786898470346FB606F
S11326C0FB6818461037BD4680BD90B585B000AF95
S11326D078600023FB607B681B681B6878689847F8
S11326E00346FB60FB681C027B681B681B687868F8
S11326F0984703462344FB60FB6818461437BD46DD
S113270090BD90B585B000AF78600023FB607B6816
S11327101B681B68786898470346FB60FB681C02CB
S11327207B681B681B687868984703462344FB60F2
S1132730FB681C027B681B681B6878689847034623
S11327402344FB60FB681C027B681B681B68786879
S1132750984703462344FB60FB6818461437BD467C
S113276090BD80B483B000AF78607B68D3F87C33CD
S113277018460C37BD4680BC7047000080B588B051
S113278000AFF860B9607A60BB680733DB08FB61AF
S1132790FB69DB00BB610123FB7500233B61FB6923
S11327A05A1EFA61002B14BF01230023DBB2002B55
S11327B047D0FB7D002B1BD004212748FFF721FCC9
S11327C0034601211846FFF70DFC2348FFF7FCFEE2
S11327D003461846FFF7F8FE03461846FFF7F4FED3
S11327E003461846FFF7F0FE03461846FFF7ECFED3
S11327F0BB69083BBB6102211748FFF702FC034693
S113280002211846FFF7EEFB1348FFF7DDFE0346EF
S11328101846FFF7D9FE03461846FFF7D5FE3B6975
S113282001333B613B69082B0CBF01230023FB757B
S1132830FB7D002BB3D000233B610748FFF7C4FEA8
S1132840ADE70548FFF7C0FE0348FFF7A5FE00BF4C
S11328502037BD4680BD00BF8CE0FF1F80B586B029
S113286000AFF860B9603B601346FB71FB681B79ED
S11328700B2B06D0FB681B79042B02D03648FFF7DC
S11328805FFE3648FFF7A0FE03461846FFF79CFE9E
S113289003461846FFF798FEBB680733DB083B6125
S11328A00123FB753B69013B3A6813443B60FB68B9
S11328B00022C3F884230020FFF7B9FEBB685A1E28
S11328C0BA60002B14BF01230023DBB2002B32D0EB
S11328D0FB7D012B02D13B6800221A70BB68002BE0
S11328E004D197F820301846FFF7A1FEFB68D3F80F
S11328F084335A1CFB68C3F88423FB791846FFF71A
S113290089FEFFF7A1FEFFF7A7FE0346002B06D0C2
S11329103B681A78FB7D1343DAB23B681A70FB7D7F
S11329205B00FB75FB7D002BC8D10123FB753B6865
S1132930013B3B60C2E797F82030002B08D0FB68CE
S11329401B790B2B01D10C2200E00522FB681A71C4
S113295000BF1837BD4680BD504700008CE0FF1F04
S113296080B586B000AFF860B9607A603B60FB6800
S11329701B790B2B06D0FB681B79042B02D03D4836
S1132980FFF7DEFD3C48FFF71FFE03461846FFF73E
S11329901BFE03461846FFF717FEBB680733DB0828
S11329A03B610123FB753B69013B3A6813443B607F
S11329B0FB680022C3F884230020FFF738FEBB68BD
S11329C05A1EBA60002B14BF01230023DBB2002B74
S11329D03ED0FB7D012B02D13B6800221A70BB68FC
S11329E0002B04D197F820301846FFF720FEFB682F
S11329F0D3F884335A1CFB68C3F884237B681A78A1
S1132A00FB7D1340DBB2002B14BF01230023DBB298
S1132A101846FFF7FFFDFFF717FEFFF71DFE0346FD
S1132A20002B06D03B681A78FB7D1343DAB23B686F
S1132A301A70FB7D5B00FB75FB7D002BBFD101236E
S1132A40FB757B68013B7B603B68013B3B60B6E701
S1132A5097F82030002B08D0FB681B790B2B01D191
S1132A600C2200E00522FB681A7100BF1837BD462E
S1132A7080BD00BFA44700008CE0FF1F80B586B076
S1132A8000AFF860B9607A60FB70FB681B790B2BB0
S1132A9006D0FB681B79042B02D03148FFF750FDA8
S1132AA03048FFF791FD03461846FFF78DFD0346B6
S1132AB01846FFF789FDBB680733DB083B61012338
S1132AC0FB753B69013B7A6813447B60FB68002219
S1132AD0C3F884230020FFF7AAFDBB685A1EBA601E
S1132AE0002B14BF01230023DBB2002B28D0BB68CA
S1132AF0002B03D1FB781846FFF799FDFB68D3F848
S1132B0084335A1CFB68C3F884237B681A78FB7DE2
S1132B101340DBB2002B14BF01230023DBB21846A1
S1132B20FFF778FDFFF790FDFB7D5B00FB75FB7DF8
S1132B30002BD2D10123FB757B68013B7B60CCE782
S1132B40FB78002B08D0FB681B790B2B01D10C22DE
S1132B5000E00522FB681A7100BF1837BD4680BD2E
S1132B60F84700008CE0FF1F80B588B000AFF86024
S1132B70B9607A603B60FB681B790B2B06D0FB685D
S1132B801B79042B02D04A48FFF7DAFC4948FFF7C7
S1132B901BFD03461846FFF717FD03461846FFF7CB
S1132BA013FDBB680733DB08BB61FB680022C3F875
S1132BB084230123FB77BB69013B7A6813447B6060
S1132BC0BB69013B3A6813443B60BB69013BBA6A89
S1132BD01344BB620020FFF72AFDBB685A1EBA608B
S1132BE0002B14BF01230023DBB2002B4ED0BB68A3
S1132BF0002B04D197F82C301846FFF718FDFB681A
S1132C00D3F884335A1CFB68C3F884237B681A788E
S1132C10FB7F1340DBB2002B14BF01230023DBB284
S1132C201846FFF7F7FCFFF70FFDBB6A1A78FB7F26
S1132C301340DBB2002B17D03B681A78FB7F13409C
S1132C40DBB2002B14BF01230023FB75FFF704FD47
S1132C5003461A46FB7D934214BF01230023DBB2D3
S1132C60002B01D000231FE0FB7F5B00FB77FB7F81
S1132C70002BB2D10123FB777B68013B7B603B686F
S1132C80013B3B60BB6A013BBB62A6E797F82C3073
S1132C90002B08D0FB681B790B2B01D10C2200E020
S1132CA00522FB681A71012318462037BD4680BDF2
S1132CB04C4800008CE0FF1F80B588B000AFF8607E
S1132CC0B9607A603B60FB681B790B2B06D0FB680C
S1132CD01B79042B02D04348FFF732FC4248FFF72C
S1132CE073FC03461846FFF76FFC03461846FFF7CC
S1132CF06BFCBB680733DB08BB610123FB77BB6953
S1132D00013B7A6813447B60BB69013B3A68134416
S1132D103B60FB680022C3F884230020FFF787FC94
S1132D20BB685A1EBA60002B14BF01230023DBB218
S1132D30002B44D0BB68002B04D197F828301846E8
S1132D40FFF775FCFB68D3F884335A1CFB68C3F89F
S1132D5084237B681A78FB7F1340DBB2002B14BFFB
S1132D6001230023DBB21846FFF754FCFFF76CFC89
S1132D703B681A78FB7F1340DBB2002B14BF01239E
S1132D800023FB75FFF768FC03461A46FB7D93425C
S1132D9014BF01230023DBB2002B01D000231CE06D
S1132DA0FB7F5B00FB77FB7F002BB9D10123FB7713
S1132DB07B68013B7B603B68013B3B60B0E797F875
S1132DC02830002B08D0FB681B790B2B01D10C2277
S1132DD000E00522FB681A71012318462037BD461E
S1132DE080BD00BFA04800008CE0FF1F80B485B008
S1132DF000AF78600B46FB707B681B791A46FB7842
S1132E00054952000A4413441B78FB73FB7B1846A4
S1132E101437BD4680BC7047884D000080B584B02F
S1132E2000AF78600B46FB701346BB70FB78002B39
S1132E3013D10120FFF7FBFBFFF706FCFFF704FCAF
S1132E40FFF702FCFFF700FCFFF7FEFB7B680022A4
S1132E501A712C48FFF7B8FB50E07B681B79FA78AD
S1132E609A424AD07B681B791A46FB78264912019C
S1132E700A4413441B78FB7397F90F30002B02DAD2
S1132E802248FFF75DFB97F90F30002B14BF012395
S1132E900023DBB21846FFF7CAFBFFF7D5FB97F90F
S1132EA00F30002B14BF01230023DBB219467868CE
S1132EB0FFF79CFF03461A467B681A71BB78002B08
S1132EC00ED00023BB707B681B79FA789A420ED02F
S1132ED00C48FFF779FB03461846FFF775FB06E03D
S1132EE00848FFF771FB03461846FFF76DFB7B6844
S1132EF01B79FA789A4201D0B4E700BF1037BD4677
S1132F0080BD00BF8CE0FF1F884C0000F448000027
S1132F1080B586B000AFF860B9607A60BB680733EB
S1132F20DB087B617B69B3F5807F02D91048FFF72A
S1132F3007FB00233B617B695A1E7A61002B14BF97
S1132F4001230023DBB2002B0ED0FB681B681B6837
S1132F50F8689847034619463B695A1C3A617A68EF
S1132F6013440A461A70E6E700BF1837BD4680BD11
S1132F704049000090B589B002AF78607868FFF7E7
S1132F8092FB0346BB75BA48FFF71EFB034618467F
S1132F90FFF71AFB03461846FFF716FBBB7D0D2B04
S1132FA000F0B6830D2B28DC072B5BD0072B12DC3B
S1132FB0022B00F06581022B06DC002B4CD0012B88
S1132FC000F09D8000F0D6BC032B00F0B782042BE8
S1132FD06FD000F0CFBC0A2B57D00A2B06DC082B8D
S1132FE07AD0092B00F0FA8200F0C4BC0B2B56D027
S1132FF00C2B00F0688300F0BDBC132B00F0B180F3
S1133000132B14DC102B00F02084102B07DC0E2B68
S113301000F09E830F2B00F0D38300F0ABBC112B88
S113302000F05A84122B00F0818000F0A3BC162B10
S113303000F0C780162B07DC142B00F0AA80152B98
S113304000F0DC8100F096BC172B00F0CA80F02B56
S113305000F0238200F08EBC8548FFF7B5FA012307
S113306000F090BC7868FFF71EFB02467B68DA60CC
S11330707F48FFF7A9FA03461846FFF7A5FA034667
S11330801846FFF7A1FA00F07CBC7B68794AC3F8C4
S11330907C237748FFF798FA012300F073BC7B6820
S11330A0754AC3F87C237248FFF78EFA012300F0B7
S11330B069BC7868FFF725FB02467B689A606C4818
S11330C0FFF782FA03461846FFF77EFA03461846CE
S11330D0FFF77AFA00F055BC7868FFF712FB024656
S11330E07B681A616248FFF76FFA03461846FFF7D8
S11330F06BFA03461846FFF767FA00F042BC5C48D7
S1133100FFF762FA7B6819697B6803F58A731A46CC
S11331107868FFF7FDFE7B6819697B6803F58A739D
S11331201A465648FFF72AFB00F02BBC7868FFF7D5
S1133130BAFA03467B754E48FFF746FA034618462B
S1133140FFF742FA03461846FFF73EFA7B7D012259
S113315019467868FFF762FE4548FFF735FA00F034
S113316010BC7868FFF79FFA38613B69002B01D0E7
S11331700D2200E001227B685A713D48FFF724FAD2
S113318003461846FFF720FA03461846FFF71CFAD1
S1133190F7E37868FFF787FA38613B69002B01D0C1
S11331A0062200E001227B689A713148FFF70CFA8D
S11331B003461846FFF708FA03461846FFF704FAD1
S11331C0DFE32B48FFF700FA03461846FFF7FCF944
S11331D003461846FFF7F8F903461846FFF7F4F9D3
S11331E0CFE37868FFF75FFA0346FB737868FFF76D
S11331F05AFA0346BB737868FFF783FAB8601C4831
S1133200FFF7E2F903461846FFF7DEF903461846CE
S1133210FFF7DAF903461846FFF7D6F903461846CE
S1133220FFF7D2F903461846FFF7CEF903461846CE
S1133230FFF7CAF9FB7B002219467868FFF7EEFD19
S11332400B48FFF7C1F903461846FFF7BDF90346DB
S11332501846FFF7B9F9B868FFF71AFABB7B0022E2
S113326019467868FFF7DAFD0148FFF7ADF988E3FE
S11332708CE0FF1F7449000090490000A849000039
S11332807868FFF710FA3861A848FFF79DF90346FC
S11332901846FFF799F903461846FFF795F97B6836
S11332A014331A4639697868FFF732FE00220B217D
S11332B07868FFF7B3FD7B6803F114027B6803F5BC
S11332C00571012300930B4639697868FFF748FBC1
S11332D07B689B68002B15D0002201217868FFF7DA
S11332E09DFD7B689B681846FFF7BDF98F48FFF783
S11332F06BF903461846FFF767F903461846FFF7CC
S113330063F911E07B685B79002219467868FFF75E
S113331085FD7B685B790D2B06D17B681B790D2BB2
S113332002D08348FFF70CF98048FFF74DF93B6959
S1133330082B5BD10123FB757C48FFF745F97B68BB
S11333401B7DEA2B14D0EA2B06DCC02B28D0E82BFB
S11333501AD0012B10D02BE0EE2B25D0EE2B02DC63
S1133360ED2B15D024E0F02B16D0FF2B08D01FE056
S11333706E48FFF729F929E06C48FFF725F925E0A5
S11333806A48FFF721F921E06848FFF71DF91DE0BD
S11333906648FFF719F919E06448FFF715F915E0D5
S11333A06248FFF711F911E06048FFF70DF90DE0ED
S11333B05E48FFF709F903461846FFF705F9034687
S11333C01846FFF701F90023FB7500BFFB7D002BB6
S11333D000F0D6825548FFF7F7F803461846FFF782
S11333E0F3F803461846FFF7EFF8C9E27B68143395
S11333F01A4639694F48FFF7C1F9C1E27868FFF707
S113340064F938614948FFF7DFF803461846FFF7C7
S1133410DBF803461846FFF7D7F87B6814331A46DF
S113342039697868FFF774FD00220B217868FFF78B
S1133430F5FC7B6803F11402012339697868FFF70E
S11334401DFB7B689B68002B15D000220121786846
S1133450FFF7E4FC7B689B681846FFF704F93348E0
S1133460FFF7B2F803461846FFF7AEF803461846CE
S1133470FFF7AAF806E07B685B79002219467868B2
S1133480FFF7CCFC2948FFF79FF87B6814331A46F2
S113349039692848FFF772F973E27868FFF703F98E
S11334A038612248FFF790F803461846FFF78CF876
S11334B003461846FFF788F87B6814331A463969BF
S11334C07868FFF725FD002204217868FFF7A6FC41
S11334D07B681433002B14BF01230023DAB27B680A
S11334E003F50571012300930B4639697868FFF7EA
S11334F0B5F97B685B79002219467868FFF78EFC82
S11335000A48FFF761F87B6814331A463969094899
S1133510FFF734F90548FFF757F87B6803F505739F
S11335201A4639690448FFF729F92AE28CE0FF1F9B
S1133530B4490000F4490000004A00009B48FFF72A
S113354043F87B6819697B6814331A467868FFF777
S1133550DFFC002204217868FFF760FC7B681969AE
S11335607B6803F114007B6803F505747B6803F53D
S11335708A73012201920093234602467868FFF77A
S1133580F3FA7B689B68002B15D000220121786830
S1133590FFF744FC7B689B681846FFF764F8834890
S11335A0FFF712F803461846FFF70EF803461846CD
S11335B0FFF70AF806E07B685B7900221946786811
S11335C0FFF72CFC7948FEF7FFFF7B6819697B68DD
S11335D014331A467648FFF7D1F8D2E17348FEF760
S11335E0F3FF7B6819697B6814331A467868FFF720
S11335F08FFC7B6819697B6803F505731A46786844
S1133600FFF786FC002204217868FFF707FC7B683B
S113361019697B6803F114007B6803F505747B6802
S113362003F58A73012201920093234602467868C7
S1133630FFF79AFA034683F00103DBB2002B0CD0A8
S11336407B685C4AC3F87C235848FEF7BDFF0346F9
S11336501846FEF7B9FF012394E17B689B68002BB1
S113366015D0002201217868FFF7D8FB7B689B689E
S11336701846FEF7F8FF4D48FEF7A6FF0346184626
S1133680FEF7A2FF03461846FEF79EFF06E07B689E
S11336909B79002219467868FFF7C0FB4348FEF780
S11336A093FF7B6819697B6814331A464048FFF717
S11336B065F87B6819697B6803F505731A463E480B
S11336C0FFF75CF85DE13948FEF77EFF7B68196916
S11336D07B6814331A467868FFF71AFC0022042129
S11336E07868FFF79BFB7B6819697B6803F1140218
S11336F000237868FFF7C2F92C48FEF765FF7B6862
S113370019697B6814331A462948FFF737F838E1FA
S11337102648FEF759FF7B6819697B6814331A46FB
S11337207868FFF7F5FB7B6819697B6803F114027D
S113373000237868FFF7A2F91C48FEF745FF7B6871
S113374019697B6814331A461948FFF717F818E10A
S11337501648FEF739FF7B681B79042B02D0174803
S1133760FEF7EEFE7B6819697B6814331A467868A5
S1133770FFF7CEFB7B6819697B6803F11402012310
S11337807868FFF77BF97B689B7900221946786893
S1133790FFF744FB0548FEF717FF7B6819697B6850
S11337A014331A460248FEF7E9FFEAE08CE0FF1FF3
S11337B0F44900000C4A0000004A0000244A0000BA
S11337C07248FEF701FF7B6819697B6814331A4657
S11337D07868FFF79DFB7B6819697B6803F50573BF
S11337E01A467868FFF794FB002204217868FFF7F3
S11337F015FB7B6819697B6803F114027B6803F588
S113380005700023009303467868FFF755FA0346D2
S113381083F00103DBB2002B05D07B685C4AC3F85C
S11338207C230123AEE07B6819697B6814331A4654
S11338305848FEF7A3FF7B6819697B6803F5057395
S11338401A465548FEF79AFF9BE05048FEF7BCFE27
S11338507B6819697B6814331A467868FFF758FB4C
S11338607B6819697B6803F505731A467868FFF766
S11338704FFB7B681B79042B02D04848FEF760FE9F
S11338807B6819697B6803F114027B6803F5057092
S11338900023009303467868FFF70EFA034683F08B
S11338A00103DBB2002B05D07B68394AC3F87C23C3
S11338B0012367E07B6819697B6814331A4635482D
S11338C0FEF75CFF7B6819697B6803F505731A468C
S11338D03148FEF753FF54E02C48FEF775FE7B6831
S11338E019697B6814331A467868FFF711FB7B6803
S11338F019697B6803F505731A467868FFF708FBB6
S11339007B681B79042B02D02548FEF719FE7B68DF
S113391019697B6803F114027B6803F505700123C0
S1133920009303467868FFF7C7F9034683F0010361
S1133930DBB2002B05D07B68154AC3F87C23012336
S113394020E07B689B79002219467868FFF766FAC5
S11339507B6819697B6814331A460E48FEF70EFF1C
S11339607B6819697B6803F505731A460A48FEF7F4
S113397005FF06E07B680B4AC3F87C23012301E0C2
S113398000BF002318461C37BD4690BD8CE0FF1FC6
S1133990684A0000F4490000004A0000784A000028
S11339A0BC4A0000004B000080B584B000AF7860D2
S11339B00023FB73FEF712FEFB7B002B05D1786816
S11339C0FFF7D8FA0346FB73F6E7FEF71DFE7868A7
S11339D0FEF7C7FEB8600E48FEF7F6FD034618462C
S11339E0FEF7F2FD03461846FEF7EEFDBB68002B1A
S11339F008D00748FEF7E8FD03461846FEF7E4FD45
S1133A00002300E0012318461037BD4680BD00BFE7
S1133A108CE0FF1F80B582B000AF3B600346FB71B2
S1133A200B46BB7113467B71FA79BB791343DAB247
S1133A307B791343DBB21A463B681A433B7C1A4337
S1133A403B7D1343184600F07FF800BF0837BD469E
S1133A5080BD90B585B000AF7860EFF3108072B68A
S1133A60F86000F09FF803461B6823F00F027B68A0
S1133A7003F00F0342EA030400F094F803461C60C9
S1133A80F86880F3108800BF1437BD4690BD90B528
S1133A9083B000AF786000F085F803465B6923F0DB
S1133AA00F027B6803F00F0342EA030400F07AF884
S1133AB003465C6100BF0C37BD4690BD80B500AFC6
S1133AC000F070F803465A6922F00F025A6100BFF1
S1133AD080BD80B582B000AF0346FB71FB79002B3B
S1133AE002D000F069F801E000F06CF800BF08377C
S1133AF0BD4680BD80B582B000AF0346FB71FB7943
S1133B00002B02D000F064F801E000F067F800BF79
S1133B100837BD4680BD80B500AF00F065F80246A9
S1133B200823936000BF80BD80B500AF00F05CF84F
S1133B3002460823536000BF80BD80B500AF00F08B
S1133B405DF80346184680BD90B585B000AF786037
S1133B504FF480631846FEF705FD00F023F8034692
S1133B605A6922F00F025A610020FFF772FF7B6846
S1133B7023F4E06343F480737B600023FB60FB6801
S1133B80032B0AD87C6800F049F80246FB6842F827
S1133B902340FB680133FB60F1E700BF1437BD46E7
S1133BA090BD000080B400AF024B1846BD4680BCF7
S1133BB0704700BF40F00F4080B500AF00F038F808
S1133BC000BF80BD80B500AF00F03BF800BF80BDF2
S1133BD080B500AF00F03EF800BF80BD80B500AFF7
S1133BE000F041F800BF80BD80B400AF024B18461E
S1133BF0BD4680BC704700BF40F00F4080B500AFA9
S1133C0000F03AF803461B6903F00403002B14BFC9
S1133C1001230023DBB2184680BD000080B400AF4E
S1133C20024B1846BD4680BC704700BF00A004404C
S1133C3080B500AF00F02AF802460223536000BFAB
S1133C4080BD80B500AF00F021F8024602239360E6
S1133C5000BF80BD80B500AF00F022F8024601230A
S1133C60536000BF80BD80B500AF00F019F8024674
S1133C700123936000BF80BD80B400AF024B18469F
S1133C80BD4680BC704700BF40F00F4080B400AF19
S1133C90024B1846BD4680BC704700BF40F00F4041
S1133CA080B400AF024B1846BD4680BC704700BFCD
S1133CB040F00F4080B483B000AF7860094B03F547
S1133CC0815318331A6807497B681A4301F58153F5
S1133CD018331A60BFF35F8F00BF0C37BD4680BC3A
S1133CE0704700BF0070044080B400AF064B1B78DF
S1133CF0DBB25BB2002B01DA044B00E00023184670
S1133D00BD4680BC704700BF005006400024F4004C
S1133D1080B582B000AF0346FB71FB79032B18D842
S1133D2001A252F823F000BF393D00003F3D0000DE
S1133D30473D00004F3D0000084B1B680AE0074B5D
S1133D401B685B0806E0FFF7CFFF034602E0044B65
S1133D5000E0002318460837BD4680BD08E0FF1F79
S1133D6080841E0080B400AF074B03F581531C33DD
S1133D701B68054943F0006201F581531C331A6046
S1133D8000BFBD4680BC70470070044080B582B05F
S1133D9000AF78603960194A7B681A607B6800223A
S1133DA01A717B6801225A717B6801229A717B68BF
S1133DB000229A607B682022DA607B6800221A6104
S1133DC07B6803F5457364220021184600F00EFB5E
S1133DD07B683A68C3F878237B680022C3F87C23A5
S1133DE07B680022C3F880237B680022C3F8842305
S1133DF07B6818460837BD4680BD00BFD0A50000CB
S1133E0080B483B000AF7860044A7B681A607B6832
S1133E1018460C37BD4680BC704700BFD0A50000D3
S1133E2080B582B000AF78607868FFF7E9FF4FF49F
S1133E306271786800F087FA7B6818460837BD46D7
S1133E4080BD80B483B000AF78607B68D3F88023F2
S1133E507B68D3F878339A4201D900230BE07B685E
S1133E60D3F888237B68D3F88033581C7968C1F869
S1133E70800313441B7818460C37BD4680BC70473A
S1133E8080B584B000AFF860B9607A60FB68B96847
S1133E901846FFF77BFF064AFB681A60FB687A68DE
S1133EA0C3F88823FB6818461037BD4680BD00BFA1
S1133EB0BCA5000080B582B000AF7860054A7B687D
S1133EC01A607B681846FFF79BFF7B681846083723
S1133ED0BD4680BDBCA5000080B582B000AF78604F
S1133EE07868FFF7E7FF4FF46371786800F02BFA06
S1133EF07B6818460837BD4680BD000080B483B097
S1133F0000AF0346FB71FB790C2B28D801A252F8B1
S1133F1023F000BF493F00005F3F00005F3F000007
S1133F205F3F0000533F00005F3F00005F3F000021
S1133F305F3F00004D3F00005F3F00005F3F000017
S1133F405F3F0000593F0000FF2309E040F2FF33C8
S1133F5006E040F6FF7303E04FF6FF7300E0002332
S1133F6018460C37BD4680BC704700BF00000000F7
S1133F70F0B585B004AF002302930423019310230A
S1133F800093002300220021002000F07DF800F0BF
S1133F90BAF803461846FCF7F9FB04460D46002020
S1133FA0FFF7ACFF03461846FCF7F0FB0EA3D3E97A
S1133FB00023FCF765FC02460B4611461A46012312
S1133FC01E4613460A4620462946FCF7E9FE0346E8
S1133FD0002B01D100231E46F3B218460437BD4618
S1133FE0F0BD00BFAFF300809A9999999999E93F80
S1133FF080B582B000AF04220021402000F08BF88D
S11340006420FEF775FA1A491A48FDF77BF9FFF7A1
S1134010AFFF034683F00103DBB2002B01D000BFE6
S1134020F5E76420FEF764FA13491248FDF76AF9CC
S113403000F009F91148FFF7B7FC0346FB7000F0E4
S113404008F9FB78002B07D04FF4FA737B600C4916
S11340500848FDF757F905E032237B600949054814
S1134060FDF750F900F06EF87868FEF741FAF9E7C9
S1134070104B00008CE0FF1F244B0000BCE0FF1F2E
S1134080404B0000544B000090B583B000AF044691
S1134090084611461A462346FB710346BB710B467C
S11340A07B7113463B7100F056F8FA79BB791343E0
S11340B0DBB21C46BB79184600F060F8034644EABC
S11340C003023B791A437B7903F0100342EA0304A9
S11340D000F04AF803469C603A7E3B7F1343DAB211
S11340E097F820301343DAB27B7903F00303DBB291
S11340F01343DBB21C4600F037F80346DC6000BF14
S11341000C37BD4690BD80B500AF0F2000F062F8BB
S11341100346184680BD80B582B000AF0346FB71EC
S11341200B46BB7113467B71FA79BB791343DAB240
S11341307B791343DBB2184600F071F800BF0837EF
S1134140BD4680BD80B500AF00F08AF802468023EA
S1134150D36000BF80BD80B500AFFFF703FEBFF39F
S11341605F8F00BF80BD000080B400AF024B00BF72
S11341701846BD4680BC704700B0034080B584B08B
S113418000AF0346FB71FB791846FFF7C1FDF860E9
S11341900023BB60BB68032B0FD8FB680B4A934218
S11341A003D8FB680A4A934206D8FB685B08FB60A5
S11341B0BB680133BB60EDE700BFBB685B0103F084
S11341C0600318461037BD4680BD00BF001BB70012
S11341D07F841E0090B583B000AF78607C68FFF7E1
S11341E0C3FF03461C60FFF7BFFF03461B68FFF7CE
S11341F0BBFF03461B6803F08003002B0CBF0123A5
S11342000023DBB2002B01D000BFF0E7FFF7ACFFC7
S113421003461B699BB218460C37BD4690BD80B55A
S113422082B000AF786000F014F800F023F87B68E7
S113423023F4E06343F48073184600F026F800BFCB
S11342400837BD4680BD80B500AF00F02FF800BF31
S113425080BD80B500AF00F032F800BF80BD000023
S113426080B400AF024B1846BD4680BC704700BF07
S1134270C0F00F4080B500AFFFF7F2FF03465A6964
S113428042F080025A6100BF80BD90B583B000AF98
S113429078604FF48050FFF70DFD7C6800F018F84B
S11342A003461C6000BF0C37BD4690BD80B500AF0F
S11342B0FFF7D6FF02468023536000BF80BD80B560
S11342C000AFFFF7CDFF02468023936000BF80BD9F
S11342D080B400AF024B1846BD4680BC704700BF97
S11342E01CC0044080B582B000AF786039607B6840
S11342F0012B0FD13B684FF6FF7293420AD1074A54
S113430045F2FD710648FFF7BBFD064A064904481D
S113431000F014F800BF0837BD4680BDA84D00006A
S1134320BCE0FF1F00E0FF1FB53E000080B500AFFA
S11343304FF6FF710120FFF7D5FF80BD0B46014604
S1134340184600F005B800F000B800F047B80000C7
S113435010B5054C13462CB10A4601460220AFF3B2
S1134360008010BD2046FCE70000000008B5074BA4
S1134370044613B10021AFF30080054B1868836A2B
S113438003B198472046FDF7D7FD00BF00000000A9
S1134390DCA5000070B50D4D0D4C641BA410002667
S11343A0A64209D10B4D0C4C06F01AF9641BA4105B
S11343B00026A64205D170BD55F8043B9847013646
S11343C0EEE755F8043B98470136F2E7F8A50000FC
S11343D0F8A50000F8A500000CA60000024B014659
S11343E0186800F00BB800BF0CE0FF1F024403463E
S11343F0934200D1704703F8011BF9E738B505462D
S1134400002945D051F8043C0C1F002BB8BFE41818
S113441000F042F81F4A1368104633B96360146011
S11344202846BDE8384000F03DB8A3420CD92168C5
S11344306218934204BF1A685B68636004BF521831
S113444022600460ECE713465A680AB1A242FAD922
S113445019685818A0420BD12068014458188242A8
S11344601960DDD1106852685A6001441960D7E7B9
S113447002D90C232B60D3E7206821188A4204BF99
S113448011685268626004BF091821605C60C7E764
S113449038BD00BF48E4FF1F014800F009B800BF61
S11344A050E4FF1F014800F004B800BF50E4FF1FB0
S11344B070477047303132333435363738394142FA
S11344C043444546000000000A5B4861726466612B
S11344D0756C745D0A202D20537461636B206672C1
S11344E0616D653A0A000000523020203D2030788A
S11344F000000000523120203D20307800000000F0
S1134500523220203D203078000000005233202019
S11345103D20307800000000523132203D203078B8
S1134520000000004C5220203D20307800000000A4
S1134530504320203D20307800000000505352208A
S11345403D203078000000002D204653522F464174
S1134550523A0A0043465352203D2030780000006E
S113456048465352203D20307800000044465352C0
S1134570203D20307800000041465352203D203039
S1134580780000004D4D464152203D20300000008F
S113459042464152203D2030780000002D204D69D4
S11345A0736300004C522F4558435F524554555293
S11345B04E3D20307800000058434F4D504C455438
S11345C0450000005854444F4D41534B0000000037
S11345D05853495200000000585344520000000050
S11345E05852554E5445535400000000496C6C65B4
S11345F067616C0058524550454154005853445229
S113460053495A45000000005853445254444F0043
S1134610585345545344524D41534B5300000000EA
S113462058534452494E43005853445242000000E8
S1134630585344524300000058534452450000006C
S11346405853445254444F420000000058534452BB
S113465054444F43000000005853445254444F45BF
S113466000000000585354415445000058454E443E
S11346704952000058454E44445200005853495290
S11346803200000058434F4D4D454E540000000089
S11346905857414954000000526573657400000086
S11346A049646C650000000044525F53656C6563A7
S11346B07400000044525F436170747572650000B9
S11346C044525F53686966740000000044525F45B9
S11346D0786974310000000044525F50617573655D
S11346E00000000044525F45786974320000000005
S11346F044525F55706461746500000049525F5311
S1134700656C65637400000049525F4361707475A1
S11347107265000049525F536869667400000000C6
S113472049525F45786974310000000049525F5076
S1134730617573650000000049525F457869743201
S11347400000000049525F55706461746500000008
S1134750417373657274696F6E204661696C656438
S113476020402E2E2F536F75726365732F787376E6
S113477066506C617965722E6370703A31343320FF
S11347802D20496C6C6567616C20737461746520BD
S1134790666F72207368696674206F7065726174E5
S11347A0696F6E00417373657274696F6E20466140
S11347B0696C656420402E2E2F536F757263657388
S11347C02F78737666506C617965722E6370703AD7
S11347D0313932202D20496C6C6567616C2073740B
S11347E061746520666F72207368696674206F70E7
S11347F065726174696F6E00417373657274696F79
S11348006E204661696C656420402E2E2F536F75AF
S1134810726365732F78737666506C617965722E56
S11348206370703A323431202D20496C6C656761B5
S11348306C20737461746520666F72207368696696
S113484074206F7065726174696F6E004173736573
S11348507274696F6E204661696C656420402E2E07
S11348602F536F75726365732F78737666506C611E
S11348707965722E6370703A323838202D20496C75
S11348806C6567616C20737461746520666F722057
S11348907368696674206F7065726174696F6E0005
S11348A0417373657274696F6E204661696C6564E7
S11348B020402E2E2F536F75726365732F78737695
S11348C066506C617965722E6370703A33343520AA
S11348D02D20496C6C6567616C207374617465206C
S11348E0666F72207368696674206F706572617494
S11348F0696F6E00417373657274696F6E204661EF
S1134900696C656420402E2E2F536F757263657336
S11349102F78737666506C617965722E6370703A85
S1134920343237202D20496C6C6567616C207374B8
S1134930617465207472616E736974696F6E0000CE
S1134940417373657274696F6E204661696C656446
S113495020402E2E2F536F75726365732F787376F4
S113496066506C617965722E6370703A3437392001
S11349702D200000585345545344524D41534B533A
S1134980206E6F7420737570706F727465640000AC
S113499058534452494E43206E6F7420737570709F
S11349A06F7274656400000074646F5F6D61736B93
S11349B000000000417373657274696F6E20466174
S11349C0696C656420402E2E2F536F757263657376
S11349D02F78737666506C617965722E6370703AC5
S11349E0363836202D20496C6C6567616C207374F1
S11349F0617465007464695F76616C7565000000BC
S1134A0074646F5F76616C7565000000556E65783F
S1134A107065637465642054444F2076616C7565D9
S1134A2000000000417373657274696F6E20466103
S1134A30696C656420402E2E2F536F757263657305
S1134A402F78737666506C617965722E6370703A54
S1134A50383630202D20496E2077726F6E672073B0
S1134A60746174650000000054444F206E6F74201C
S1134A706D61746368656400417373657274696F12
S1134A806E204661696C656420402E2E2F536F752D
S1134A90726365732F78737666506C617965722ED4
S1134AA06370703A393034202D20496E2077726F4C
S1134AB06E67207374617465000000004173736550
S1134AC07274696F6E204661696C656420402E2E95
S1134AD02F536F75726365732F78737666506C61AC
S1134AE07965722E6370703A393236202D20496E02
S1134AF02077726F6E672073746174650000000024
S1134B00556E6B6E6F776E20636F6D6D616E6400B2
S1134B1057616974696E6720666F722056726566A4
S1134B2000000000567265662070726573656E74CD
S1134B30202D2070726F6772616D6D696E67000061
S1134B4053657175656E636520636F6D706C657414
S1134B506564000053657175656E636520666169FF
S1134B606C6564000000000000000000CD16000029
S1134B70F1160000451300006D130000AF13000090
S1134B80F11400001F150000B115000011170000FA
S1134B900000000000000000000000000000000011
S1134BA0451300006D130000AF130000F114000062
S1134BB01F150000451F0000111700000000000031
S1134BC00000000000000000000000004513000089
S1134BD06D130000AF130000F11400001F15000056
S1134BE0451F0000451F00000000000000000000F9
S1134BF00000000000000000451F0000451F0000E9
S1134C00451F0000451F0000451F00000000031160
S1134C10000001000722250003000000000000003E
S1134C2000000F33000000000522250000000000F2
S1134C3000000000000003110000000001222560B4
S1134C40000000000000000000010202040404044B
S1134C500000020204040404000100030404040428
S1134C60020202020202020200010202000506061A
S1134C7004040404040406060404040404050407E8
S1134C8006060606060606060100FFFFFFFF00FFF4
S1134C90FFFFFFFFFF00FFFF010001FF01FF01FF16
S1134CA0FFFFFF01FF01FFFF01FFFF0000FF00FF07
S1134CB0FF01FF01FF01FFFFFFFFFFFF000101FFF5
S1134CC0FFFFFFFFFFFFFFFFFF01FFFF0001FFFFEB
S1134CD0FFFFFFFFFFFFFFFFFF01FFFFFFFF00FFDD
S1134CE001FFFFFFFFFFFFFF0101FFFFFFFF0101C6
S1134CF0FFFFFF01FF01FFFF0101FFFF00FF01FFB5
S1134D0001FFFF01FF01FFFF010001FFFFFF01FFA2
S1134D10FFFFFF01FF01FFFF01FFFFFFFFFFFFFF99
S1134D20FFFF0000FF00FFFFFFFFFFFFFFFFFFFF8C
S1134D30FFFFFF000101FFFFFF01FFFFFFFFFFFF78
S1134D40FFFFFF0001FFFFFFFF01FFFFFFFFFFFF6A
S1134D50FFFFFFFFFF00FF010101FFFF01FF01FF54
S1134D60FFFFFFFFFF0101FF0101FFFF01FF01FF43
S1134D70FFFFFF00FF01FF01010001FF01FF01FF31
S1134D80FFFFFFFFFF01FFFF01000102030904050C
S1134D9004050608FF07040801020A000B0C0B0CAB
S1134DA00D0FFF0E0B0F010204000000000700139B
S1134DB00014001200120102080108000000200182
S1134DC00FFF8FFF0900000000F6E5F0930208FFD3
S1134DD00208E813010208ED13001706060000009C
S1134DE014170101000186A0170606000013881796
S1134DF001010000000113010208F0170101000085
S1134E00001413010208F0120E120F120212031200
S1134E10051701010000032013000208C017010157
S1134E20000000640208C0170101000000640208C9
S1134E30E813010208EA0800000119130001000048
S1134E40000000000000000000000000000000005E
S1134E50000000000000000000000000000000004E
S1134E600000090003C9F7FFFFFFFFFFFFFFFFFF7B
S1134E70FFFFFFFFFFFE3C7FFFFFFFFFFFFFFFFF82
S1134E80FFFFFFFFFFEE4F000000000000000000E6
S1134E90000000000000000000000000000000000E
S1134EA000000000000000000000001701010000E5
S1134EB02710090100D9FFFFFFFFFFDBFFFFFFFF02
S1134EC0FFFFFFFFFFFE6C7FFFFFFFFFEFFFFFFF12
S1134ED0FEFBFFFFFFFE6C0000000000000000006E
S1134EE000000000000000000000000000000000BE
S1134EF00000000000000000000000170101000095
S1134F00271009018201FFFDFFFFFFFFFFFFFFFFE5
S1134F10FFFFFFFFFFFE7E67FFFFFFFFFFFFFFFFB7
S1134F20FFFFFFFFEFFF8100000000000000000012
S1134F30000000000000000000000000000000006D
S1134F400000000000000000000000170101000044
S1134F502710090083C9FFFFFFFDFFFFFFFFFFFFCD
S1134F60FFFFFFFFFFFE6C7FFFFFFFFFFFFFFFFF61
S1134F70FFFFFBFFFFFE4F000000000000000000E9
S1134F80000000000000000000000000000000001D
S1134F9000000000000000000000001701010000F4
S1134FA027100900C0D9FFFFFFFF7F7FFFFFFFFF2E
S1134FB0FFFFFFFFFFFE3E5FFBEFFFFBEFBFFFFFC7
S1134FC0FEFBFFFFFFFE6C0000000000000000007D
S1134FD000000000000000000000000000000000CD
S1134FE000000000000000000000001701010000A4
S1134FF027100901C201FFFFFF7FFFFFFFFFFFFF33
S1135000FFFFFFFFFFFE7E67FFFFFFFFFFFFFFFFC6
S1135010FFFFFEFFFFFE0100000000000000000093
S1135020000000000000000000000000000000007C
S11350300000000000000000000000170101000053
S11350402710090143C97DDDDF77FFB3FFFFFFFFB1
S1135050FFFFFFFFFFFE7E67FFFFFFFFFFFFFFFF76
S1135060FFFFEEEEEEFA4F0000000000000000002B
S1135070000000000000000000000000000000002C
S11350800000000000000000000000170101000003
S11350902710090040D9FFFFDFFFFFFFFFFFFFFFDD
S11350A0FFFFFFFFFFFE7E67FFFFFFFFFFFFFFFF26
S11350B0FFFFFFFEFFFEEF00000000000000000005
S11350C000000000000000000000000000000000DC
S11350D000000000000000000000001701010000B3
S11350E0271009006201FDFFFFFFFFFFFFFFFFFF25
S11350F0FFFFFFFFFFFE7E79FFFFFFFFFFFFFFFFC4
S1135100FFFFFFFFFFFAFD000000000000000000A9
S1135110000000000000000000000000000000008B
S11351200000000000000000000000170101000062
S11351302710090163C1FFDFFFFFFFFFFFFFFFFF30
S1135140FFFFFFFFFFFE7E79FFFFFFFFFFFFFFFF73
S1135150FFFFFFFFFEFE4F00000000000000000004
S1135160000000000000000000000000000000003B
S11351700000000000000000000000170101000012
S113518027100901E3997FFFFFFFFFFFFFFFFFFFE8
S1135190FFFFFFFFFFFE7E67FFFFFFFFFFFFFFFF35
S11351A0FFFFFFEFFFFEEF00000000000000000023
S11351B000000000000000000000000000000000EB
S11351C000000000000000000000001701010000C2
S11351D027100900E2F9FFFFFFFFFFFFFFFFFFFFBA
S11351E0FFFFFFFFFFFF7D7FFFFFFFFFFFFFFFFFCD
S11351F0FFFFFFFFBFFEFD000000000000000000F5
S1135200000000000000000000000000000000009A
S11352100000000000000000000000170101000071
S113522027100900A3C1FF7FFFFFFFFFFFFFFFFF60
S1135230FFFFFFFFFFFE367FFFFFFFFFEFFFFFFFD4
S1135240FFFFFFFFFFFE4F00000000000000000012
S1135250000000000000000000000000000000004A
S11352600000000000000000000000170101000021
S113527027100901A399FFFFFFFFFFEFFFFFFFFFC7
S1135280FFFFFFFFFFFE7C3FFFEFFFFBEFBFFFFFD2
S1135290FEFBFFFFFFFE6C000000000000000000AA
S11352A000000000000000000000000000000000FA
S11352B000000000000000000000001701010000D1
S11352C02710090122F9FFFFFFFFFFFFFFFFFFFF88
S11352D0FFFFFFFFFFFF777FFFFFFFFFEFFFFFFFF2
S11352E0FFFBFFFFFFFE01000000000000000000C4
S11352F000000000000000000000000000000000AA
S11353000000000000000000000000170101000080
S11353102710090023C93CCCCB33D555FFFFFFFF31
S1135320FFFFFFFDFFFE7E67FFFFFFFFFFFFFFFFA5
S1135330FFFF4CCCCCF24F00000000000000000046
S11353400000000000000000000000000000000059
S11353500000000000000000000000170101000030
S11353602710090033DDFFFFF7FFFFFFFFFFFFFFFB
S1135370FFFFFFFFFFFE3C7FFFFFFFFFFFFFFFFF7D
S1135380FFFFFFFFFBFE6C000000000000000000B8
S11353900000000000000000000000000000000009
S11353A000000000000000000000001701010000E0
S11353B02710090132F9FFFFFFDFFFFFFFFFFFFFA7
S11353C0FFFFFFFFFFFE6C7FFFFFFFFBEFBFFFFF51
S11353D0FEFBFFFFFFFE01000000000000000000D4
S11353E000000000000000000000000000000000B9
S11353F00000000000000000000000170101000090
S113540027100901B3C9FFFFFFF7FFFFFFFFFFFFED
S1135410FFFFFFFFFFFE7E1FFFFFFFFFFFFFFFFFFA
S1135420FFFFEFFFFFFE4F00000000000000000040
S11354300000000000000000000000000000000068
S1135440000000000000000000000017010100003F
S113545027100900B3DDFFFF7FFFFFFFFFFFFFFF02
S1135460FFFFFFFFFFFE367FFFFFFFFFFFFFFFFF92
S1135470FFFF7FFFFFFE6C00000000000000000043
S11354800000000000000000000000000000000018
S113549000000000000000000000001701010000EF
S11354A027100900F2F9E2D7FFFFFFFFFFFFFFFF1C
S11354C0FFF72FFFFFBE01000000000000000000F6
S11354D000000000000000000000000000000000C8
S11354E0000000000000000000000017010100009F
S11354F027100901F3C9EFFAFFFF7FF5FFFFFFFF54
S1135510FFFFFFFFFFFE4F0000000000000000003F
S11355200000000000000000000000000000000077
S1135530000000000000000000000017010100004E
S11355402710090173DDFFFFFFFE7F3FFFFFFFFF11
S1135560FFFFFD2FFF9E6C00000000000000000004
S11355700000000000000000000000000000000027
S113558000000000000000000000001701010000FE
S11355902710090072F9FFFFFFFE73FFFFFFFFFFF3
S11355A0FFFFFFFFFFE597FFFFFFFFFFFFFFFFFF89
S11355B0FFFFFFFD2F9E010000000000000000001F
S11355C000000000000000000000000000000000D7
S11355D000000000000000000000001701010000AE
S11355E02710090053C967FFADFFFFFFFFFFFFFF4F
S1135600FFFFFFFFFFFE4F0000000000000000004E
S11356100000000000000000000000000000000086
S1135620000000000000000000000017010100005D
S11356302710090150D9E7FFFEB5FFFFFFFFFFFF69
S1135650FFFFFFFFFABEEF000000000000000000A3
S11356600000000000000000000000000000000036
S1135670000000000000000000000017010100000D
S113568027100901D200AFFFFFFF5FFFFFFFFFFFFD
S11356A0FFFFFFFFFFD4FD0000000000000000002A
S11356B000000000000000000000000000000000E6
S11356C000000000000000000000001701010000BD
S11356D027100900D3C9FFFFFFFEFFFFFFFFFFFFF5
S11356E0FFFFFFFBFFFFFFFFFFFFFFFFFFFFFFFFCA
S11356F0FFFFFFFFFFFE4F0000000000000000005E
S11357000000000000000000000000000000000095
S1135710000000000000000000000017010100006C
S11357202710090090D9FFFFFFFF557FFFFFFFFF00
S1135730FFFFFFFFFFFEEEFFFFFFFFFFFFFFFFFF87
S1135740FFFFFFFFFFFEEF0000000000000000006D
S11357500000000000000000000000000000000045
S1135760000000000000000000000017010100001C
S1135770271009019201FFFFFFFF757FFFFFFFFF65
S1135780FFFFFFFFFFFE6C7FFFFFFFFFEFBFFFFF89
S1135790FEFBFFFFFFFEFD00000000000000000014
S11357A000000000000000000000000000000000F5
S11357B000000000000000000000001701010000CC
S11357C02710090113C9FFFFFFFF7FFFFFFFFFFF42
S11357D0FFFFFFFFFFFE367FFFFFFFFFFFFFFFFF1F
S11357E0FFFFBFFFFFFE4F000000000000000000AD
S11357F000000000000000000000000000000000A5
S1135800000000000000000000000017010100007B
S11358102710090010D9FFFFFFFFFFFFFFFFFFFF65
S1135820FFFFFFFFFFFF5F7FFFFFFFFFFFFFFFFFA4
S1135830FFFFFFFFFFBEEF000000000000000000BC
S11358400000000000000000000000000000000054
S1135850000000000000000000000017010100002B
S1135860271009001A01FFFFFFFFFFFFFFFFFFFFE3
S1135880FFFFFFFFFFFEFD0000000000000000001E
S11358900000000000000000000000000000000004
S11358A000000000000000000000001701010000DB
S11358B0271009011BC9FFFFFDFFFFFFFFFFFFFFCB
S11358C0FFFFFFFFFFFEEEFFFFFFFFFFFFFFFFFFF6
S11358D0FFFFFFFFFFFE4F0000000000000000007C
S11358E000000000000000000000000000000000B4
S11358F0000000000000000000000017010100008B
S11359002710090198D9DFFFFFFFFFFFFFFFFFFF0B
S1135910FFFFFFFFFFFEEEFFFFFFFFFFFFFFFFFFA5
S1135920FFFFFFFFFFFE6C0000000000000000000E
S11359300000000000000000000000000000000063
S1135940000000000000000000000017010100003A
S1135950271009009A01FFFFFFFF7D7FFFFFFFFF74
S1135960FFFFFFFFFFFEBEFFFFFFFFFFFFFFFFFF85
S1135970FFFFFFFFFFFE0100000000000000000029
S11359800000000000000000000000000000000013
S113599000000000000000000000001701010000EA
S11359A027100900DBC9FFFFFFFFFFFFFFFFFFFF19
S11359B0FFFFFFFFFFFF7D7FFFFFFFFFFFFFFFFFF5
S11359C0FFFFFFFBFFFE4F0000000000000000008F
S11359D000000000000000000000000000000000C3
S11359E0000000000000000000000017010100009A
S11359F027100901D8D9FFFFFFFFFFFFFFFFFFFFBB
S1135A00FFFFFFFFFFFF7D7FFFFFFFFFFFFFFFFFA4
S1135A10FFFFFFBFFFFE6C0000000000000000005D
S1135A200000000000000000000000000000000072
S1135A300000000000000000000000170101000049
S1135A40271009015A01FFFFFFFFFFFFFFFFFFFFC0
S1135A50FFFFFFFFFFFF5F7FFFFFFFFFFFFFFFFF72
S1135A60FFEFFFFFFFFE0100000000000000000048
S1135A700000000000000000000000000000000022
S1135A8000000000000000000000001701010000F9
S1135A90271009005BC9FFFFFFFFFFFFFFFFFFFFA8
S1135AB0FFFFFFFFFFFE4F0000000000000000009A
S1135AC000000000000000000000000000000000D2
S1135AD000000000000000000000001701010000A9
S1135AE0271009007BDDFFF7FFFFFFFFFFFFFFFF2C
S1135AF0FFFFFFFFFFFEBEFFFFFFFFFFFFFFFFFFF4
S1135B00FFFFFFFFFFFEEF000000000000000000A9
S1135B100000000000000000000000000000000081
S1135B200000000000000000000000170101000058
S1135B30271009017AF9FFFFFFFFFFFFFFFFFFFFB7
S1135B50FFFFFFFFFFFEFD0000000000000000004B
S1135B600000000000000000000000000000000031
S1135B700000000000000000000000170101000008
S1135B8027100901FBC9FFFFFFFFFFFFFFFFFFFF16
S1135BA0FFFFFFFFFFFE4F000000000000000000A9
S1135BB000000000000000000000000000000000E1
S1135BC000000000000000000000001701010000B8
S1135BD027100900FBDDFFFFFFFFFFFFFFFFFFFFB3
S1135BF0FFFFFFFFFFFEEF000000000000000000B9
S1135C000000000000000000000000000000000090
S1135C100000000000000000000000170101000067
S1135C2027100900BAF9FFFFFFFFFFFFFFFFFFFF87
S1135C40FFFFFFFFFFFEFD0000000000000000005A
S1135C500000000000000000000000000000000040
S1135C600000000000000000000000170101000017
S1135C7027100901BBC9FFFFFFFFFFFFFFFFFFFF65
S1135C90FFFFFFFFFFFE4F000000000000000000B8
S1135CA000000000000000000000000000000000F0
S1135CB000000000000000000000001701010000C7
S1135CC0271009013BDDFFFFFFFFFFFFFFFFFFFF81
S1135CE0FFFFFFFFFFFEEF000000000000000000C8
S1135CF000000000000000000000000000000000A0
S1135D000000000000000000000000170101000076
S1135D10271009003AFDFFFFFFFFFFFFFFFFFFFF12
S1135D30FFFFFFFFFFFFFD00000000000000000068
S1135D40000000000000000000000000000000004F
S1135D500000000000000000000000170101000026
S1135D60271009002BC9F7FFFFFFFFFFFFFFFFFF0D
S1135D70FFFFFFFFFFFE1E7FFFFFFFFFFFFFFFFF91
S1135D80FFFFFFFFFFBE4F00000000000000000007
S1135D9000000000000000000000000000000000FF
S1135DA000000000000000000000001701010000D6
S1135DB02710090128D9DFFFFFFFFFFFFFFFFFFFC7
S1135DC0FFFFFFFFFFFE7E3DFFFFFFFFFFFFFFFF23
S1135DD0FFFFFFFFFFEE6C0000000000000000006A
S1135DE000000000000000000000000000000000AF
S1135DF00000000000000000000000170101000086
S1135E0027100901AA01FDFDFFFFFFFFFFFFFFFFB0
S1135E10FFFFFFFFFFFE7E67FFFFFFFFFFFFFFFFA8
S1135E20FFFFFFEFFFFF8100000000000000000003
S1135E30000000000000000000000000000000005E
S1135E400000000000000000000000170101000035
S1135E5027100900ABC9FFFFFFFFFFFFFFFFFFFF94
S1135E60FFFFFFFDFFFE3E77FFFFFFFFFFFFFFFF8A
S1135E70FFFFF7FFFFFE4F000000000000000000DE
S1135E80000000000000000000000000000000000E
S1135E9000000000000000000000001701010000E5
S1135EA027100900E8D9FFFFFFFFFFFFFFFFFFFFF7
S1135EB0FFF7FFFFFFFEFEBFFFFFFFFFFFFFFFFF38
S1135EC0FFFFFFFFFFFE6C00000000000000000069
S1135ED000000000000000000000000000000000BE
S1135EE00000000000000000000000170101000095
S1135EF027100901EA01FFFFF7DFFFFFFFFFFFFFA4
S1135F00FFFFFFFFFFFE7E6DFFFFFFFFFFFFFFFFB1
S1135F10FFFFFF7FFFFE0100000000000000000003
S1135F20000000000000000000000000000000006D
S1135F300000000000000000000000170101000044
S1135F40271009016BC97DDF7777FFFFFFFFFFFF94
S1135F50FFFFFFFFFFFE7E67FFFFFFFFFFFFFFFF67
S1135F60FFFFFFEEEEFA0F0000000000000000004B
S1135F70000000000000000000000000000000001D
S1135F8000000000000000000000001701010000F4
S1135F902710090068D9FFDFDFFFFFFFFFFFFFFFC6
S1135FA0FFFFFFFFFFFE7E6DFFFFFFFFFFFFFFFF11
S1135FB0FFFFFFFFBFFE7F000000000000000000A5
S1135FC000000000000000000000000000000000CD
S1135FD000000000000000000000001701010000A4
S1135FE0271009004A01FFFFFFF7FFFFFFFFFFFF34
S1135FF0FFFFFFFFFFFE7E79FFFFFFFFFFFFFFFFB5
S1136000FFFFFFFBEFFE7C0000000000000000002B
S1136010000000000000000000000000000000007C
S11360200000000000000000000000170101000053
S1136030271009014BC17FFFFFFFFFFFFFFFFFFF99
S1136040FFFFFFFFFFFE7E79FFFFFFFFFFFFFFFF64
S1136050FFFFFFBEFFFE0F00000000000000000075
S1136060000000000000000000000000000000002C
S11360700000000000000000000000170101000003
S113608027100901CBF9FFFFFFFFDFFFFFFFFFFF31
S1136090FFFFFFFFFFFE1E7FFFFFFFFFFFFFFFFF6E
S11360A0FFFFFBFFFFFE7F00000000000000000078
