S113000000200020C50400002D0E0000490E000051
S11300102D0E00002D0E00002D0E0000000000002B
S11300200000000000000000000000002D0E000091
S11300302D0E0000000000002D0E00002D0E00000B
S11300402D0E00002D0E00002D0E00002D0E0000C0
S11300502D0E00002D0E00002D0E00002D0E0000B0
S11300602D0E00002D0E00002D0E00002D0E0000A0
S11300702D0E00002D0E00002D0E00002D0E000090
S11300802D0E00002D0E00002D0E00002D0E000080
S11300902D0E00002D0E00002D0E00002D0E000070
S11300A02D0E00002D0E00002D0E00002D0E000060
S11300B02D0E00002D0E0000F10E00001D0F00009B
S11300C04D0F00005D0E00002D0E00009D18000075
S11300D02D0E00002D0E00002D0E00002D0E000030
S11300E02D0E00002D0E00002D0E00002D0E000020
S11300F02D0E00002D0E0000000000000000000086
S113010000000000000000000000000000000000EB
S113011000000000000000000000000000000000DB
S113012000000000000000000000000000000000CB
S113013000000000000000000000000000000000BB
S11304000001020304050607FFFFFFFFFEF9FFFFDB
S113041010B5054C237833B9044B13B10448AFF33A
S113042000800123237010BDF8E0FF1F00000000CE
S11304307827000008B5034B1BB103490348AFF309
S1130440008008BD00000000FCE0FF1F78270000CA
S1130450154B002B08BF134B9D46A3F5803A002192
S11304608B460F461348144A121A01F089FF0F4BAA
S1130470002B00D098470E4B002B00D0984700204B
S1130480002104000D000D48002802D00C48AFF3F1
S1130490008001F03BFF2000290001F053FB01F034
S11304A021FF00BF00000800002000200000000021
S11304B08F0D0000F8E0FF1FC0E2FF1F00000000E6
S11304C00000000000F064FC0A490B4A0B4B9A42FE
S11304D0BEBF51F8040B42F8040BF8E70849094A77
S11304E000209142BCBF41F8040BFAE700F04FFC36
S11304F0FFF7AEFF8427000060E0FF1FF4E0FF1F5A
S1130500F8E0FF1FC0E2FF1F53B94AB9002908BF32
S113051000281CBF4FF0FF314FF0FF3000F074B9DA
S1130520ADF1080C6DE904CE00F006F8DDF804E046
S1130530DDE9022304B070472DE9F047089E044624
S11305408846002B40F085808A42154648D9B2FA85
S113055082F24AB1C2F1200701FA02F320FA07F746
S1130560954047EA030894404FEA154E230CB8FB24
S1130570FEF71FFA85FC0EFB178843EA084307FBC6
S11305800CF1994209D9EB1807F1FF3080F0E380B0
S1130590994240F2E080023F2B445B1AA4B2B3FBC1
S11305A0FEF00EFB103344EA034400FB0CFCA445AC
S11305B009D92C1900F1FF3380F0CB80A44540F217
S11305C0C88002382C4440EA0740A4EB0C040027FE
S11305D01EB1D4400023C6E900433946BDE8F08784
S11305E0002A53D0B2FA82F2002A40F0B680491BA6
S11305F04FEA154E1FFA85F80127B1FBFEFC230CC8
S11306000EFB1C1143EA014308FB0CF1994207D984
S1130610EB180CF1FF3002D2994200F2EC808446D0
S1130620591AA3B2B1FBFEF00EFB101443EA0444C2
S113063008FB00F8A04507D92C1900F1FF3302D2BA
S1130640A04500F2DC801846A4EB080440EA0C4004
S1130650BEE78B4208D9002E78D00027C6E90001F6
S113066038463946BDE8F087B3FA83F77FB98B4241
S113067002D3824200F2BD80841A61EB030301209D
S11306809846002EA9D0C6E90048A6E7FFDEC7F1C8
S11306902005BB4022FA05FC4CEA030C01FA07F4DE
S11306A020FA05F821FA05F34FEA1C4E48EA04043F
S11306B0B3FBFEF9210C0EFB19331FFA8CF841EA47
S11306C0034309FB08FA9A4502FA07F200FA07F114
S11306D00BD91CEB030309F1FF3080F088809A45A5
S11306E040F28580A9F102096344A3EB0A03A4B292
S11306F0B3FBFEF00EFB103344EA034400FB08F89E
S1130700A04508D91CEB040400F1FF336BD2A045CB
S113071069D90238644440EA0940A4EB0804A0FB08
S113072002894C45C6464B4654D351D0002E69D05D
S1130730B1EB0E0264EB030404FA05F522FA07F3A5
S1130740FC401D43C6E90054002746E737463046BF
S113075043E7184637E707461FE7C2F1200320FAAC
S113076003F7954001FA02F021FA03F34FEA154E1C
S11307703843010CB3FBFEF71FFA85F80EFB173361
S113078041EA034107FB08F38B4204FA02F407D958
S1130790691807F1FF3C28D28B4226D9023F29442D
S11307A0CB1A81B2B3FBFEF00EFB103341EA0341D6
S11307B000FB08F38B4207D9691800F1FF3C10D203
S11307C08B420ED902382944C91A40EA074714E774
S11307D04145ABD2B8EB020E69EB0C02013813466B
S11307E0A4E76046F0E7184695E76746D8E78146F0
S11307F07BE7384645E7ACF1020C2B4410E702389E
S11308002C4421E73746E8E6704700BF436918796E
S1130810C0F34010704738B5044663691D79EDB2E2
S11308202A0703D0236820461B6A9847AB06F4D5F1
S11308306369D87938BD426913795B06FCD5704782
S11308404369DB794FF6FF7343827047704743690E
S1130850DB79704710B51821044601F031FD2046BC
S113086010BD03681B69184708B543691A79120655
S113087001D400BFF9E70A29D97102D10D21FFF78C
S1130880F0FF08BD38B504464D1E15F8011F20467B
S113089011B1FFF7E6FFF8E738BD10B5436900244E
S11308A0D878DC701C78520004F0E004B2FBF1F15B
S11308B0C1F3443222431A70C1F347125A709A7A30
S11308C001F01F0102F0E002C0B211439972D87026
S11308D010BD000008B5024B1A68FFF7DEFF08BD23
S11308E068E0FF1F10B5044C4FF4E1312046FFF7D8
S11308F0F1FF0123637210BD14E1FF1F10B5184C02
S113090018484FF47A724FF48573C4E90123002325
S11309100322A381A2732374134A626141F2340156
S11309204FF6FF736382435843F4806343500C23B0
S1130930D3700E4B802283F80F23204683F81023B4
S11309404FF4E13183F81123094B2360FFF7C2FF11
S11309502046084A0849BDE8104001F0ACBC00BF7D
S113096014E1FF1F0070044000A0064000E100E015
S11309705024000060E0FF1F4D080000064B1B7B65
S1130980DB0707D5054B186910F4807018BF4FF4C6
S113099000407047024870470040064000D00340C2
S11309A00024F400F8B5FFF7E9FF4B4A137813F07D
S11309B0040F4A4B56D11178C1F3C20120FA01F158
S11309C01960517811F0300F0CD0117BC90709D48C
S11309D0117801F0380130293AD11A681421B2FB98
S11309E0F1F21A603C4A3E4ED178D3F800C0D37875
S11309F03C4C11F0800F517901F01F0101F11801F5
S1130A004FF00A05B0FBF5F000FB01F0117901F09D
S1130A101F0101F10101B0FBF1F0334905FB00F5C1
S1130A204FF0000030600860927902F00C0214BFAD
S1130A304FF437774FF42077DBB20C2A1DD8DFE868
S1130A4002F0141C1C1C361C1C1C441C1C1C4800DE
S1130A50127802F03802382A1A6801D10C21BEE754
S1130A605209BEE74FF40042BBE7C3F3411303FB53
S1130A700CCC07FB0CF727600F60174B1B481B7946
S1130A8041F244015B0648BF3560226843581B0F9E
S1130A900133B2FBF3F3164A136022684358C3F3DD
S1130AA003630133B2FBF3F3124A1360F8BD0A4B3C
S1130AB05A78D20743BF1B7AC3F342020E4B4FF45A
S1130AC0004348BFD3402360D7E7FFF757FF2060B8
S1130AD0D3E725603560D0E7004006402CE1FF1FD6
S1130AE038E1FF1F34E1FF1F30E1FF1F00700440B5
S1130AF068E0FF1F64E0FF1F00093D00F8B55B4A92
S1130B005B4990F9085041F244030446D150594BD3
S1130B10C27B1A73827B1A72574800225A7390F967
S1130B2000305F1C1EBF03EBC303544AD2566E1C35
S1130B3000F088804F4B514F0726511C08291ED8BE
S1130B40DFE801F0070728377B4E715D6E000A4627
S1130B50F3E7E17B1973A17A5970617A41F00401DA
S1130B601970D97894F80BC001F01F0141EA0C0107
S1130B70D97000BF997901F01C011029F9D107EB54
S1130B80C201013E027049575AD13D4B0D221A60F1
S1130B901868F8BD617A197000BF997911F01C0FBB
S1130BA0FAD1A17A4907EAD500BF99798907FBD51B
S1130BB0E5E7E17B1973A17A5970617A41F0440148
S1130BC01970D97894F80BC001F01F0141EA0C01A7
S1130BD0D97000BF997901F01C011429F9D1CEE72D
S1130BE0A17A5970617A41F080011970617B597161
S1130BF000BF997901F01C010829F9D1D1E7A17A44
S1130C005970217B1971617B41F040015971617AFE
S1130C1041F08001197099798906C2D400BFFAE7BE
S1130C20617A1970BDE74FF0010CA17A41F002011D
S1130C305970BCF1000FA2D0B3E74FF0000CF4E7F9
S1130C40AA4284D1094A216841F24403D15041F2B5
S1130C5004016068535823F4803303435350FFF76F
S1130C60A1FE044B227C5A73002092E700700440DA
S1130C7000000555004006403CE1FF1FB024000081
S1130C80ACE2FF1F08B5144B1448FF221A70FFF79B
S1130C9035FF134B41F234015A5822F480225A5042
S1130CA04FF400221A6041F204020E49995041F2B5
S1130CB00C0100225A5041F210015A5041F218011D
S1130CC05A5041F2480202219950074B40225A607F
S1130CD0BDE80840FFF766BE3CE1FF1F7424000036
S1130CE0007004405000050000E100E041F23C02C5
S1130CF012498B5843F000538B50114B5A69D20759
S1130D0017D501221A6100221A614FF410621A6188
S1130D100C4A00BF013AFCD1094B0B491960102160
S1130D205961DA6078229A61FF22C3F80028C3F877
S1130D300428034B4FF410621A617047007004409A
S1130D4000D00340A0860100C0F5195D08B50C4928
S1130D5041F238028B5843F400738B50BFF35F8F1A
S1130D60084B4FF44022C3F8842003F5E033822279
S1130D701A70FFF7BBFFBDE80840FFF783BF00BF51
S1130D80007004400090044000BEFDE770477047C7
S1130D90094B0A4A9A605A6942F010025A61084B98
S1130DA04CF22052DA814DF62812DA81BFF34F8FCC
S1130DB010221A8000F092BE00ED00E00000000056
S1130DC00020054008B5064A937843F00803937061
S1130DD0FFF7BCFFFFF786FDFFF7D8FF08BD00BF94
S1130DE000D0074000207047704770474369836113
S1130DF070474FF6FF7343827047002070474FF0EF
S1130E00FF30704783691970D0E90523C1690A442A
S1130E1093423CBF01338361836900221A70704797
S1130E200520704705207047052070476846054B2C
S1130E3020F007015B688D4682B0C3F30803019379
S1130E4000BEFDE700ED00E01EF0040F0CBFEFF361
S1130E500880EFF30980714600F006BA074B0122BF
S1130E60C3F83C21064A936823F001039360054BC1
S1130E700022DA70044BDB68184700BF007003409F
S1130E8030710340C2E1FF1F6CE0FF1F08B5024B45
S1130E901B689847002008BD80E0FF1F704710B50D
S1130EA02821044601F00CFA204610BD10B5282173
S1130EB0044601F005FA204610BD10B52021044671
S1130EC001F0FEF9204610BD034B05221A601A6892
S1130ED0002AFCD11B687047ACE2FF1F034B0522BC
S1130EE01A601A68002AFCD118687047ACE2FF1F28
S1130EF0074B0122C3F80C21D3F8082122F0010288
S1130F00C3F80821034B00221A70034B1B681847CF
S1130F1000700340C2E1FF1F6CE0FF1F074B01227A
S1130F20C3F81C21064A936823F001039360054B20
S1130F3000225A70044B5B68184700BF00700340DE
S1130F4010710340C2E1FF1F6CE0FF1F074B012239
S1130F50C3F82C21064A936823F001039360054BE0
S1130F6000229A70044B9B68184700BF007003402E
S1130F7020710340C2E1FF1F6CE0FF1F2DE9F04127
S1130F80069E9DF81C70DFF8A08005460446B1FB60
S1130F90F2FC02FB1C1E204618F80EE000F801EBE0
S1130FA08A420CD9012B1CD063B1022B0ED1711EC5
S1130FB03022441B8C421FDA00F8012BF9E761460A
S1130FC00446E4E717B12D220270A01C421E2946F4
S1130FD08A421CD90C78177801F8017B02F8014980
S1130FE0F6E717B12D220270A01C2022411BB1424A
S1130FF0ECDA00F8012BF9E717B12D2200F8012BE8
S1131000421BB242BCBF302200F8012BDEE7032BA7
S113101006D12023421BB24202DA00F8013BF9E771
S113102000230370BDE8F0814225000010B58CB0A8
S113103000230193C37A0093837A044603A8FFF73D
S11310409DFF03A92046FFF71DFC0CB010BD000056
S113105000234371C3608371D0E90721C371037214
S1131060437203824382054B4361054B03EB4113F7
S11310705A60DA605A61DA61704700BFE50D00001A
S113108000E0FF1F05230372026A836903EB8203F6
S113109093F8C02042F0020283F8C0207047026A2D
S11310A0836903EB820393F8C02002F0FD0283F806
S11310B0C02000230372437170470000036A8179E2
S11310C01A4A70B55B01C1B118331A441378DB09AD
S11310D000D000BE038A818C9BB299420FD301D900
S11310E000214172C5687DB1C66900218B4208D0D8
S11310F06C5CE4B274540131F8E71033E5E70B4655
S1131100F0E7C1681944C160418A194489B2418237
S1131110018AC91A89B2DBB201825380437913B1BF
S1131120C823137070BD8823FBE700BF00E0FF1FD6
S1131130036AC1795A01064B01B108321344828C07
S11311405A80427912B1C8221A7070478822FBE78C
S113115000E0FF1F437983F0010370B54371057A02
S1131160EDB2022D044605D0042D4FF0000344D007
S113117003722AE0036AC179264A5B0101B9083384
S113118013445D8815F0FF0516D0238AE0689D425C
S1131190C4BF258AEDB230B12A46E16901F0E2F814
S11311A0E3682B44E360628AA9B20A4492B2628281
S11311B0238A5B1A9BB22382A38C9D4206DB238A7B
S11311C09BB21BB12046FFF7B3FF70BD25797DB9F3
S11311D0012303266371E560658220462582267219
S11311E0FFF76CFF6571E560658225822672E9E789
S11311F06369022098472072E7E74371C360438222
S113120003820372FFF794FF63692846BDE87040C8
S1131210184700BF00E0FF1F38B50E4C0E4D2046A6
S1131220FFF716FFA369092283F8C420236A45F84F
S113123023400A4B63610A4C2046FFF709FFA36968
S1131240052283F8C820236A45F82340054B6361CF
S113125038BD00BF84E2FF1FC8E1FF1F311F00003B
S11312605CE2FF1F351F000000BEFDE710B5002142
S113127060221148114C01F083F8114B032283F8CA
S11312809420012283F89420226A0E4B204643F8CE
S11312902240FFF7DDFEA3690D2283F8C0200A4B2C
S11312A06361204600236371E360638223822372B7
S11312B0FFF73EFF10BD00BF00E0FF1F94E1FF1FDA
S11312C000200740C8E1FF1F8D0E0000014B1B6882
S11312D0184700BF84E0FF1F08B5044B04481B688F
S11312E0984710B10348FFF7CDFE08BD88E0FF1F03
S11312F03DE1FF1F94E1FF1F08B50C4BDA889042D3
S113130088BFD888DA880A4B88BFC0B290422CBF05
S1131310002201225A7200225A8201221882D960C4
S11313201A721846FFF7CAFE08BD00BF3DE1FF1F51
S113133094E1FF1F134A08B51378812B1BD0822B2D
S113134004D0802B1AD104200F4911E09388DBB21A
S11313505A0713D403F0070330330C4A0C4912F82C
S1131360233013F0020F0B4B4FF0040008BF194653
S1131370FFF7C2FF08BD02200749F9E70748FFF756
S113138081FEF7E73DE1FF1F48E1FF1F0020074012
S11313903C250000382500004025000094E1FF1F93
S11313A02DE9F04139490A784B88802A8EB005D05E
S11313B03748FFF767FE0EB0BDE8F0814A88120A8D
S11313C0022A06D0032A0ED0012AF1D1314C122070
S11313D005E04B8813F0FF0FEAD12F4C2020214663
S11313E0FFF78AFFE7E7DBB2EE2B02D12B4C207824
S11313F0F5E7052BDCD813B9294B1C68F7E7032B59
S1131400234F3DD1274A41F254010025545841F25B
S1131410580101AE505841F25C014440515802F564
S113142083524C4012688DF8263054404FF6FF72B8
S1131430ADF82A201C4A06921C4A8DF828504FF415
S11314407A71CDE907124FF010081949CDF83480AC
S113145006A8CDE90B668DF80450ADF82450FFF7CB
S113146011FA42462146FFF7E1FD036829461B694C
S11314709847FC6940223146204600F0A5FCB6E7B7
S11314800749FC6951F823104022F5E73DE1FF1FAD
S113149094E1FF1FB0260000C22600007A26000057
S11314A0E426000000700440082500000A0102063A
S11314B05325000008B50122427100224282C26015
S11314C0028203220272FFF7F9FD08BD134A08B530
S11314D013782BB1022B12D01148FFF7D3FD0DE086
S11314E05388012BF8D19288002AF5D10D490B7845
S11314F062F341030B700A48FFF7DCFF08BD9388D1
S11315005288002AE8D103F00703022BE4D8064AE4
S113151052F82300FFF7C3FDEDE700BF3DE1FF1FD5
S113152094E1FF1F48E1FF1FC8E1FF1F134A08B5FC
S113153013782BB1022B12D01148FFF7A3FD0DE055
S11315405388012BF8D19388002BF5D10D4A1378D9
S113155043F0020313700A48FFF7ACFF08BD9388F9
S11315605288002AE8D103F00703022BE4D8064A84
S113157052F82300FFF786FDEDE700BF3DE1FF1FB2
S113158094E1FF1F48E1FF1FC8E1FF1F0E4B1A78CB
S1131590012A10B505D1DA881AB90C4A1278042A3E
S11315A003D00B48FFF76EFD10BD5B88002BF8D10C
S11315B0084C6068FFF773FDA068FFF770FD0448EE
S11315C0FFF778FFF0E700BF3DE1FF1F4DE1FF1F8C
S11315D094E1FF1FC8E1FF1F10B50849084A094BF1
S11315E028B902240C7082F89800187010BD0324E6
S11315F00C7082F8980000221A70F7E74DE1FF1F83
S1131600002007404CE1FF1F08B5044B1878FFF792
S1131610E3FF034B034A5A61002008BDC1E1FF1FE9
S113162094E1FF1FE50D000008B5044B1878FFF79F
S1131630D3FF034B034A5A61002008BDC1E1FF1FD9
S113164094E1FF1FE50D000008B5124B1A783AB972
S11316505A8812F0FF0F07D05A88D2B2012A03D059
S11316600D48FFF70FFD08BD5B8813F0FF030AD197
S11316700A4B93F89800FFF7AFFFFFF7CDFD06483C
S1131680FFF718FFEFE7064A04211170054A1370AB
S1131690F3E700BF3DE1FF1F94E1FF1F0020074077
S11316A04DE1FF1F4CE1FF1F70B5444C444BE6690C
S11316B000221846D518B1180132092A03D0097836
S11316C0C9B22970F6E700222272012262713D4AF2
S11316D062611A78C2F3411102295CD0032969D0EE
S11316E0012967D05B780B2B64D8DFE803F031065F
S11316F0631A631D3463372B4D2EFFF7E7FE236A0D
S1131700E179314A5B0101B1083313441B78DB09E9
S113171002D12A48FFF70CFD2C4B012283F89420B8
S113172070BDFFF703FFEAE71AB12448FFF7AAFCEC
S1131730E5E7274B42881A702048264B6361FFF780
S1131740B9FEDCE7FFF780FFD9E7FFF71FFFD6E715
S1131750FFF7F0FDD3E7FFF723FED0E71E4D2B780C
S1131760BFF35B8FDB070AD4284600F095FD30B148
S11317701A4B1A781A4B28461A7000F099FD18492A
S11317800120FFF7B9FDBAE7812ACED1C08801282C
S1131790CBD11449F5E75A78302A0BD19A88042A18
S11317A002D111492820ECE79B88052B02D10F496F
S11317B0F820E6E7FFF790FDA1E700BF94E1FF1FE3
S11317C03DE1FF1FE50D000000E0FF1F0020074082
S11317D0C1E1FF1F29160000BCE1FF1F4CE1FF1F00
S11317E0C0E1FF1F34250000522600005A250000E6
S11317F0C0F3031238B5D1B2254B53F82140C0F3DE
S1131800800383F0010305074CBFA371E371002932
S11318103BD1C0F385001F4B13F83000C0F38304A1
S1131820092C08D00D2C03D0012C2AD0012418E057
S1131830FFF73AFFFAE7184D6B7983F001036B71F8
S1131840287AC4B2012C03D0032C15D02A72EDE7F8
S11318502B8A9BB263B96B7A53B92B791BB90423D6
S11318602B72204638BD6B69204698472872F8E7EA
S11318700948FFF723FCD9E72A726B692046984789
S1131880D4E70548FFF766FCEBE70024E9E700BF6F
S1131890C8E1FF1F00E0FF1F94E1FF1F2DE9F041A5
S11318A03E4C3F4EDFF8048194F8805094F8843025
S11318B01D4025D0EA0725D5002384F8843084F818
S11318C08C30364C1A4603F130010133102B04F8E6
S11318D02120F8D1324BFF25022684F8885084F861
S11318E080501E702F4B84F898201A70FFF7BEFCAE
S11318F09F2384F88430304684F88C50FFF7E6FC4C
S1131900BDE8F0812B0709D594F89070FFB23846F2
S1131910FFF76EFF10B9384600F0C2FAAF0614D5CF
S113192094F8843003F0DF0384F884303378052B93
S11319300BD1042301203370FFF7C8FCFFF76CFCC4
S1131940FFF794FC012384F89430280602D540461E
S1131950FFF7A5FB690708D594F8A400124B94F887
S1131960A0201B6842EA00209847EA060DD5337888
S1131970042B0AD194F8843043F0210384F8843092
S1131980002005233370FFF7A1FCAB0744BFFF23FE
S113199084F8883084F8805086E700BF0020074030
S11319A04DE1FF1F4CE1FF1F7CE0FF1F94E1FF1F8F
S11319B0144A136813F0010310B522D1124C01210B
S11319C01160124A2260124A6261124AA261124AEA
S11319D06371C4E90723A3712371E371E360237284
S11319E020466372238263824023A384FFF730FB83
S11319F00A4B236020460A4A0A49BDE8104000F019
S1131A005ABC10BD90E1FF1F94E1FF1FF8240000B1
S1131A10E50D00000020074050E1FF1F2C250000C9
S1131A2060E0FF1F9D0E000010B541F23C02124C15
S1131A30A35843F48023A350104B4FF025429A60DF
S1131A400F4A5A609A6842F000729A604FF0FF326F
S1131A501A609A6822F000729A6001441A46884219
S1131A6003D050F8044B1460F9E718689B68DB0155
S1131A7058BF80B210BD00BF007004400020034076
S1131A80B71DC104054B064910B54FF480401C68CE
S1131A90FFF7CAFF231A5842584110BDFCFF01004A
S1131AA0FCBF010084B008B50DF1080C8CE80F00F0
S1131AB00399B1F5804F0ED3049A8B18B3F5003F08
S1131AC009D805A800F046F9B0FA80F04009BDE84D
S1131AD0084004B070470020F9E7000010B50F4A31
S1131AE00F4B0021D1500F4941F238028B5843F477
S1131AF000738B50BFF35F8F0B4B40F203121A60DD
S1131B00FFF7C0FF48B1094B1B69DB0605D544F25A
S1131B100403BDE810401B68184710BD8002FE0195
S1131B2010000042007004401090044000F00F4088
S1131B30024B034ADA6000BFFDE700BF00ED00E09E
S1131B400400FA0570B5ADF6184D00F0BDFA314B3E
S1131B501A68002AFCD11B682F4B1A78042A19D161
S1131B6040F20C460DF60C0421460DF20240ADF88D
S1131B70026400F0E1F90028F6D12368CDF80804E6
S1131B80013BCDF80404042B23D8DFE803F0051B44
S1131B903524400030BFE0E74FF00113CDF80C349A
S1131BA0A5684FF48043CDF810344FF4E033CDF8FA
S1131BB0143414354FF47A720DF20441A8B200F0D3
S1131BC0D9F9D1E74FF4E0314FF4804000F0EAF85E
S1131BD070B90825EEE74FF47F720DF61C016846D4
S1131BE000F0C0FB94E80F00FFF75CFF0028F0D181
S1131BF00123CDF80434ECE7A2686168CDF8082429
S1131C000DF20C4002F1080500F0ACFBD2E7FFF73F
S1131C108FFF00BFACE2FF1F4DE1FF1F2DE9F04134
S1131C200D4D90464FF0FF326A6005222A60AC6881
S1131C3006460F46012E77F100030ADBC04748B978
S1131C40AB68E41A24F07F44361B67F100071C4696
S1131C50F0E70020BDE8F08110E000E010B5074B8C
S1131C600C4619684FF47A720023A0FB0101FEF7B9
S1131C704BFC2246BDE81040FFF7D0BF68E0FF1FD1
S1131C80044970220A7080220A700B781340FCD039
S1131C90704700000000024000B51E4B93B023F0D3
S1131CA0010301931C4B23F001030293029B019A4D
S1131CB09B1A0393194BDB78012B23D105AB0199B4
S1131CC0039A184600F04EFB0346EFF3108072B6F9
S1131CD0049043F001039847049880F31088104B54
S1131CE01A78D00610D41A7891060FD41A78D2072D
S1131CF00ED41B7813F0400F0CBF00200E2013B03D
S1131D005DF804FB1020FAE70920F8E70820F6E75D
S1131D100A20F4E7811C0000991C000000E0074041
S1131D20000002400A4B0622DA71C1F307429A719D
S1131D30C1F30722C9B25A71197102781A72427832
S1131D405A7282789A72C278DA72FFF7A5BF00BF1E
S1131D5000000240B1F1805FF8B50D460646174613
S1131D6028BF41F400050024A74205EB040106EB5B
S1131D70040005D0FFF7D6FF04340028F4D0F8BDE2
S1131D800020FCE7064B0922DA71C0F307429A717E
S1131D90C0F30722C0B25A711871FFF77DBF00BFAC
S1131DA000000240B0F1805F28BF40F4000038B565
S1131DB00C464518281B2CB1FFF7E4FF18B9A4F50D
S1131DC08064F7E7204638BD70B50446022304F862
S1131DD0023B032343700B7893B103780233DBB2E5
S1131DE003700B781B060CD411F8013B2546DEB2B8
S1131DF005F8026B1B0A6370037893422C46EAD3FE
S1131E0070BD0B7803F0E003C02B0BD10D4615F821
S1131E10023B49789B0101F03F0103F4F8630B4452
S1131E202946E3E70B7803F0F003E02B0DD10E789D
S1131E304D788B78AD0103F03F0303EB063305F4D3
S1131E407C652B449BB20331D0E70023CEE700002E
S1131E50024B187AB0FA80F0400970475CE2FF1F29
S1131E607047704710B52821044600F029FA20462F
S1131E7010BD10B52821044600F022FA204610BDFA
S1131E8010F0FF0207D1C0F30120032803D1034B54
S1131E90197801B11A700020704700BF58E2FF1F83
S1131EA0C0F30311CAB21E4B10B553F82240C0F35D
S1131EB0800383F0010300074CBFA371E371012A7F
S1131EC002D0022A06D010BD164B17481970FFF72E
S1131ED041F9F8E7154C637983F001036371207AC3
S1131EE0C0B2012805D003284FF0000312D023729A
S1131EF0E9E7238A9BB24BB9637A3BB923790BB9DF
S1131F000423F4E7636998472072DCE70748FFF786
S1131F10D5F8D8E723726369BDE81040184700BFBD
S1131F20C8E1FF1F58E2FF1F84E2FF1F5CE2FF1FAE
S1131F30002070470020704738B50C4C0388E160DE
S1131F400022628205462382204602232372FFF781
S1131F50EFF8237A03F0FF000BB130BFF9E7044B2D
S1131F6001221A70638A2B8038BD00BF84E2FF1FF0
S1131F7058E2FF1F38B505460C4610460849FFF7DE
S1131F806DFE50B107480123C460002444820582D9
S1131F900372FFF793F8204638BD1020FCE700BF1A
S1131FA0511E00005CE2FF1F70B541F234023D494E
S1131FB03D4C8B5843F480238B502320082100F0A0
S1131FC049F93A4B0822C3F88420002323741D46A0
S1131FD02375237784F8843084F8883084F88C302F
S1131FE084F8943084F8983003F130020133102BD4
S1131FF004F82250F8D12B4A84F800514FF0807134
S113200084F8085184F80C5151601168284841F053
S1132010004111604022010E84F80C2184F8B410B0
S1132020C0F3074184F8B010C0F3072184F89C1072
S1132030FF2184F88010112184F8841084F8002191
S113204084F808311B4B0126022284F894601A702C
S1132050194B84F89850002160221D7000F090F90B
S1132060032384F8943084F89460144C144B226A4B
S1132070204643F82240FEF7EBFFA369E5600D22FA
S113208083F8C0200F4B6571204665826361258209
S11320902572FFF74DF808212320BDE8704000F0B9
S11320A0D9B800BF007004400020074000E100E000
S11320B000E0FF1F4DE1FF1F4CE1FF1F94E1FF1FF4
S11320C0C8E1FF1F8D0E000038B5FFF76DFF124900
S11320D041F23C028B5843F400038B50BFF35F8FF3
S11320E00E4C0F4D0022012014F9013B59092031F7
S11320F003F01F03013200FA03F3042A45F82130E8
S1132100F2D1084B1860084B4FF0FF321A60074BAE
S1132110074A1A6038BD00BF00700440AC260000B6
S113212000E100E0007003408CE0FF1F7CE0FF1F33
S1132130811E00002DE9F047354B364CDFF80C9139
S1132140DFF80C81344FC4F8009000254FF0010AE9
S113215040266571C4E9073AA5712046E57184F803
S113216004A02572E5606572C4F814802582A76115
S11321706582A684FEF76CFF284B2360284A294910
S11321802046294C00F097F8284BE361022365713F
S11321902362A5712046E571C4F80090257284F885
S11321A004A06572E5602582C4E905876582A6847A
S11321B0FEF74EFF1E4B1A4A1E492360204600F0CC
S11321C07AF81D4A136813EA0A031FD11B4CC2F89C
S11321D000A01B4A6371C4E90723A3712371E3714F
S11321E0E360237220466372C4F800902382C4E93A
S11321F005876382A684FEF72BFF124B23602046DB
S1132200074A1149BDE8F04700F055B8BDE8F0872A
S113221018E2FF1F84E2FF1F0020074094260000FD
S113222060E0FF1F631E00005CE2FF1FD8E1FF1F98
S1132230A4260000611E000090E1FF1F94E1FF1F2F
S113224050E1FF1F2C2500009D0E0000F824000023
S1132250E50D000000F01F0301229A4043099B0092
S113226003F16043002803F56143A8BF00F1604017
S1132270C3F880214FEA01111A60BABF00F00F00C1
S1132280044B00F56140C9B2B4BF195480F800137F
S1132290704700BF14ED00E00368DB0706D4437801
S11322A003B1FFDE012343701846704700207047D6
S11322B00123036070470B460146184600F004B83A
S11322C000F000B800F046B810B5054C13462CB128
S11322D00A4601460220AFF3008010BD2046FCE709
S11322E00000000008B5074B044613B10021AFF30A
S11322F00080054B1868836A03B198472046FEF7AF
S113230043FD00BF000000004427000070B50D4DE0
S11323100D4C641BA4100026A64209D10B4D0C4C95
S113232000F012FA641BA4100026A64205D170BD69
S113233055F8043B98470136EEE755F8043B9847B7
S11323400136F2E7602700006027000060270000E4
S113235074270000024B0146186800F019B800BF4A
S113236090E0FF1F0A44914200F1FF3300D170470F
S113237010B511F8014B03F8014F9142F9D110BD8A
S113238002440346934200D1704703F8011BF9E766
S113239038B50546002945D051F8043C0C1F002BE4
S11323A0B8BFE41800F042F81F4A1368104633B966
S11323B0636014602846BDE8384000F03DB8A3428D
S11323C00CD921686218934204BF1A685B68636081
S11323D004BF521822600460ECE713465A680AB13D
S11323E0A242FAD919685818A0420BD120680144B6
S11323F0581882421960DDD1106852685A6001444D
S11324001960D7E702D90C232B60D3E72068211881
S11324108A4204BF11685268626004BF09182160CF
S11324205C60C7E738BD00BFB0E2FF1F014800F0A1
S113243009B800BFB8E2FF1F014800F004B800BFAC
S1132440B8E2FF1F70477047000000000000000062
S11324504D080000550800000D0800001708000092
S1132460690800003708000041080000D508000092
S11324704F0800000000031100000100072225009E
S1132480030000000000000000000F330000000003
S113249005222500000000000000000000000311D8
S11324A00000000001222560000000000000000080
S11324B000010202040404040000020204040404EF
S11324C000010003040404040202020202020202E4
S11324D000010202000506060404040404040606BE
S11324E00404040404050407060606060606060694
S11324F00000000000000000E90D00009F0E000035
S11325000000000000000000EB0D0000BB0E000006
S1132510FB0D0000FF0D0000050E0000ED0D000096
S1132520F30D000000000000000000009D0E0000FC
S1132530AD0E0000000000000000000001000000DB
S11325400000303132333435363738394142434470
S1132550454600555342444D2D00F800000000014B
S11325600500020086000000070000002A00440065
S11325706500760069006300650049006E00740020
S11325806500720066006100630065004700550045
S113259049004400730000004E0000007B00390035
S11325A033004600450042004400350031002D0050
S11325B036003000300030002D0034004500370074
S11325C045002D0041003200300045002D0041003F
S11325D0380030004600430037003800430037001D
S11325E04500410031007D00000068000000070044
S11325F000000C00490063006F006E0073000000CF
S11326004E0000002500530079007300740065003B
S11326106D0052006F006F00740025005C007300B1
S113262079007300740065006D00330032005C00B3
S11326307300680065006C006C00330032002E00EB
S113264064006C006C002C002D0032003300330059
S11326500000280000000001040001000000000048
S11326600000000157494E5553420000000000008D
S11326700000000000000000000012034D005300A1
S113268046005400310030003000300000000000EB
S113269000000000631E0000731E00000000000024
S11326A000000000611E0000651E00001E1F2021A6
S11326B012010002FFFFFF40D01627430001010270
S11326C003010902200001010480FA090400000248
S11326D0FFFFFF05070501024000010705820240D4
S11326E000010000FC260000002700003027000045
S11326F02927000013270000042700000403090C05
S113270070676F0042756C6B20496E746572666108
S113271063650044656661756C7420636F6E6669F9
S11327206775726174696F6E00555342444D2D0094
S11327304B696E6574697320426F6F746C6F61646A
S11327406572000094E0FF1FF8B500BFF8BC08BC38
S11327509E467047F8B500BFF8BC08BC9E4670475B
S113276035040000FD080000C50D0000B11900008B
S1132770352100001104000000000000D4DCFF7FBC
S1132780010000000000000000127A0000093D0072
S1132790C90E0000C90E0000C90E0000C90E0000D9
S11327A0290E0000250E0000210E0000DD0E0000A1
S11327B0FFFFFFFF94E0FF1F000000000000000087
S11327C00000000000000000000000000000000005
S11327D000000000000000000000000000000000F5
S11327E000000000000000000000000000000000E5
S11327F000000000000000000000000000000000D5
S113280000000000000000000000000000000000C4
S11328100000000000000000FFFFFFFFFFFFFFFFBC
S113400000200020C54400005D69000095670000A1
S11340107567000075670000756700000000000008
S113402000000000000000000000000075670000B0
S113403075670000000000007567000075670000E8
S113404075670000756700007567000075670000FC
S113405075670000756700007567000075670000EC
S113406075670000916900007567000075670000BE
S113407075670000756700007567000075670000CC
S113408075670000756700007567000075670000BC
S11340907567000075670000A5690000756700007A
S11340A075670000216A00007567000075670000ED
S11340B07567000075670000B96A0000D96A0000DE
S11340C0F96A0000196B000075670000756700004D
S11340D0756700007567000075670000756700006C
S11340E0756700007567000075670000756700005C
S11340F07567000075670000000000000000000004
S113410000000000000000000000000000000000AB
S1134110000000000000000000000000000000009B
S1134120000000000000000000000000000000008B
S1134130000000000000000000000000000000007B
S11344000001020304050607FFFFFFFFFEF9FFFF9B
S113441010B5054C237833B9044B13B10448AFF3FA
S113442000800123237010BDE4E0FF1F00000000A2
S1134430E0F3000008B5034B1BB103490348AFF395
S1134440008008BD00000000E8E0FF1FE0F300006A
S1134450154B002B08BF134B9D46A3F5803A002152
S11344608B460F461348144A121A06F063F90F4B91
S1134470002B00D098470E4B002B00D0984700200B
S1134480002104000D000D48002802D00C48AFF3B1
S1134490008006F023F92000290005F069FC06F0ED
S11344A009F900BF000008000020002000000000FF
S11344B043640000E4E0FF1F94E4FF1F00000000D9
S11344C00000000001F0C4FF0A490B4A0B4B9A425A
S11344D0BEBF51F8040B42F8040BF8E70849094A37
S11344E000209142BCBF41F8040BFAE701F0A9FF98
S11344F0FFF7AEFFECF3000000E0FF1FE4E0FF1F56
S1134500E4E0FF1F94E4FF1F81F0004102E000BFDC
S113451083F0004330B54FEA41044FEA430594EA7F
S1134520050F08BF90EA020F1FBF54EA000C55EABA
S1134530020C7FEA645C7FEA655C00F0E2804FEA8B
S11345405454D4EB5555B8BF6D420CDD2C4480EA6D
S1134550020281EA030382EA000083EA010180EA9D
S1134560020281EA0303362D88BF30BD11F0004FEB
S11345704FEA01314FF4801C4CEA113102D0404221
S113458061EB410113F0004F4FEA03334CEA13335C
S113459002D0524263EB430394EA050F00F0A78074
S11345A0A4F10104D5F1200E0DDB02FA0EFC22FA6F
S11345B005F2801841F1000103FA0EF2801843FA63
S11345C005F359410EE0A5F120050EF1200E012A54
S11345D003FA0EFC28BF4CF0020C43FA05F3C01892
S11345E051EBE37101F0004507D54FF0000EDCF10B
S11345F0000C7EEB00006EEB0101B1F5801F1BD3B4
S1134600B1F5001F0CD349085FEA30004FEA3C0CB7
S113461004F101044FEA445212F5800F80F09A80AD
S1134620BCF1004F08BF5FEA500C50F1000041EBB1
S1134630045141EA050130BD5FEA4C0C404141EBB5
S1134640010111F4801FA4F10104E9D191F0000FDC
S113465004BF01460020B1FA81F308BF2033A3F15F
S11346600B03B3F120020CDA0C3208DD02F1140C56
S1134670C2F10C0201FA0CF021FA02F10CE002F191
S11346801402D8BFC2F1200C01FA02F120FA0CFC8A
S1134690DCBF41EA0C019040E41AA2BF01EB0451D3
S11346A0294330BD6FEA04041F3C1CDA0C340EDCD1
S11346B004F11404C4F1200220FA04F001FA02F314
S11346C040EA030021FA04F345EA030130BDC4F1D2
S11346D00C04C4F1200220FA02F001FA04F340EAC7
S11346E00300294630BD21FA04F0294630BD94F078
S11346F0000F83F4801306BF81F480110134013D5F
S11347004EE77FEA645C18BF7FEA655C29D094EACF
S1134710050F08BF90EA020F05D054EA000C04BF4D
S11347201946104630BD91EA030F1EBF0021002038
S113473030BD5FEA545C05D14000494128BF41F0D7
S1134740004130BD14F580043CBF01F5801130BD3B
S113475001F0004545F0FE4141F470014FF00000C6
S113476030BD7FEA645C1ABF194610467FEA655C77
S11347701CBF0B46024650EA013406BF52EA033519
S113478091EA030F41F4002130BD00BF90F0000F07
S113479004BF0021704730B54FF4806404F1320443
S11347A04FF000054FF0000150E700BF90F0000FFC
S11347B004BF0021704730B54FF4806404F1320423
S11347C010F0004548BF40424FF000013EE700BFF3
S11347D042004FEAE2014FEA31014FEA02701FBF83
S11347E012F07F4393F07F4F81F06051704732F0B5
S11347F07F4208BF704793F07F4F04BF41F400210C
S1134800704730B54FF4607401F0004521F0004169
S11348101CE700BF50EA010208BF704730B54FF0F3
S113482000050AE050EA010208BF704730B511F0F4
S1134830004502D5404261EB41014FF4806404F12C
S113484032045FEA915C3FF4D8AE4FF003025FEAB2
S1134850DC0C18BF03325FEADC0C18BF033202EB36
S1134860DC02C2F1200300FA03FC20FA02F001FA90
S113487003FE40EA0E0021FA02F11444BDE600BF33
S113488070B54FF0FF0C4CF4E06C1CEA11541DBFE2
S11348901CEA135594EA0C0F95EA0C0F00F0DEF8AD
S11348A02C4481EA030621EA4C5123EA4C5350EA92
S11348B0013518BF52EA033541F4801143F48013E3
S11348C038D0A0FB02CE4FF00005E1FB02E506F074
S11348D00042E0FB03E54FF00006E1FB03569CF0C9
S11348E0000F18BF4EF0010EA4F1FF04B6F5007FCF
S11348F064F5407404D25FEA4E0E6D4146EB060641
S113490042EAC62141EA55514FEAC52040EA5E50C9
S11349104FEACE2EB4F1FD0C88BFBCF5E06F1ED873
S1134920BEF1004F08BF5FEA500E50F1000041EBAA
S1134930045170BD06F0004646EA010140EA020057
S113494081EA0301B4EB5C04C2BFD4EB0C0541EA79
S1134950045170BD41F480114FF0000E013C00F38E
S1134960AB8014F1360FDEBF002001F0004170BDB2
S1134970C4F10004203C35DA0C341BDC04F11404CB
S1134980C4F1200500FA05F320FA04F001FA05F257
S113499040EA020001F0004221F0004110EBD37024
S11349A021FA04F642EB06015EEA430E08BF20EA50
S11349B0D37070BDC4F10C04C4F1200500FA04F3F3
S11349C020FA05F001FA04F240EA020001F0004185
S11349D010EBD37041F100015EEA430E08BF20EAF8
S11349E0D37070BDC4F1200500FA05F24EEA020E40
S11349F020FA04F301FA05F243EA020321FA04F06F
S1134A0001F0004121FA04F220EA020000EBD37025
S1134A105EEA430E08BF20EAD37070BD94F0000F25
S1134A200FD101F00046400041EB010111F4801F59
S1134A3008BF013CF7D041EA060195F0000F18BF0A
S1134A40704703F00046520043EB030313F4801F46
S1134A5008BF013DF7D043EA0603704794EA0C0F00
S1134A600CEA135518BF95EA0C0F0CD050EA410616
S1134A7018BF52EA4306D1D181EA030101F0004193
S1134A804FF0000070BD50EA410606BF10461946BB
S1134A9052EA430619D094EA0C0F02D150EA0136C7
S1134AA013D195EA0C0F05D152EA03361CBF104608
S1134AB019460AD181EA030101F0004141F0FE41A7
S1134AC041F470014FF0000070BD41F0FE4141F42B
S1134AD0780170BD70B54FF0FF0C4CF4E06C1CEA2B
S1134AE011541DBF1CEA135594EA0C0F95EA0C0FE0
S1134AF000F0A7F8A4EB050481EA030E52EA03359B
S1134B004FEA013100F088804FEA03334FF08055BB
S1134B1045EA131343EA12634FEA022245EA1115E8
S1134B2045EA10654FEA00260EF000419D4208BF99
S1134B30964244F1FD0404F5407402D25B084FEA46
S1134B403202B61A65EB03055B084FEA32024FF4F2
S1134B5080104FF4002CB6EB020E75EB030E22BF4F
S1134B60B61A754640EA0C005B084FEA3202B6EB0F
S1134B70020E75EB030E22BFB61A754640EA5C00BE
S1134B805B084FEA3202B6EB020E75EB030E22BF4E
S1134B90B61A754640EA9C005B084FEA3202B6EB4F
S1134BA0020E75EB030E22BFB61A754640EADC000E
S1134BB055EA060E18D04FEA051545EA16754FEA70
S1134BC006164FEAC30343EA52734FEAC2025FEA8E
S1134BD01C1CC0D111F4801F0BD141EA00014FF01D
S1134BE000004FF0004CB6E711F4801F04BF0143EE
S1134BF00020B4F1FD0C88BFBCF5E06F3FF6AFAE0A
S1134C00B5EB030C04BFB6EB020C5FEA500C50F199
S1134C10000041EB045170BD0EF0004E4EEA11311C
S1134C2014EB5C04C2BFD4EB0C0541EA045170BD23
S1134C3041F480114FF0000E013C90E645EA060E67
S1134C408DE60CEA135594EA0C0F08BF95EA0C0F95
S1134C503FF43BAF94EA0C0F0AD150EA01347FF4DD
S1134C6034AF95EA0C0F7FF425AF104619462CE7B4
S1134C7095EA0C0F06D152EA03353FF4FDAE104617
S1134C80194622E750EA410618BF52EA43067FF468
S1134C90C5AE50EA41047FF40DAF52EA43057FF4F8
S1134CA0EBAE12E74FF0FF3C06E000BF4FF0010C03
S1134CB002E000BF4FF0010C4DF804CD4FEA410C67
S1134CC07FEA6C5C4FEA430C18BF7FEA6C5C1BD034
S1134CD001B050EA410C0CBF52EA430C91EA030FB5
S1134CE002BF90EA020F0020704710F1000F91EA12
S1134CF0030F58BF994208BF90422CBFD8176FEAE0
S1134D00E37040F0010070474FEA410C7FEA6C5CAD
S1134D1002D150EA013C07D14FEA430C7FEA6C5CB4
S1134D20D6D152EA033CD3D05DF8040B704700BFE0
S1134D308446104662468C461946634600E000BF2E
S1134D4001B5FFF7B7FF002848BF10F1000F01BD00
S1134D504DF808EDFFF7F4FF0CBF012000205DF8CB
S1134D6008FB00BF4DF808EDFFF7EAFF34BF012050
S1134D7000205DF808FB00BF4DF808EDFFF7E0FFE9
S1134D8094BF012000205DF808FB00BF4DF808ED3A
S1134D90FFF7CEFF94BF012000205DF808FB00BFA1
S1134DA04DF808EDFFF7C4FF34BF012000205DF883
S1134DB008FB00BF4A0011D212F5001211D20DD522
S1134DC06FF47873B3EB62520ED44FEAC12343F00D
S1134DD0004343EA505323FA02F070474FF00000B7
S1134DE0704750EA013002D14FF0FF3070474FF066
S1134DF0000070474FEA4102B2F1E04324BFB3F52B
S1134E00001CDCF1FE5C0DD901F0004C4FEAC0023D
S1134E104CEA5070B2F1004F40EB830008BF20F021
S1134E200100704711F0804F21D113F13872BCBFDB
S1134E3001F00040704741F480114FEA5252C2F130
S1134E401802C2F1200C10FA0CF320FA02F018BF79
S1134E5040F001004FEAC1234FEAD32303FA0CFCCC
S1134E6040EA0C0023FA02F34FEA4303CCE77FEA5B
S1134E70625307D150EA01331EBF4FF0FE4040F4A5
S1134E804000704701F0004040F0FE4040F4000054
S1134E90704700BF80F0004002E000BF81F0004195
S1134EA042001FBF5FEA410392EA030F7FEA226CCC
S1134EB07FEA236C6AD04FEA1262D2EB1363C1BF5C
S1134EC0D218414048404140B8BF5B42192B88BFCB
S1134ED0704710F0004F40F4000020F07F4018BFEE
S1134EE0404211F0004F41F4000121F07F4118BF0E
S1134EF0494292EA030F3FD0A2F1010241FA03FCB6
S1134F0010EB0C00C3F1200301FA03F100F000439D
S1134F1002D5494260EB4000B0F5000F13D3B0F165
S1134F20807F06D340084FEA310102F10102FE2AD4
S1134F3051D2B1F1004F40EBC25008BF20F0010044
S1134F4040EA03007047490040EB000010F4000FF2
S1134F50A2F10102EDD1B0FA80FCACF1080CB2EB85
S1134F600C0200FA0CF0AABF00EBC25052421843E4
S1134F70BCBFD0401843704792F0000F81F4000189
S1134F8006BF80F400000132013BB5E74FEA41035C
S1134F907FEA226C18BF7FEA236C21D092EA030FC8
S1134FA004D092F0000F08BF0846704790EA010F42
S1134FB01CBF0020704712F07F4F04D1400028BF6F
S1134FC040F00040704712F100723CBF00F5000051
S1134FD0704700F0004343F0FE4040F40000704787
S1134FE07FEA226216BF08467FEA23630146420233
S1134FF006BF5FEA412390EA010F40F48000704746
S11350004FF0000304E000BF10F0004348BF4042EB
S11350105FEA000C08BF704743F0964301464FF027
S113502000001CE050EA010208BF70474FF0000383
S11350300AE000BF50EA010208BF704711F00043C4
S113504002D5404261EB41015FEA010C02BF844694
S11350500146002043F0B64308BFA3F18053A3F5F3
S11350600003BCFA8CF2083AA3EBC25310DB01FA3A
S113507002FC634400FA02FCC2F12002BCF1004FBE
S113508020FA02F243EB020008BF20F0010070474F
S113509002F1200201FA02FCC2F1200250EA4C00A3
S11350A021FA02F243EB020008BF20EADC707047E9
S11350B04FF0FF0C1CEAD0521EBF1CEAD15392EAF7
S11350C00C0F93EA0C0F6FD01A4480EA010C4002D3
S11350D018BF5FEA41211ED04FF0006343EA50102D
S11350E043EA5111A0FB01310CF00040B1F5000F6F
S11350F03EBF490041EAD3715B0040EA010062F11E
S11351007F02FD2A1DD8B3F1004F40EBC25008BF07
S113511020F00100704790F0000F0CF0004C08BF25
S113512049024CEA502040EA51207F3AC2BFD2F1F2
S1135130FF0340EAC250704740F400004FF0000300
S1135140013A5DDC12F1190FDCBF00F0004070473A
S1135150C2F10002410021FA02F1C2F1200200FA78
S113516002FC5FEA310040F1000053EA4C0308BF3F
S113517020EADC70704792F0000F00F0004C02BF90
S1135180400010F4000F013AF9D040EA0C0093F00B
S1135190000F01F0004C02BF490011F4000F013B65
S11351A0F9D041EA0C018FE70CEAD15392EA0C0FD3
S11351B018BF93EA0C0F0AD030F0004C18BF31F03E
S11351C0004CD8D180EA010000F00040704790F014
S11351D0000F17BF90F0004F084691F0000F91F0B8
S11351E0004F14D092EA0C0F01D142020FD193EA7E
S11351F00C0F03D14B0218BF084608D180EA010006
S113520000F0004040F0FE4040F40000704740F0E1
S1135210FE4040F4400070474FF0FF0C1CEAD052AF
S11352201EBF1CEAD15392EA0C0F93EA0C0F69D00B
S1135230A2EB030280EA010C49024FEA402037D076
S11352404FF0805343EA111143EA10130CF000406D
S11352508B4238BF5B0042F17D024FF4000C8B425D
S113526024BF5B1A40EA0C00B3EB510F24BFA3EB3D
S1135270510340EA5C00B3EB910F24BFA3EB91030D
S113528040EA9C00B3EBD10F24BFA3EBD10340EA67
S1135290DC001B0118BF5FEA1C1CE0D1FD2A3FF6AD
S11352A050AF8B4240EBC25008BF20F00100704762
S11352B00CF0004C4CEA50207F32C2BFD2F1FF0305
S11352C040EAC250704740F400004FF00003013A36
S11352D037E792F0000F00F0004C02BF400010F4DA
S11352E0000F013AF9D040EA0C0093F0000F01F0EE
S11352F0004C02BF490011F4000F013BF9D041EA10
S11353000C0195E70CEAD15392EA0C0F08D1420242
S11353107FF47DAF93EA0C0F7FF470AF084676E715
S113532093EA0C0F04D14B023FF44CAF08466EE7EE
S113533030F0004C18BF31F0004CCAD130F00042BC
S11353407FF45CAF31F000437FF43CAF5FE700BF14
S11353504FF0FF3C06E000BF4FF0010C02E000BF3D
S11353604FF0010C4DF804CD4FEA40024FEA4103DF
S11353707FEA226C18BF7FEA236C11D001B052EA95
S1135380530C18BF90EA010F58BFB2EB030088BF5B
S1135390C81738BF6FEAE17018BF40F001007047CA
S11353A07FEA226C02D15FEA402C05D17FEA236CAC
S11353B0E4D15FEA412CE1D05DF8040B704700BFF3
S11353C0844608466146FFE70FB5FFF7C9FF00288A
S11353D048BF10F1000F0FBD4DF808EDFFF7F4FFC3
S11353E00CBF012000205DF808FB00BF4DF808ED5C
S11353F0FFF7EAFF34BF012000205DF808FB00BF7F
S11354004DF808EDFFF7E0FF94BF012000205DF8A0
S113541008FB00BF4DF808EDFFF7D2FF94BF012051
S113542000205DF808FB00BF4DF808EDFFF7C8FF4A
S113543034BF012000205DF808FB00BF4FEA4002A2
S1135440B2F1FE4F0FD34FF09E03B3EB12620DD9AE
S11354504FEA002343F0004310F0004F23FA02F018
S113546018BF404270474FF00000704712F1610FBF
S113547001D1420205D110F0004008BF6FF0004096
S113548070474FF00000704742000ED2B2F1FE4F59
S11354900BD34FF09E03B3EB126209D44FEA0023FF
S11354A043F0004323FA02F070474FF000007047C6
S11354B012F1610F01D1420202D14FF0FF30704767
S11354C04FF00000704700BF80B483B000AF0346C4
S11354D03960FB7197F90730002B0CDA3B68DAB2BC
S11354E00D4997F9073003F00F03043B1201D2B2C0
S11354F00B441A760BE03B68DBB2084A97F90710B5
S113550008461B01D9B213180A4683F8002300BFCA
S11355100C37BD4680BC704700ED00E000E100E0C0
S113552080B483B000AF7860094B03F5815318331E
S11355301A6807497B681A4301F5815318331A60C6
S1135540BFF35F8F00BF0C37BD4680BC704700BF00
S11355500070044080B400AF024B1B681846BD467F
S113556080BC704704E0FF1F80B400AF074B03F515
S1135570815314331B68054943F4806201F5815358
S113558014331A6000BFBD4680BC704700700440ED
S113559080B500AFFFF7DEFF0346184680BD00006C
S11355A080B582B000AF78604FF40070FFF7B8FFA9
S11355B0054A7B6843F4C02343F40073C2F8803087
S11355C000BF0837BD4680BD0090044080B483B05E
S11355D000AF78607B684FF47A721A607B680A22A5
S11355E01A717B6801225A717B6800229A717B6868
S11355F00022DA717B6800221A727B6800225A72D8
S11356007B6803229A727B6818460C37BD4680BCBF
S11356107047000080B582B000AF7860094A7B68AB
S11356201A607B6804331846FFF7D0FF7B680022BA
S11356301A747B684FF6FF725A827B6818460837E3
S1135640BD4680BDFCB5000080B483B000AF786077
S1135650044A7B681A607B6818460C37BD4680BCD8
S1135660704700BFFCB5000080B582B000AF786021
S11356707868FFF7E9FF1421786804F06CFF7B6811
S113568018460837BD4680BD80B582B000AF78604B
S11356900B46FB707B681B6810331B68FA78114655
S11356A07868984700BF0837BD4680BD80B582B092
S11356B000AF78600B46FB70FB7819467868FFF7FB
S11356C0E3FF7B6818460837BD4680BD80B582B0CD
S11356D000AF78600A217868FFF7E8FF03461846B0
S11356E00837BD4680BD80B582B000AF78603960B0
S11356F03B681B78002B08D03B685A1C3A601B7827
S113570019467868FFF7D2FFF2E77B681846083736
S1135710BD4680BD80B582B000AF7860396039681D
S11357207868FFF7E0FF7868FFF7D0FF0346184674
S11357300837BD4680BD80B483B000AF78600B46A7
S1135740FB707B68FA785A727B6818460C37BD4642
S113575080BC704780B483B000AF78607B685B69BD
S11357601B79DBB203F02003002B14BF01230023B9
S1135770DBB218460C37BD4680BC704780B584B098
S113578000AF78607B685B691B79FB73FB7B03F07C
S11357900F03002B05D07B681B6820331B687868D7
S11357A09847FB7B03F02003002B00D1EAE77B68DA
S11357B05B69DB79DBB218461037BD4680BD80B526
S11357C082B000AF78600B46FB707B685B691B7925
S11357D0DBB25BB2DB43DBB2DB09DBB2002B01D013
S11357E000BFF2E77B685B69FA78DA71FB780A2B11
S11357F004D17B680D211846FFF758FF00BF083716
S1135800BD4680BD80B582B000AF786039607B68EA
S11358101846FFF7FFFE054A7B681A607B683A6802
S11358205A617B6818460837BD4680BDD0B5000074
S113583080B582B000AF7860054A7B681A607B68E7
S11358401846FFF701FF7B6818460837BD4680BD40
S1135850D0B5000080B582B000AF78607868FFF7FB
S1135860E7FF1821786804F076FE7B68184608374D
S1135870BD4680BD80B487B000AFF860B9607A607F
S1135880FB685B69DB78FB75FB685B690022DA7097
S11358907B685A00BB68B2FBF3F33B61FB685B694E
S11358A01B78DBB223F01F03D9B23B695B13DBB275
S11358B003F01F03DAB2FB685B690A43D2B21A70C1
S11358C03B695A11FB685B69D2B25A70FB685B6929
S11358D09B7ADBB223F01F03D9B23B69DBB203F03E
S11358E01F03DAB2FB685B690A43D2B29A72FB689F
S11358F05B69FA7DDA7000BF1C37BD4680BC704717
S113590080B483B000AF78607B685B691B79DBB2DD
S113591003F04003002B0CBF01230023DBB2002B58
S113592000D0F1E700BF0C37BD4680BC704780B49F
S113593083B000AF78607B685B69DB797B684FF686
S1135940FF725A8200BF0C37BD4680BC704700000E
S113595080B500AF4FF4E131054800F031F8012182
S11359600348FFF7E8FE0020FFF71AFE00BF80BDE2
S113597000E1FF1F80B582B000AF7860796803480A
S1135980FFF7C8FE00BF0837BD4680BD00E1FF1F1A
S113599080B582B000AF786039607B68184600F04B
S11359A021F8064A7B681A603968786800F008F8BC
S11359B07B6818460837BD4680BD00BF78B5000037
S11359C090B583B000AF786039607C68FFF7E0FD84
S11359D003461A4639682046FFF74CFF00BF0C37D0
S11359E0BD4690BD80B582B000AF78607B680B4A3D
S11359F011461846FFF706FF094A7B681A60FFF74D
S1135A00B3FD7B685B690C22DA70082000F02CF887
S1135A107B6818460837BD4680BD00BF00A006401D
S1135A20A4B5000080B582B000AF7860054A7B68F9
S1135A301A607B681846FFF7FBFE7B681846083738
S1135A40BD4680BDA4B5000080B582B000AF7860CB
S1135A507868FFF7E7FF1821786804F07CFD7B681D
S1135A6018460837BD4680BD80B582B000AF786067
S1135A700F2379681846FFF727FD10237968184625
S1135A80FFF722FD112379681846FFF71DFD00BFBB
S1135A900837BD4680BD000080B582B000AF786095
S1135AA039607B68012B0ED13B684FF6FF7293423D
S1135AB009D14FF4E1310648FFF76AFF054A064968
S1135AC0034804F043FD00BF0837BD4680BD00BF56
S1135AD000E1FF1F00E0FF1FDD5A000080B582B027
S1135AE000AF7860054A7B681A607B681846FFF748
S1135AF099FF7B6818460837BD4680BD78B500001D
S1135B0080B582B000AF78607868FFF7E7FF1821AE
S1135B10786804F020FD7B6818460837BD4680BDD0
S1135B2080B483B000AF78607B685B69DB7900BFC9
S1135B300C37BD4680BC704780B500AF4FF6FF718F
S1135B400120FFF7A9FF80BD80B483B000AF0346F6
S1135B50FB7197F9073003F01F02074997F90730E3
S1135B605B09012000FA02F241F8232000BF0C3740
S1135B70BD4680BC704700BF00E100E080B483B044
S1135B8000AF7860044A7B681360034B1B681846B7
S1135B900C37BD4680BC704780E4FF1F80B483B0DF
S1135BA000AF7860094B03F5815318331A6807492D
S1135BB07B681A4301F5815318331A60BFF35F8F72
S1135BC000BF0C37BD4680BC704700BF0070044066
S1135BD080B400AF024B1846BD4680BC704700BF7E
S1135BE00024F40080B582B000AF78604FF40070F8
S1135BF0FFF7D4FF044A7B6843F44023C2F884309F
S1135C0000BF0837BD4680BD0090044080B400AF9B
S1135C10074B03F581531C331B68054943F00052BD
S1135C2001F581531C331A6000BFBD4680BC704728
S1135C300070044080B400AF064B1B6903F480730A
S1135C40002B02D04FF4004300E000231846BD4669
S1135C5080BC704700D0034080B483B000AF78604C
S1135C6000BF0C37BD4680BC7047000080B500AF54
S1135C700A4B1B7BDBB203F00103002B03D0012B87
S1135C8005D0002307E0FFF7A3FF034603E0FFF777
S1135C90D1FF034600BF184680BD00BF0040064048
S1135CA080B400AF0D4B5B78DBB203F00103002B33
S1135CB014BF01230023DBB2002B09D0074B1B7A4E
S1135CC0DBB25B0803F00703054A22FA03F301E0A1
S1135CD04FF400431846BD4680BC70470040064060
S1135CE000093D0080B400AF184A02F58153143313
S1135CF01B6823F4802102F5815314331960134B7C
S1135D004FF400221A60114B03F580530433104AF8
S1135D101A600E4B03F580530C3300221A600B4BB0
S1135D2003F58053103300221A60084B03F58053A7
S1135D30183300221A60054B03F5825308330222FC
S1135D401A6000BFBD4680BC704700BF00700440AD
S1135D505000050080B483B000AF7860054B03F5B4
S1135D60825304337A681A6000BF0C37BD4680BC86
S1135D70704700BF0070044080B500AF262318466A
S1135D80FFF7E2FE00BF80BD80B500AF00F0AAFAC5
S1135D9000BF80BD80B586B000AF78607B681B7A99
S1135DA0BB73A648FFF7D6FF7B68DA7BA44B1A7354
S1135DB07B689A7BA24B1A72A14B00225A73A14BA7
S1135DC093F90030B3F1FF3F02D10023FB750DE0DE
S1135DD09C4B93F9003018469A4B93F900301946BE
S1135DE0994AC30013440B441B78FB7597F90E3092
S1135DF0B3F1FF3F00F02A8100233B610023FB73D2
S1135E0097F917300133082B00F2DA8001A252F817
S1135E1023F000BF395E0000395E00008D5E000093
S1135E20B75E0000A75F0000095F0000A35F0000E9
S1135E30495F0000955F00007B68DA7B804B1A7332
S1135E407B689A7A7E4B5A707B685B7A43F00403D2
S1135E50DAB27B4B1A707A4BDB78DBB203F01F03A8
S1135E60DAB27B68DB7A1343DAB2754BDA7000BFBF
S1135E70734B9B79DBB203F01C03102B14BF01237B
S1135E800023DBB2002B00F09680F0E77B685A7A9F
S1135E906B4B1A7000BF6A4B9B79DBB203F01C0397
S1135EA0002B14BF01230023DBB2002B00D0F1E749
S1135EB00123FB7384E07B68DA7B614B1A737B6894
S1135EC09A7A5F4B5A707B685B7A43F04403DAB288
S1135ED05B4B1A705A4BDB78DBB203F01F03DAB268
S1135EE07B68DB7A1343DAB2554BDA7000BF544B4C
S1135EF09B79DBB203F01C03142B14BF0123002392
S1135F00DBB2002B59D0F1E77B689A7A4C4B5A707C
S1135F107B685B7A63F07F03DAB2494B1A707B6863
S1135F205A7B474B5A7100BF454B9B79DBB203F058
S1135F301C03082B14BF01230023DBB2002B00D069
S1135F40F1E70123FB733BE07B689A7A3C4B5A7080
S1135F507B681A7B3A4B1A717B685B7B43F0400386
S1135F60DAB2374B5A717B685B7A63F07F03DAB23B
S1135F70334B1A700123FB73314B9B79DBB203F073
S1135F802003002B0CBF01230023DBB2002B16D00F
S1135F9000BFF1E77B685A7A294B1A700123FB731F
S1135FA00EE00123FB737B689B7A43F00203DAB2B1
S1135FB0234B5A7004E000BF02E000BF00E000BFC2
S1135FC0FB7B002B13D07B689B7A03F00403002B2C
S1135FD00DD000BF1A4B9B79DBB203F00203002BF8
S1135FE00CBF01230023DBB2002B00D0F1E7154ADC
S1135FF0FB7D1370134B93F900301A4697F90E305A
S11360001149D2000A4413441B78FB753B695A1C9E
S11360103A61052BCCBF01230023DBB2002B04D053
S11360200D20FFF7ABFD03462BE0064B93F9003040
S113603097F90E209A4209D0E0E600BF000005550A
S11360400040064028E1FF1F54B600007B681B682F
S11360501846FFF77FFE0D4B03F5805304331B688E
S113606023F480327B685B6808491A4301F5805346
S113607004331A6000F00EF87B681A7C044B5A73E0
S1136080002318461837BD4680BD00BF0070044089
S11360900040064080B584B000AFFFF7E7FDF8602C
S11360A0864B1B78DBB203F00403002B0CBF0123E7
S11360B00023DBB2002B4DD0804B1B78DBB2DB0816
S11360C003F00703FA6822FA03F37D4A13607B4B5B
S11360D05B78DBB203F03003002B08D0774B1B7BDB
S11360E0DBB203F00103012B01D0012300E0002304
S11360F0002B33D0714B1B78DBB203F03803302B09
S11361000CBF01230023DBB2002B08D06C4B1B68AF
S11361106C4AA2FB03231B09694A13601EE0674B08
S11361201B78DBB203F03803382B0CBF01230023A8
S1136130DBB2002B08D0624B1B68634AA2FB03232B
S1136140DB085F4A136009E05D4B1B685B095C4A2E
S1136150136003E05A4B4FF400421A60574BDB784C
S1136160DBB25BB2002B02DA4FF4377301E04FF479
S11361702073534A126802FB03F3504AD278D2B216
S1136180520902F00302013202FB03F3BB60002355
S11361907B60FB684B4AA2FB0323DB08474A527926
S11361A0D2B202F01F02183202FB03F37B60434BAE
S11361B01B79DBB203F01F0301337A68B2FBF3F3FC
S11361C07B607A6813469B0013445B007B603F4B03
S11361D000221A603E4B00221A60384B9B79DBB2D6
S11361E003F00C030C2B37D801A252F823F000BFA4
S11361F025620000596200005962000059620000E3
S113620033620000596200005962000059620000C4
S11362103F620000596200005962000059620000A8
S11362204B6200002B4ABB681360294ABB681360A9
S113623012E0FFF735FD0246264B1A600CE0FFF72B
S113624015FD0246234B1A6006E0224A7B68136060
S11362501E4A7B68136000BF184B1B79DBB203F046
S11362604003002B14BF01230023DBB2002B02D018
S1136270164A7B681360174B1A68174B03F5825351
S113628004331B681B0F03F00F030133B2FBF3F35A
S1136290124A13600F4B1A680F4B03F582530433F1
S11362A01B681B0E03F00F030133B2FBF3F30C4A1C
S11362B0136000BF1037BD4680BD00BF00400640DC
S11362C018E1FF1FCDCCCCCCABAAAAAA24E1FF1FB6
S11362D020E1FF1F1CE1FF1F0070044004E0FF1FCA
S11362E008E0FF1F80B500AF064BFF221A70064876
S11362F0FFF750FDFFF7F6FCFFF73EFDFFF7CAFE80
S113630000BF80BD28E1FF1F18B6000080B500AFB4
S113631000F006F800F00AF8FFF736FD00BF80BD74
S113632080B500AF00F008F800BF80BD80B500AFB5
S113633000F00EF800BF80BD80B500AF0020FFF76D
S113634051FC024B82221A7000BF80BD00500640EF
S113635080B582B000AFFFF759FC0020FFF77CFC4A
S113636000F054F803465B6903F00103002B14BFEB
S113637001230023DBB2002B3AD000F047F8024699
S11363800123136100F042F802460023136100F078
S11363903DF802464FF41063136100237B607B6871
S11363A0184A934204DC00BF7B6801337B60F6E744
S11363B000F02CF80246144B136000F027F8024654
S11363C01023536100F022F802460023D36000F04A
S11363D01DF802467823936100F018F80246FF2363
S11363E0C2F8003800F012F80246FF23C2F804385D
S11363F000F00CF802464FF4106313610837BD46F1
S113640080BD00BF9F860100C0F5195D80B400AF58
S1136410024B00BF1846BD4680BC704700D0034005
S113642080B483B000AF786000BEFDE780B500AFF4
S1136430012004F03FF980B400AF00BFBD4680BC2A
S1136440704780B400AF00BFBD4680BC70470000F9
S113645080B400AF0C4B0D4A9A600B4B5B690A4A3F
S113646043F0100353610A4B4CF22052DA81084B7B
S11364704DF62812DA81BFF34F8F054B10221A8094
S113648000BFBD4680BC704700ED00E00040000046
S11364900020054080B500AF00F008F8FFF736FF94
S11364A0FFF756FAFFF7C7FF00BF80BD80B400AF07
S11364B0054B9A78D2B242F00802D2B29A7000BF69
S11364C0BD4680BC704700BF00D0074080B582B095
S11364D000AF7860044A7B68136003F0EFFF034663
S11364E018460837BD4680BD80E4FF1F80B582B0E2
S11364F000AF786039600520FFF7E8FF00BF083778
S1136500BD4680BD80B500AF0520FFF7DFFF00BFAB
S113651080BD80B483B000AF78600B46FB707B68AD
S1136520FA789A727B6818460C37BD4680BC70476F
S113653080B483B000AF786039603B68DAB27B68BE
S1136540DA727B6818460C37BD4680BC7047000081
S113655080B489B000AFF860B96011461A460B46A2
S1136560FB711346BB71FB68002B00D100BEFB79A5
S1136570012B02D9FB79102B00D900BEFB687B618B
S1136580FA79BB68B3FBF2F102FB01F29B1A4B4AA6
S1136590D15CFB685A1CFA600A461A70FB79BA6827
S11365A0B2FBF3F3BB60BB68002B00D0E8E7BB7918
S11365B0032B51D801A252F823F000BFCD6500008F
S11365C0E16500000B6600005966000097F82C3066
S11365D0002B3CD0FB685A1CFA602D221A7036E05E
S11365E097F82C30002B04D0FB685A1CFA602D223B
S11365F01A70FA687B69D31ABA6A9A4229DDFB6871
S11366005A1CFA6020221A70F3E7FA687B69D21ADE
S1136610BB6A013B9A4205DAFB685A1CFA603022D5
S11366201A70F2E797F82C30002B04D0FB685A1C40
S1136630FA602D221A70FA687B69D31ABA6A9A42F0
S113664009DDFB685A1CFA6030221A7003E000BFAF
S113665002E000BF00E000BFFB68013BFB617B6917
S1136660BB61BA69FB699A4210D2BB691B78FB749F
S1136670FB691978BB695A1CBA610A461A70F97C1D
S1136680FB695A1EFA610A461A70EAE7BB79032BC2
S11366900BD1FA687B69D31ABA6A9A4205DDFB68A2
S11366A05A1CFA6020221A70F3E7FB6800221A7061
S11366B0FB6818462437BD4680BC7047FCA7000021
S11366C090B591B002AFF860B9601346FB71FB68F6
S11366D0997AFB68DB7A1C46FA7907F114000023E7
S11366E0019300940B46B968FFF732FF07F11403D6
S11366F01946F868FEF7F7FF034618463C37BD46CF
S113670090BD80B584B000AFF860B9601346FB71EA
S1136710FB791A46B968F868FFF7D2FFF868FEF704
S1136720D5FF034618461037BD4680BD80B584B0FA
S113673000AFF860B9601346FB71BB68FA7919467B
S1136740F868FFF7DEFF034618461037BD4680BDE4
S113675080B584B000AFF860B9601346FB71FB7973
S11367601A46B968F868FFF7CCFF03461846103795
S1136770BD4680BD684620F007018D4681B482B0D5
S113678000AF034B5B68C3F308037B6000BEFDE707
S113679000ED00E01EF0040F0CBFEFF30880EFF3F0
S11367A00980714600F002B800BF000004460D469F
S11367B002215648FFF7ADFE08215448FFF7B8FE02
S11367C053495248FEF78FFF52495048FEF78BFF5A
S11367D0236810221946FFF7BBFF4F494B48FEF7C9
S11367E082FF636810221946FFF7B2FF4B494748FE
S11367F0FEF779FFA36810221946FFF7A9FF48495D
S11368004248FEF770FFE36810221946FFF7A0FF25
S113681044493E48FEF767FF236910221946FFF7F3
S113682097FF41493948FEF75EFF63691022194614
S1136830FFF77CFF3D493548FEF755FFA369102259
S11368401946FFF773FF3A493048FEF74CFFE369F6
S113685010221946FFF77CFF36492C48FEF743FF08
S1136860354B9C6A35492948FEF73DFF03460A2209
S113687021461846FFF745FF31492448FEF733FF08
S11368802D4BDB6A10221946FFF73BFF2D491F48A9
S1136890FEF729FF284B1B6B10221946FFF731FF27
S11368A029491A48FEF71FFF234BDB6B10221946B8
S11368B0FFF727FF04F08003002B09D02349134876
S11368C0FEF711FF1C4B5B6B10221946FFF719FFF3
S11368D004F40043002B09D01D490C48FEF703FFC4
S11368E0154B9B6B10221946FFF70BFF19490748FC
S11368F0FEF710FF18490548FEF7F5FE034610227F
S113690029461846FFF7FDFE00BEFDE700E1FF1F24
S113691010A8000030A800003CA8000048A800000F
S113692054A8000060A800006CA8000078A800002B
S113693084A8000090A8000000ED00E09CA80000DE
S1136940A8A80000B4A80000C0A80000CCA80000BB
S1136950D8A80000E4A80000ECA8000080B400AFB0
S1136960094B03F5815318331B68074943F400723C
S113697001F5815318331A60044B00221A6100BFD9
S1136980BD4680BC704700BF0070044000900440C6
S113699080B500AF024B1B68984700BF80BD00BFA5
S11369A018E0FF1FB0B500AF00F0CEF803461B6837
S11369B003F08003002B14BF01230023DBB2002B60
S11369C00ED0164B1C6800F0BFF803461D6900F09A
S11369D0BBF803461B6803F01F0319462846A0476B
S11369E000F0B2F803465B6803F08003002B14BF89
S11369F001230023DBB2002B0ED0084B1C6800F0EF
S1136A00A3F803465D6900F09FF803465B6803F052
S1136A101F0319462846A04700BFB0BD14E0FF1F5E
S1136A2080B582B000AF204B5B6D03F08003002B78
S1136A3007D01D4B5B6F03F08003002B01D00123B3
S1136A4000E00023002B07D0174B5A6F22F080027E
S1136A505A67164B1B689847134B1B6803F0C00317
S1136A60C02B0CBF01230023DBB2002B07D00E4B3D
S1136A701A6822F080021A600D4B1B6898470A4B73
S1136A801B6D7B607B68002B09D07B68DB43064A67
S1136A901365084B1B687A68D2B21046984700BF4A
S1136AA00837BD4680BD00BF0080034010E0FF1FD3
S1136AB00CE0FF1F2CE1FF1F80B500AF044B012247
S1136AC0C3F80C21034B1B68984700BF80BD00BF6F
S1136AD0007003401CE0FF1F80B500AF044B01228F
S1136AE0C3F81C21034B5B68984700BF80BD00BFFF
S1136AF0007003401CE0FF1F80B500AF044B01226F
S1136B00C3F82C21034B9B68984700BF80BD00BF8E
S1136B10007003401CE0FF1F80B500AF044B01224E
S1136B20C3F83C21034BDB68984700BF80BD00BF1E
S1136B30007003401CE0FF1F80B500AF0520FFF785
S1136B40C5FC00BF80BD000080B400AF024B00BF95
S1136B501846BD4680BC704700B0034080B500AF06
S1136B600520FFF7B3FC00BF80BD000080B483B0F4
S1136B7000AF7860044A7B681360034B1B681846B7
S1136B800C37BD4680BC704780E4FF1F80B582B0DF
S1136B9000AF7860044A7B68136003F08FFC0346FF
S1136BA018460837BD4680BD80E4FF1F80B582B01B
S1136BB000AF78607868FEF7DDFE4FF0FF30FFF736
S1136BC02FFC000080B483B000AF7860094B03F55C
S1136BD0815318331A6807497B681A4301F58153B6
S1136BE018331A60BFF35F8F00BF0C37BD4680BCFB
S1136BF0704700BF0070044080B400AF0B4B1B68AB
S1136C0003F01803102B08D0182B09D0082B01D03F
S1136C10002306E0064B1B6803E0064B1B6800E0FC
S1136C2000231846BD4680BC704700BF0080034067
S1136C3008E0FF1F18E1FF1F80B400AF074B03F506
S1136C4081531C331B68054943F0807201F581535D
S1136C501C331A6000BFBD4680BC704700700440FE
S1136C6080B582B000AF0346FB710520FFF78EFFAD
S1136C7000BF0837BD4680BD80B483B000AF7860E4
S1136C807B6808491A1D0B4603CB106051601988B4
S1136C909B78118193727B6818460C37BD4680BC83
S1136CA0704700BF94B6000080B584B000AFF860B0
S1136CB0B9601346FB71FB791A46B968F868FFF7A7
S1136CC0FFFC034618461037BD4680BD80B483B030
S1136CD000AF786039607B683A685A617B6818460F
S1136CE00C37BD4680BC704780B483B000AF786079
S1136CF0044A7B681A607B6818460C37BD4680BC22
S1136D00704700BF14B7000080B582B000AF786050
S1136D107868FFF7E9FF0421786803F01CFC7B68BE
S1136D2018460837BD4680BD80B582B000AF786094
S1136D300B46FB70FB7803F02003002B16D00D4BA1
S1136D401B6801330B4A13600A4B1B68632B06D97B
S1136D50084B00221A601C2000F03AFA06E0054BAA
S1136D601B68322B02D1182000F032FA00BF08371A
S1136D70BD4680BD30E1FF1F80B582B000AF7860B2
S1136D800B46FB70054B1B68FA7811461846FFF753
S1136D90CBFF00BF0837BD4680BD00BF48E1FF1FE1
S1136DA080B582B000AF0346FB71FB791946002021
S1136DB0FFF7E2FF0837BD4680BD000080B483B012
S1136DC000AF7860024B18460C37BD4680BC704754
S1136DD0A16D000080B582B000AF78600022002170
S1136DE0032000F009FA07220821002000F018FA15
S1136DF00A48FFF7E3FF0346184600F049FA052066
S1136E0000F072FA04220021402000F07AFA03F024
S1136E1055FB00BF0837BD4680BD00BF34E1FF1FEE
S1136E2090B583B000AF786039603B68002B09D01F
S1136E303B68002B03D03B682B4A934202D92B4872
S1136E40FFF7B4FE7B683A68DA603B68002B04D134
S1136E500021182000F074FA42E03868FEF7D0F8F8
S1136E60034623491846FEF7C1FA0346002B16D001
S1136E703868FEF7C5F803461D491846FEF718F9A9
S1136E80034619464FF07E50FEF7C6F903461846EE
S1136E9000F06CFA4021182000F052FA20E00021A2
S1136EA0142000F04DFA3868FDF770FC02460B46DA
S1136EB0FDF730FB03460C461A4623464FF000000C
S1136EC00C49FDF707FE03460C4618462146FDF71C
S1136ED091FF0346184600F049FA012000F078FAC1
S1136EE000BF0C37BD4690BD8096980014A90000E1
S1136EF00000C8420000F03F80B483B000AF786067
S1136F007B68DB6818460C37BD4680BC70470000C0
S1136F1080B582B000AF7860044B1B685B6818468C
S1136F2001F08AF800BF0837BD4680BD48E1FF1F65
S1136F3080B500AF0020FFF7EBFF80BD80B483B0C5
S1136F4000AF7860024B18460C37BD4680BC7047D2
S1136F50316F000090B585B000AF78603960394B6F
S1136F60FB607B685B68184601F022F87B685B680D
S1136F7035491846FFF7AAFE3B68002B06D17B680B
S1136F805B6832491846FEF7AEFB47E03868FEF707
S1136F9037F803462E491846FEF73CFA0346002B01
S1136FA008D02C4BFB603B682B4AA2FB03239B0CB1
S1136FB03B6018E03868FEF723F803462749184673
S1136FC0FEF728FA0346002B08D0254BFB603B68EC
S1136FD0244AA2FB03239B093B6004E03B68002B8B
S1136FE001D0214BFB607B685B6804211846FFF7E6
S1136FF09FFA034601211846FFF78BFA03460A223B
S113700039681846FFF750FE0346F9681846FEF73C
S11370106AFB034615491846FEF765FB7B685B6807
S11370201846FFF729FE7B681C691148FFF786FFA5
S113703003461946204600F0D9F900BF1437BD466F
S113704090BD00BF60A9000034E0FF1F68A90000E4
S11370500024744970A9000083DE1B4300007A44B5
S113706078A90000D34D621080A9000088A900000F
S113707038E1FF1F80B584B000AF78607B681B7D6A
S113708083F00103DBB2002B61D100F0DFF9F8607B
S1137090324B1B68FA689A4206D0314B00221A60C0
S11370A02E4AFB68136055E02D4B1B68042B04D853
S11370B02B4B1B6801332A4A1360294B1B68042B92
S11370C048D1FB68012B22D0FB68022B41D1254B10
S11370D01B680133234A1360224B1B68142B02D90B
S11370E0204B00221A601F4B1B681F4A52F82330A2
S11370F01846FEF7C9F9034619467868FFF790FE6B
S11371007B68DB6819467868FFF724FF22E0154B9B
S11371101B68013B134A1360124B1B68142B02D9E2
S1137120104B14221A600F4B1B680F4A52F823307D
S11371301846FEF7A9F9034619467868FFF770FE6A
S11371407B68DB6819467868FFF704FF02E000BF3C
S113715000E000BF1037BD4680BD00BF3CE1FF1F0B
S113716040E1FF1F44E1FF1FA0B6000080B582B0DC
S113717000AF78607B6801221A757B685B681846EB
S113718000F034FF7B689B6819467868FFF748FE77
S11371907B68DB6819467868FFF7DCFE00BF0837B8
S11371A0BD4680BD80B582B000AF78607B680022A8
S11371B01A757868FFF7A0FE02467B689A60002182
S11371C07868FFF72DFE00BF0837BD4680BD00007C
S11371D080B483B000AF0346FB71064B5B6B23F0B6
S11371E03C02FB791343034A536300BF0C37BD468B
S11371F080BC70470080034080B582B000AF034676
S11372003960FB711346BB71FA793B681A43BB7949
S11372101343184600F026F900BF0837BD4680BD69
S113722080B584B000AF0346FB710B46BB711346B7
S11372307B7100F044F90023FB60FB68002B0ED146
S1137240104AFB6852F82330002B04D10D4AFB6826
S11372500D4942F82310FB680133FB60EDE70B4B4B
S113726000221A60094B1B68FA79BB791343DAB21E
S11372707B791343DBB21A46044B1A6000BF103704
S1137280BD4680BD2CE1FF1F616C000000800340FF
S113729080B582B000AF78607B68002B04D1104BBE
S11372A0104A1A60002316E00D4B1B680D4A9342E6
S11372B00DD00B4B1B68002B09D0094B1B687A6857
S11372C09A4204D00E20FFF751FC034603E0044A1F
S11372D07B681360002318460837BD4680BD00BF95
S11372E02CE1FF1F616C000080B582B000AF7860B4
S11372F019237968184603F00FF900BF0837BD4613
S113730080BD80B582B000AF0346FB710B46BB71F4
S113731013467B7100F0DBF8FA79BB791343DAB2D8
S11373207B791343DBB21A464FF4806303F4E063C2
S11373301343184600F0D1F800BF0837BD4680BD9E
S113734080B483B000AF03460A46FB711346BB7199
S1137350FA79BB791343DBB21A46034B5A6300BF75
S11373600C37BD4680BC70470080034080B586B0B2
S113737000AF786007F1080207F10C03194678683A
S113738000F0BCF878617B69002B01D07B6919E0BF
S11373900E4B1B683B610D4B00221A600B4B1B68A4
S11373A0BB680021184600F013F9084B00225A600C
S11373B03B6923F00702FB6803F007031343034A06
S11373C01360002318461837BD4680BD0080034073
S11373D080B582B000AF0346FB80FB8805211846C8
S11373E000F048F900BF0837BD4680BD80B584B0C1
S11373F000AF78603960EFF3108072B6B8607868D7
S113740000F04CF9034683F00103FB73FB7B002B74
S113741014D03A687B68DB6A181D7968C8621A6000
S11374207B681B6B5A1C7B681A637B68DA6A7B680F
S113743028339A4202D37A687B68DA62FB7BB868A5
S113744080F3108818461037BD4680BD80B500AF64
S113745000F034F903461B69DB431B0C03F0030300
S1137460184680BD90B585B000AF78604FF4806356
S11374701846FFF7A7FB00F021F903465A6922F4E6
S113748040325A61002000F023F97B6823F4E06362
S113749043F480737B601023FB60FB68112B0AD8D4
S11374A07C6800F037F90246FB6842F82340FB6829
S11374B00133FB60F1E700BF1437BD4690BD80B5D2
S11374C000AFFFF7B9FBBFF35F8F00BF80BD80B48F
S11374D000AF00BFBD4680BC704790B583B000AF1D
S11374E078604FF48050FFF76DFB7C6800F01CF966
S11374F003461C6000BF0C37BD4690BD90B58BB0F1
S113750000AFF860B9607A60FFF776FB034618466F
S1137510FDF776FD0346BB6101237B6200233B62DA
S11375204FF48033FB61284B1B6803F02003002BCE
S113753014BF01230023DBB2002B02D04FF6FE73ED
S1137540FB613B6A072B32D8786AFDF759FD034685
S11375501946B869FDF760FE03467B617969F868EE
S1137560FDF7A6FD03461846FDF732F903460C461F
S11375701846214602F0F4FF03460C4618462146FD
S1137580FDF718FC03463B61BB683A6A1A607B68E6
S11375903A691A603A69FB699A4201D800230EE0FD
S11375A03B6A01333B627B6A5B007B62C9E7074845
S11375B0FFF7FCFA0320FFF7D9FA034600BF184689
S11375C02C37BD4690BD00BF008003408CA900004D
S11375D080B584B000AF78600B46FB70224B1B680B
S11375E003F02003002B14BF01230023FB72FB7A5A
S11375F0002B0FD07B6801335B087B607B68B3F59D
S1137600004F16D31948FFF7D1FA0320FFF7AEFA5B
S1137610034624E07B68013B7B607B68B3F5803FD5
S113762007D31348FFF7C2FA0320FFF79FFA034674
S113763015E0FB78002B05D00B4B1B68FB600A4B55
S113764000221A60084B0022DA647B68064A9360C1
S1137650FB78002B02D0FB68034A13600023184612
S11376601037BD4680BD00BF008003402CAA000037
S1137670CCAA000080B483B000AF03463960FB801D
S1137680FA8805493B680133DB000B449A6000BF6C
S11376900C37BD4680BC70470080034080B483B083
S11376A000AF78607B681B6B0A2B0CBF012300239F
S11376B0DBB218460C37BD4680BC704780B400AFBF
S11376C0024B1846BD4680BC704700BF40F00F40D7
S11376D090B585B000AF78607B68DB437B60EFF3E7
S11376E0108072B6F860FFF7E9FF03461B6823F4C5
S11376F040327B681B0403F4403342EA0304FFF77F
S1137700DDFF03461C60F86880F3108800BF14375F
S1137710BD4690BD80B400AF024B1846BD4680BC48
S1137720704700BF00A0044080B400AF024B18466D
S1137730BD4680BC704700BF14C0044080B582B011
S113774000AF7860054A7B681A607B681846FFF7CB
S1137750CBFA7B6818460837BD4680BDFCB60000EE
S113776080B582B000AF78607868FFF7E7FF182132
S1137770786802F0F0FE7B6818460837BD4680BD85
S113778080B483B000AF7860044A7B681360034B15
S11377901B6818460C37BD4680BC704780E4FF1F49
S11377A080B483B000AF7860094B03F5815318337C
S11377B01A6807497B681A4301F5815318331A6024
S11377C0BFF35F8F00BF0C37BD4680BC704700BF5E
S11377D00070044080B582B000AF786039600C4A14
S11377E03B6812F81330184600F05EF9084A3B680B
S11377F012F8132006493B685B000B445B78134383
S1137800DBB2184600F06EF900BF0837BD4680BDF4
S113781024B7000080B483B000AF786000BF0C3799
S1137820BD4680BC7047000080B584B000AF78606E
S11378307B685B7A83F00103DBB2002B40F0AE80FF
S113784000F067F90346FB73574B1B78FA7B9A42A7
S113785003D0554AFB7B1370A3E07B681B7A002B93
S113786002D1FB7B002B01D0012200E000227B68C7
S11378701A727B681B7A83F00103DBB2002B40F0A1
S11378808F807B68DB68DBB203F00303BB73BB7BD5
S1137890022B35D0032B4CD0012B18D0FB7B082BAB
S11378A060D0FB7B022B05D17B68DB685A1C7B68AC
S11378B0DA6057E0FB7B012B05D17B68DB685A1E3D
S11378C07B68DA604EE07868FFF7A4FF4AE0FB7B50
S11378D0022B49D0FB7B042B05D17B68DB685A1C47
S11378E07B68DA6040E0FB7B082B05D17B68DB68B2
S11378F05A1E7B68DA6037E07868FFF78BFF33E065
S1137900FB7B042B32D0FB7B012B05D17B68DB682E
S11379105A1C7B68DA6029E0FB7B022B05D17B686B
S1137920DB685A1E7B68DA6020E07868FFF772FF34
S11379301CE0FB7B012B1BD0FB7B082B05D17B6858
S1137940DB685A1C7B68DA6012E0FB7B042B05D1F0
S11379507B68DB685A1E7B68DA6009E07868FFF7A9
S113796059FF05E000BF04E000BF02E000BF00E0F3
S113797000BF7B68DB68002B02D17B680C22DA60D5
S11379807B68DB680C2B02D97B680122DA607B6898
S1137990DB6819467868FFF71DFF02E000BF00E0CE
S11379A000BF1037BD4680BD4CE1FF1F80B582B0DB
S11379B000AF7860044B1B681846FFF735FF00BF23
S11379C00837BD4680BD00BF50E1FF1F80B500AF42
S11379D00020FFF7EBFF80BD80B483B000AF786078
S11379E0024B18460C37BD4680BC7047CD79000069
S11379F080B586B002AF786004230193002300931E
S1137A00002300224021002000F08EF800220021F3
S1137A10002000F0A8F87B681B7A002B03D07B6859
S1137A200C331B6800E0002319467868FFF7D2FE88
S1137A307B6801225A7207F108031846FFF7CCFF4E
S1137A400346184600F0A3F8082000F0ACF8074BF2
S1137A50FB600223FB72FB7A1A46F968002000F0EF
