S113000000200020C5040000890E0000A50E000099
S1130010890E0000890E0000890E00000000000017
S1130020000000000000000000000000890E000035
S1130030890E000000000000890E0000890E0000F7
S1130040890E0000890E0000890E0000890E000050
S1130050890E0000890E0000890E0000890E000040
S1130060890E0000890E0000890E0000890E000030
S1130070890E0000890E0000890E0000890E000020
S1130080890E0000890E0000890E0000890E000010
S1130090890E0000890E0000890E0000890E000000
S11300A0890E0000890E0000890E0000890E0000F0
S11300B0890E0000890E0000550F0000B90E0000E3
S11300C0850F0000B90F0000890E0000091B000015
S11300D0890E0000890E0000890E0000890E0000C0
S11300E0890E0000890E0000890E0000890E0000B0
S11300F0890E0000890E00000000000000000000CE
S113010000000000000000000000000000000000EB
S113011000000000000000000000000000000000DB
S113012000000000000000000000000000000000CB
S113013000000000000000000000000000000000BB
S11304000001020304050607FFFFFFFFFEF9FFFFDB
S113041010B5054C237833B9044B13B10448AFF33A
S113042000800123237010BDF0E0FF1F00000000D6
S1130430FC31000008B5034B1BB103490348AFF37B
S1130440008008BD00000000F4E0FF1FFC31000044
S1130450154B002B08BF134B9D46A3F5803A002192
S11304608B460F461348144A121A02F027F90F4B11
S1130470002B00D098470E4B002B00D0984700204B
S1130480002104000D000D48002802D00C48AFF3F1
S1130490008002F0D9F82000290001F033FD02F0B9
S11304A0BFF800BF0000080000200020000000008A
S11304B0F30D0000F0E0FF1FC8E6FF1F000000007E
S11304C00000000000F096FC0A490B4A0B4B9A42CC
S11304D0BEBF51F8040B42F8040BF8E70849094A77
S11304E000209142BCBF41F8040BFAE700F081FC04
S11304F0FFF7AEFF0832000060E0FF1FECE0FF1FD3
S1130500F0E0FF1FC8E6FF1F53B94AB9002908BF2E
S113051000281CBF4FF0FF314FF0FF3000F074B9DA
S1130520ADF1080C6DE904CE00F006F8DDF804E046
S1130530DDE9022304B070472DE9F047089E044624
S11305408846002B40F085808A42154648D9B2FA85
S113055082F24AB1C2F1200701FA02F320FA07F746
S1130560954047EA030894404FEA154E230CB8FB24
S1130570FEF71FFA85FC0EFB178843EA084307FBC6
S11305800CF1994209D9EB1807F1FF3080F0E380B0
S1130590994240F2E080023F2B445B1AA4B2B3FBC1
S11305A0FEF00EFB103344EA034400FB0CFCA445AC
S11305B009D92C1900F1FF3380F0CB80A44540F217
S11305C0C88002382C4440EA0740A4EB0C040027FE
S11305D01EB1D4400023C6E900433946BDE8F08784
S11305E0002A53D0B2FA82F2002A40F0B680491BA6
S11305F04FEA154E1FFA85F80127B1FBFEFC230CC8
S11306000EFB1C1143EA014308FB0CF1994207D984
S1130610EB180CF1FF3002D2994200F2EC808446D0
S1130620591AA3B2B1FBFEF00EFB101443EA0444C2
S113063008FB00F8A04507D92C1900F1FF3302D2BA
S1130640A04500F2DC801846A4EB080440EA0C4004
S1130650BEE78B4208D9002E78D00027C6E90001F6
S113066038463946BDE8F087B3FA83F77FB98B4241
S113067002D3824200F2BD80841A61EB030301209D
S11306809846002EA9D0C6E90048A6E7FFDEC7F1C8
S11306902005BB4022FA05FC4CEA030C01FA07F4DE
S11306A020FA05F821FA05F34FEA1C4E48EA04043F
S11306B0B3FBFEF9210C0EFB19331FFA8CF841EA47
S11306C0034309FB08FA9A4502FA07F200FA07F114
S11306D00BD91CEB030309F1FF3080F088809A45A5
S11306E040F28580A9F102096344A3EB0A03A4B292
S11306F0B3FBFEF00EFB103344EA034400FB08F89E
S1130700A04508D91CEB040400F1FF336BD2A045CB
S113071069D90238644440EA0940A4EB0804A0FB08
S113072002894C45C6464B4654D351D0002E69D05D
S1130730B1EB0E0264EB030404FA05F522FA07F3A5
S1130740FC401D43C6E90054002746E737463046BF
S113075043E7184637E707461FE7C2F1200320FAAC
S113076003F7954001FA02F021FA03F34FEA154E1C
S11307703843010CB3FBFEF71FFA85F80EFB173361
S113078041EA034107FB08F38B4204FA02F407D958
S1130790691807F1FF3C28D28B4226D9023F29442D
S11307A0CB1A81B2B3FBFEF00EFB103341EA0341D6
S11307B000FB08F38B4207D9691800F1FF3C10D203
S11307C08B420ED902382944C91A40EA074714E774
S11307D04145ABD2B8EB020E69EB0C02013813466B
S11307E0A4E76046F0E7184695E76746D8E78146F0
S11307F07BE7384645E7ACF1020C2B4410E702389E
S11308002C4421E73746E8E6704700BF436918796E
S1130810C0F34010704738B5044663691D79EDB2E2
S11308202A0703D0236820461B6A9847AB06F4D5F1
S11308306369D87938BD426913795B06FCD5704782
S11308404369DB794FF6FF7343827047704743690E
S1130850DB79704710B51821044601F0CFFE20461D
S113086010BD03681B69184710B50446FFF7F9FF6C
S1130870204610BD08B543691A79120601D400BF99
S1130880F9E70A29D97102D10D21FFF7EDFF08BD5F
S113089008B50A21FFF7E8FF08BD38B504464D1E28
S11308A015F8011F204611B1FFF7DEFFF8E738BD48
S11308B010B50446FFF7F1FF2046FFF7E9FF10BD2E
S11308C04172704710B543690024D878DC701C78F5
S11308D0520004F0E004B2FBF1F1C1F344322243CC
S11308E01A70C1F347125A709A7A01F01F0102F08C
S11308F0E002C0B211439972D87010BD08B5024B22
S11309001A68FFF7DFFF08BD68E0FF1F10B50C4C45
S11309104FF4E1312046FFF7F1FF01212046FFF7B4
S1130920CFFF084941F238028B5843F400738B50CF
S1130930BFF35F8F044B054AC3F8802010BD00BF8E
S11309400CE1FF1F00700440009004400002060008
S113095008B501460148FFF7ABFF08BD0CE1FF1FD6
S113096010B5184C18484FF47A724FF48573C4E9E3
S1130970012300230322A381A2732374134A626117
S113098041F234014FF6FF736382435843F48063AA
S113099043500C23D3700E4B802283F80F23204640
S11309A083F810234FF4E13183F81123094B2360BA
S11309B0FFF7A4FF2046084A0849BDE8104001F0AB
S11309C018BE00BF0CE1FF1F0070044000A00640E9
S11309D000E100E08C27000060E0FF1F4D080000EC
S11309E0064B1B7BDB0707D5054B186910F4807099
S11309F018BF4FF40040704702487047004006405B
S1130A0000D003400024F400F8B5FFF7E9FF4B4A97
S1130A10137813F0040F4A4B56D11178C1F3C20175
S1130A2020FA01F11960517811F0300F0CD0117BCC
S1130A30C90709D4117801F0380130293AD11A686C
S1130A401421B2FBF1F21A603C4A3E4ED178D3F83D
S1130A5000C0D3783C4C11F0800F517901F01F0194
S1130A6001F118014FF00A05B0FBF5F000FB01F0AD
S1130A70117901F01F0101F10101B0FBF1F03349DB
S1130A8005FB00F54FF0000030600860927902F039
S1130A900C0214BF4FF437774FF42077DBB20C2AE3
S1130AA01DD8DFE802F0141C1C1C361C1C1C441C42
S1130AB01C1C4800127802F03802382A1A6801D146
S1130AC00C21BEE75209BEE74FF40042BBE7C3F373
S1130AD0411303FB0CCC07FB0CF727600F60174B8B
S1130AE01B481B7941F244015B0648BF356022680C
S1130AF043581B0F0133B2FBF3F3164A1360226809
S1130B004358C3F303630133B2FBF3F3124A136094
S1130B10F8BD0A4B5A78D20743BF1B7AC3F342028B
S1130B200E4B4FF4004348BFD3402360D7E7FFF791
S1130B3057FF2060D3E725603560D0E700400640CA
S1130B4024E1FF1F30E1FF1F2CE1FF1F28E1FF1FFD
S1130B500070044068E0FF1F64E0FF1F00093D00CF
S1130B60F8B55B4A5B4990F9085041F244030446E6
S1130B70D150594BC27B1A73827B1A725748002298
S1130B805A7390F900305F1C1EBF03EBC303544A31
S1130B90D2566E1C00F088804F4B514F0726511CD3
S1130BA008291ED8DFE801F0070728377B4E715D5E
S1130BB06E000A46F3E7E17B1973A17A5970617AF2
S1130BC041F004011970D97894F80BC001F01F01A9
S1130BD041EA0C01D97000BF997901F01C01102978
S1130BE0F9D107EBC201013E027049575AD13D4B7E
S1130BF00D221A601868F8BD617A197000BF9979DE
S1130C0011F01C0FFAD1A17A4907EAD500BF9979EE
S1130C108907FBD5E5E7E17B1973A17A5970617AFD
S1130C2041F044011970D97894F80BC001F01F0108
S1130C3041EA0C01D97000BF997901F01C01142913
S1130C40F9D1CEE7A17A5970617A41F08001197027
S1130C50617B597100BF997901F01C010829F9D110
S1130C60D1E7A17A5970217B1971617B41F0400170
S1130C705971617A41F08001197099798906C2D459
S1130C8000BFFAE7617A1970BDE74FF0010CA17A51
S1130C9041F002015970BCF1000FA2D0B3E74FF04C
S1130CA0000CF4E7AA4284D1094A216841F24403C2
S1130CB0D15041F204016068535823F48033034354
S1130CC05350FFF7A1FE044B227C5A73002092E795
S1130CD000700440000005550040064034E1FF1F49
S1130CE0EC270000B4E6FF1F08B5144B1448FF229C
S1130CF01A70FFF735FF134B41F234015A5822F4AE
S1130D0080225A504FF400221A6041F204020E4924
S1130D10995041F20C0100225A5041F210015A50EC
S1130D2041F218015A5041F2480202219950074BEE
S1130D3040225A60BDE80840FFF766BE34E1FF1F59
S1130D40B0270000007004405000050000E100E0FE
S1130D5041F23C0212498B5843F000538B50114B23
S1130D605A69D20717D501221A6100221A614FF479
S1130D7010621A610C4A00BF013AFCD1094B0B49BD
S1130D80196010215961DA6078229A61FF22C3F850
S1130D900028C3F80428034B4FF410621A6170470B
S1130DA00070044000D00340A0860100C0F5195D26
S1130DB008B50C4941F238028B5843F400738B5048
S1130DC0BFF35F8F084B4FF44022C3F8842003F530
S1130DD0E03382221A70FFF7BBFFBDE80840FFF73B
S1130DE083BF00BF007004400090044000BEFDE7D4
S1130DF070477047094B0A4A9A605A6942F01002D8
S1130E005A61084B4CF22052DA814DF62812DA81ED
S1130E10BFF34F8F10221A8000F09EBF00ED00E058
S1130E20000000000020054008B5064A937843F00E
S1130E3008039370FFF7BCFFFFF768FDFFF7D8FFC7
S1130E4008BD00BF00D00740704770474369836105
S1130E5070474FF6FF7343827047002070474FF08E
S1130E60FF30704783691970D0E90523C1690A44CA
S1130E7093423CBF01338361836900221A70704737
S1130E8005207047052070476846054B20F0070190
S1130E905B688D4682B0C3F30803019300BEFDE78F
S1130EA000ED00E01EF0040F0CBFEFF30880EFF339
S1130EB00980714600F042BA084B0122C3F81C2194
S1130EC0074A537833B107498B6823F001038B60D9
S1130ED000235370044B5B68184700BF0070034045
S1130EE035E1FF1F107103406CE0FF1F00207047C5
S1130EF070470000024B05221A6001F02BBB00BFB3
S1130F00B4E6FF1F10B52821044601F077FB204604
S1130F1010BD10B52821044601F070FB204610BD19
S1130F2010B52021044601F069FB204610BD0000E5
S1130F30024B05221A6001F00DBB00BFB4E6FF1F8F
S1130F4008B5034B05221A6001F004FB002008BD1C
S1130F50B4E6FF1F084B09490122C3F80C210A78A3
S1130F603AB1D3F8082122F00102C3F80821002382
S1130F700B70034B1B6818470070034035E1FF1FDB
S1130F806CE0FF1F084B0122C3F82C21074A937819
S1130F9033B107498B6823F001038B6000239370FE
S1130FA0044B9B68184700BF0070034035E1FF1FE6
S1130FB0207103406CE0FF1F084B0122C3F83C2161
S1130FC0074AD37833B107498B6823F001038B6058
S1130FD00023D370044BDB68184700BF0070034044
S1130FE035E1FF1F307103406CE0FF1F08B5FFF7C8
S1130FF0AFFC4FF0FF30FFF7F9FE00002DE9F041A0
S1131000069E9DF81C70054600B900BE901E0E2871
S113101000D900BEDFF89C802C46B1FBF2FC02FB39
S11310201C1E204618F80EE000F801EB8A420CD989
S1131030012B1CD063B1022B0ED1711E3022441B34
S11310408C421FDA00F8012BF9E761460446E4E715
S113105017B12D220270A01C421E29468A421CD9B7
S11310600C78177801F8017B02F80149F6E717B10B
S11310702D220270A01C2022411BB142ECDA00F8A0
S1131080012BF9E717B12D2200F8012B421BB242C4
S1131090BCBF302200F8012BDEE7032B06D120234E
S11310A0421BB24202DA00F8013BF9E70023037065
S11310B0BDE8F0814529000010B58CB000230193F0
S11310C0C37A0093837A044603A8FFF797FF03A922
S11310D02046FFF7E2FB0CB010BD10B50446FFF745
S11310E0EBFF2046FFF7D4FB10BD08B5FFF7F5FF73
S11310F008BD08B5FFF7F1FF08BD000000234371E8
S1131100C3608371D0E90721C37103724372038200
S11311104382054B4361054B03EB41135A60DA608C
S11311205A61DA61704700BF410F000000E0FF1F01
S113113005230372026A836903EB820393F8C020D8
S113114042F0020283F8C0207047026A836903EB0D
S1131150820393F8C02002F0FD0283F8C02000232C
S11311600372437170470000036A81791E4A70B5A7
S11311705B0171B118331A441378DB0900D000BE47
S11311801178C1F3C01111F0FF0F04D01748FFF715
S11311902DFF1033EFE7038A848C9BB29C420CD35F
S11311A000D94172C5686DB1C66900218B4206D071
S11311B06C5CE4B274540131F8E72346F2E7C16889
S11311C01944C160418A194489B24182018AC91A09
S11311D089B2DBB201825380437913B1C8231370FF
S11311E070BD8823FBE700BF00E0FF1F052A000055
S11311F008B5C179036A5A01094B01B10832134495
S11312001A78D20902D00748FFF7F0FE828C5A8080
S1131210427912B1C8221A7008BD8822FBE700BFC8
S113122000E0FF1F56290000437983F0010370B5E5
S11312304371057AEDB2022D044605D0042D4FF01A
S1131240000344D003722AE0036AC179264A5B0191
S113125001B9083313445D8815F0FF0516D0238ABD
S1131260E0689D42C4BF258AEDB230B12A46E169E7
S113127001F016FAE3682B44E360628AA9B20A44D7
S113128092B26282238A5B1A9BB22382A38C9D4210
S113129006DB238A9BB21BB12046FFF7A9FF70BD72
S11312A025797DB9012303266371E56065822046B3
S11312B025822672FFF758FF6571E56065822582F5
S11312C02672E9E76369022098472072E7E74371D1
S11312D0C360438203820372FFF78AFF636928466F
S11312E0BDE87040184700BF00E0FF1F38B50E4C42
S11312F00E4D2046FFF702FFA369092283F8C4209C
S1131300236A45F823400A4B63610A4C2046FFF7E1
S1131310F5FEA369052283F8C820236A45F8234013
S1131320054B636138BD00BF8CE6FF1FD0E5FF1F8E
S11313307922000064E6FF1F7D220000494C02234D
S11313400546A3720F4608234749E3722046FFF778
S1131350A4FA46492046FFF7A0FA29681022FFF7AD
S1131360C8FE43492046FFF798FA69681022FFF740
S1131370C0FE40492046FFF790FAA9681022FFF703
S1131380B8FE3D492046FFF788FAE9681022FFF7C6
S1131390B0FE3A492046FFF780FA29691022FFF788
S11313A0A8FE37492046FFF778FA69691022FFF74B
S11313B09CFE34492046FFF770FAA9691022FFF712
S11313C094FE31492046FFF768FA1022E9692F4D4F
S11313D0FFF78FFE2E492046FFF75FFAAE6A2D49CC
S11313E02046FFF75AFA0A223146FFF776FE2A49C9
S11313F02046FFF752FA1022E96AFFF76EFE2749EA
S11314002046FFF74AFA1022296BFFF766FE2449AB
S11314102046FFF742FA1022E96BFFF75EFE320620
S113142007D520492046FFF738FA696B1022FFF7E9
S113143054FE330408D51C490A48FFF72EFA134B0F
S11314401022996BFFF749FE18490648FFF730FA56
S113145017490448FFF721FA10223946FFF73DFEE9
S113146000BEFDE70CE1FF1F7E2800009C28000061
S1131470A5280000AE280000B7280000C0280000FE
S1131480C9280000D2280000DB28000000ED00E09D
S1131490E4280000F0280000FA28000004290000D5
S11314A00E29000018290000222900002C29000020
S11314B03329000010B5002160221148114C01F0BD
S11314C0FDF8114B032283F89420012283F8942021
S11314D0226A0E4B204643F82240FFF70FFEA36911
S11314E00D2283F8C0200A4B6361204600236371F8
S11314F0E360638223822372FFF77AFE10BD00BF8C
S113150000E0FF1F94E1FF1F00200740D0E5FF1F0C
S1131510ED0E0000014B1B68184700BF80E0FF1F61
S113152008B5044B04481B68984710B10348FFF7FB
S1131530FFFD08BD84E0FF1F39E1FF1F94E1FF1F99
S113154008B50C4BDA88904288BFD888DA880A4BF1
S113155088BFC0B290422CBF002201225A720022DE
S11315605A8201221882D9601A721846FFF7FCFDCC
S113157008BD00BF39E1FF1F94E1FF1F134A08B5FE
S11315801378812B1BD0822B04D0802B1AD10420FA
S11315900F4911E09388DBB25A0713D403F0070311
S11315A030330C4A0C4912F8233013F0020F0B4B62
S11315B04FF0040008BF1946FFF7C2FF08BD022020
S11315C00749F9E70748FFF7B3FDF7E739E1FF1FDC
S11315D044E1FF1F00200740782800007428000021
S11315E07C28000094E1FF1F70B538490A784B88C5
S11315F0802A8EB004D03648FFF79AFD0EB070BD35
S11316004A88120A022A06D0032A0ED0012AF2D1ED
S1131610304C122005E04B8813F0FF0FEBD12E4C19
S113162020202146FFF78CFFE8E7DBB2EE2B02D146
S11316302A4C2078F5E7052BDDD813B9284B1C6814
S1131640F7E7032B224E3BD1264A41F254010025F1
S1131650545841F25801505841F25C0144405158E9
S113166002F583524C4012688DF8263054404FF6F0
S1131670FF72ADF82A201C4A069216220D921B4ACC
S11316808DF828504FF47A71CDE9071206A818494D
S1131690CDF82CD0CDF830D08DF80050ADF82450D2
S11316A0FFF7FBF810222146FFF706FD2946FFF756
S11316B0DBF8F46940226946204600F023FDB8E7D0
S11316C00749F46951F823104022F5E739E1FF1F77
S11316D094E1FF1F842F0000962F0000522F00007A
S11316E0B82F000000700440442800000A010206DC
S11316F0F42B000008B50122427100224282C2602C
S1131700028203220272FFF72FFD08BD154A08B5B5
S113171013782BB1022B12D01348FFF709FD0DE00B
S11317205388012BF8D19288002AF5D10F490B7800
S113173062F341030B700C48FFF7DCFF08BD93888C
S11317405288002AE8D103F00703022BE4D8084AA0
S113175052F8230010B90748FFF748FCFFF7F5FCDF
S1131760E9E700BF39E1FF1F94E1FF1F44E1FF1FD8
S1131770D0E5FF1F542B0000154A08B513782BB190
S1131780022B12D01348FFF7D3FC0DE05388012B32
S1131790F8D19388002BF5D10F4A137843F0020354
S11317A013700C48FFF7A6FF08BD93885288002ADF
S11317B0E8D103F00703022BE4D8084A52F82300C7
S11317C010B90748FFF712FCFFF7B2FCE9E700BFC6
S11317D039E1FF1F94E1FF1F44E1FF1FD0E5FF1F24
S11317E0B42A00000E4B1A78012A10B505D1DA8804
S11317F01AB90C4A1278042A03D00B48FFF798FC54
S113180010BD5B88002BF8D1084C6068FFF79DFC85
S1131810A068FFF79AFC0448FFF76CFFF0E700BFED
S113182039E1FF1F49E1FF1F94E1FF1FD0E5FF1FCE
S113183010B50849084A094B28B902240C7082F8EB
S11318409800187010BD03240C7082F898000022D0
S11318501A70F7E749E1FF1F0020074048E1FF1F26
S113186008B5044B1878FFF7E3FF034B034A5A61AA
S1131870002008BDC1E1FF1F94E1FF1FED0E000031
S113188008B5044B1878FFF7D3FF034B034A5A619A
S1131890002008BDC1E1FF1F94E1FF1FED0E000011
S11318A008B5124B1A783AB95A8812F0FF0F07D0CC
S11318B05A88D2B2012A03D00D48FFF739FC08BD7B
S11318C05B8813F0FF030AD10A4B93F89800FFF7E3
S11318D0AFFFFFF70BFD0648FFF70CFFEFE7064AE3
S11318E004211170054A1370F3E700BF39E1FF1FAB
S11318F094E1FF1F0020074049E1FF1F48E1FF1F5B
S113190070B5444C444BE66900221846D518B1180A
S11319100132092A03D00978C9B22970F6E70022F6
S11319202272012262713D4A62611A78C2F3411146
S113193002295CD0032969D0012967D05B780B2B7D
S113194064D8DFE803F03106631A631D3463372B70
S11319504D2EFFF7DBFE236AE179314A5B0101B1C9
S1131960083313441B78DB0902D12A48FFF740FCF3
S11319702C4B012283F8942070BDFFF7FDFEEAE7AB
S11319801AB12448FFF7D4FBE5E7274B42881A70C5
S11319902048264B6361FFF7ADFEDCE7FFF780FFCD
S11319A0D9E7FFF71FFFD6E7FFF7E8FDD3E7FFF717
S11319B01BFED0E71E4D2B78BFF35B8FDB070AD4E9
S11319C0284600F007FE30B11A4B1A781A4B284605
S11319D01A7000F00BFE18490120FFF7B1FDBAE7B9
S11319E0812ACED1C0880128CBD11449F5E75A7891
S11319F0302A0BD19A88042A02D111492820ECE715
S1131A009B88052B02D10F49F820E6E7FFF788FDF4
S1131A10A1E700BF94E1FF1F39E1FF1FED0E0000B5
S1131A2000E0FF1F00200740C1E1FF1F81180000F4
S1131A30BCE1FF1F48E1FF1FC0E1FF1F7028000049
S1131A402A2F0000322E0000C0F30312D1B22A4B19
S1131A5070B553F82140266A8E42C0F38003C0F368
S1131A60C00502D02548FFF7C1FA83F001038DB108
S1131A70A37100293DD1C0F38500214B13F8300038
S1131A80C0F38304092C0AD00D2C05D0012C2CD0D2
S1131A9001241AE0E371ECE7FFF732FFF8E7194D90
S1131AA06B7983F001036B71287AC4B2012C03D0E3
S1131AB0032C15D02A72EBE72B8A9BB263B96B7A9D
S1131AC053B92B791BB904232B72204670BD6B6963
S1131AD0204698472872F8E70A48FFF745FBD7E7FE
S1131AE02A726B6920469847D2E70648FFF79CFBA9
S1131AF0EBE70024E9E700BFD0E5FF1F012C00005D
S1131B0000E0FF1F94E1FF1F2DE9F0413E4C3F4EE2
S1131B10DFF8048194F8805094F884301D4025D077
S1131B20EA0725D5002384F8843084F88C30364CB9
S1131B301A4603F130010133102B04F82120F8D1A7
S1131B40324BFF25022684F8885084F880501E709A
S1131B502F4B84F898201A70FFF7ACFC9F2384F86D
S1131B608430304684F88C50FFF7D4FCBDE8F08113
S1131B702B0709D594F89070FFB23846FFF764FF3D
S1131B8010B9384600F026FBAF0614D594F884301B
S1131B9003F0DF0384F884303378052B0BD104235E
S1131BA001203370FFF7B6FCFFF7A0FBFFF782FCC0
S1131BB0012384F89430280602D54046FFF7C5FA7D
S1131BC0690708D594F8A400124B94F8A0201B6868
S1131BD042EA00209847EA060DD53378042B0AD14F
S1131BE094F8843043F0210384F8843000200523E2
S1131BF03370FFF78FFCAB0744BFFF2384F88830B2
S1131C0084F8805086E700BF0020074049E1FF1FA9
S1131C1048E1FF1F7CE0FF1F94E1FF1F144A136893
S1131C2013F0010310B522D1124C01211160124AA4
S1131C302260124A6261124AA261124A6371C4E9C3
S1131C400723A3712371E371E36023722046637257
S1131C50238263824023A384FFF750FA0A4B236054
S1131C6020460A4A0A49BDE8104000F0C2BC10BD33
S1131C7090E1FF1F94E1FF1F34280000410F000092
S1131C800020074050E1FF1F6828000060E0FF1FAC
S1131C90F10E0000024B01221A700020704700BFB1
S1131CA0CEE5FF1F10B541F23C02124CA35843F499
S1131CB08023A350104B4FF025429A600F4A5A607C
S1131CC09A6842F000729A604FF0FF321A609A6884
S1131CD022F000729A6001441A46884203D050F8F8
S1131CE0044B1460F9E718689B68DB0158BF80B2A5
S1131CF010BD00BF0070044000200340B71DC104A4
S1131D00054B064910B54FF480401C68FFF7CAFF25
S1131D10231A5842584110BDFCFF0100FCBF0100CA
S1131D2084B008B50DF1080C8CE80F000399B1F5E7
S1131D30804F0ED3049A8B18B3F5003F09D805A839
S1131D4000F088F9B0FA80F04009BDE8084004B01A
S1131D5070470020F9E7000010B50F4C0F49636984
S1131D6041F2380223F0100363618B5843F400738B
S1131D708B50BFF35F8F0A4B40F203121A60FFF7D8
S1131D80BFFF40B12369DB0605D544F20403BDE877
S1131D9010401B68184710BD00F00F40007004404D
S1131DA0109004402DE9F0414D4C2378ADF6080D18
S1131DB0264663B900F02EFB4A4B4B4A1A6000F0EA
S1131DC0C9FB012323700DF6080DBDE8F081474AD5
S1131DD01278042AF7D1022B06D0454940F20C4070
S1131DE000F04EFA0223EDE700F05CFA0028EADB8B
S1131DF000230328CDF80034CDF8043404DC012397
S1131E00CDF80034082530E0394C2368052BF6D88A
S1131E1001A252F823F000BF051E0000311E00008D
S1131E20851E0000BF1E0000971E0000D51E000086
S1131E30FFF766FF0222CDF80824012200282D4B6B
S1131E40CDF80C244FF48042CDF8102408BF0023B1
S1131E504FF4E032CDF814248BB19A685B68CDF866
S1131E601824CDF81C34A56820354FF47A720DF58A
S1131E708061A8B200F024FA01233370A3E7CDF8FF
S1131E801834EEE74FF4E0314FF4804000F018F9D5
S1131E900028B4D1B6E7D4F800806768A568E46880
S1131EA015494FF47F72684600F0FAFB4046394604
S1131EB02A462346FFF734FF0028A3D19FE7A268F0
S1131EC0CDF8042461680DF5816002F1080500F085
S1131ED0E7FBCAE7094B0A4ADA6000BFFDE700BF27
S1131EE0CEE5FF1F80E0FF1F951C000049E1FF1FA6
S1131EF0C2E1FF1FF0FF0100D2E1FF1F00ED00E08F
S1131F000400FA0508B5FFF74DFFFCE72DE9F041A1
S1131F100D4D90464FF0FF326A6005222A60AC688E
S1131F2006460F46012E77F100030ADBC04748B985
S1131F30AB68E41A24F07F44361B67F100071C46A3
S1131F40F0E70020BDE8F08110E000E010B5074B99
S1131F500C4619684FF47A720023A0FB0101FEF7C6
S1131F60D3FA2246BDE81040FFF7D0BF68E0FF1F58
S1131F70044970220A7080220A700B781340FCD046
S1131F80704700000000024000B5214B93B023F0DD
S1131F90010301931F4B23F001030293029B019A57
S1131FA09B1A0393039B312B02D91B48FFF71EF89E
S1131FB01A4BDB78012B23D105AB0199039A184600
S1131FC000F06EFB0346EFF3108072B6049043F00A
S1131FD001039847049880F31088114B1A78D006AF
S1131FE010D41A7891060FD41A78D2070ED41B781D
S1131FF013F0400F0CBF00200E2013B05DF804FB5B
S11320001020FAE70920F8E70820F6E70A20F4E7A9
S1132010711F0000891F0000EC2D000000E0074044
S1132020000002400A4B0622DA71C1F307429A719A
S1132030C1F30722C9B25A71197102781A7242782F
S11320405A7282789A72C278DA72FFF79DBF00BF23
S113205000000240B1F1805FF8B50D4628BF41F49D
S11320600005AB070746164602D00B48FEF7BEFF35
S113207012F0030401D00948F8E7A64205EB040175
S113208007EB040005D0FFF7CDFF04340028F4D09B
S1132090F8BD0020FCE700BF4C2D0000962D000089
S11320A0064B0922DA71C0F307429A71C0F3072282
S11320B0C0B25A711871FFF767BF00BF0000024039
S11320C0B0F1805F28BF40F4000038B5C0F30903C5
S11320D013B10A48FEF78AFFC1F309030BB108489C
S11320E0F8E70C464518281B2CB1FFF7D9FF18B99F
S11320F0A4F58064F7E7204638BD00BFAC2C00008F
S1132100F62C000070B50446022304F8023B0323B6
S113211043700B7893B103780233DBB203700B780E
S11321201B060CD411F8013B2546DEB205F8026B00
S11321301B0A6370037893422C46EAD370BD0B7874
S113214003F0E003C02B0BD10D4615F8023B497890
S11321509B0101F03F0103F4F8630B442946E3E7D4
S11321600B7803F0F003E02B0DD10E784D788B78CB
S1132170AD0103F03F0303EB063305F47C652B4408
S11321809BB20331D0E70023CEE77047704710B508
S11321902821044600F032FA204610BD10B528214B
S11321A0044600F02BFA204610BD0000084B1B7AB1
S11321B082B0DBB28DF807309DF8073033B19DF85B
S11321C00700831F5842584102B070470120FBE7C3
S11321D08CE6FF1F70B5C0F30314E3B2214A52F832
S11321E023100D6A9D42C0F38002C0F3C00002D0E8
S11321F01D48FEF7FBFE82F0010228B18A71012B13
S113220004D0022B08D070BDCA71F8E7174B1848E8
S11322101C70FFF709F8F6E7164C637983F00103A5
S11322206371207AC0B2012805D003284FF000035F
S113223012D02372E7E7238A9BB24BB9637A3BB986
S113224023790BB90423F4E7636998472072DAE72A
S11322500848FEF789FFD6E723726369BDE870403A
S1132260184700BFD0E5FF1F012C000060E6FF1FE8
S11322708CE6FF1F64E6FF1F0620704706207047A8
S1132280074B1A7A10B502F0FF043AB902225C82B5
S1132290D96018821A721846FEF7AAFF002010BDF2
S11322A08CE6FF1F054B1A7A062A01BF00221A7218
S11322B0588A80B218BF4FF0FF3070478CE6FF1F7A
S11322C038B505460C4610460849FFF73FFE50B1A5
S11322D007480123C4600024448205820372FEF788
S11322E043FF204638BD1020FCE700BFAD210000AD
S11322F064E6FF1F70B541F234023D493D4C8B58F2
S113230043F480238B502320082100F041F93A4BF9
S11323100822C3F88420002323741D4623752377E1
S113232084F8843084F8883084F88C3084F89430CD
S113233084F8983003F130020133102B04F8225052
S1132340F8D12B4A84F800514FF0807184F8085179
S113235084F80C5151601168284841F00041116023
S11323604022010E84F80C2184F8B410C0F3074114
S113237084F8B010C0F3072184F89C10FF2184F87E
S11323808010112184F8841084F8002184F8083125
S11323901B4B0126022284F894601A70194B84F8AE
S11323A09850002160221D7000F088F9032384F8FE
S11323B0943084F89460144C144B226A204643F8F9
S11323C02240FEF79BFEA369E5600D2283F8C0203E
S11323D00F4B657120466582636125822572FEF785
S11323E007FF08212320BDE8704000F0D1B800BFEA
S11323F0007004400020074000E100E000E0FF1FFF
S113240049E1FF1F48E1FF1F94E1FF1FD0E5FF1FD3
S1132410ED0E000008B5FFF76DFF044A0449136888
S1132420002B08BF0B46136008BD00BF80E0FF1FF0
S1132430810E00002DE9F047354B364CDFF80C9146
S1132440DFF80C81344FC4F8009000254FF0010AE6
S113245040266571C4E9073AA5712046E57184F800
S113246004A02572E5606572C4F814802582A76112
S11324706582A684FEF742FE284B2360284A294938
S11324802046294C00F0B5F8284BE361022365711E
S11324902362A5712046E571C4F80090257284F882
S11324A004A06572E5602582C4E905876582A68477
S11324B0FEF724FE1E4B1A4A1E492360204600F0F4
S11324C098F81D4A136813EA0A031FD11B4CC2F87B
S11324D000A01B4A6371C4E90723A3712371E3714C
S11324E0E360237220466372C4F800902382C4E937
S11324F005876382A684FEF701FE124B2360204603
S1132500074A1149BDE8F04700F073B8BDE8F08709
S113251020E6FF1F8CE6FF1F002007406C2F000001
S113252060E0FF1F8D21000064E6FF1FE0E5FF1F50
S11325307C2F00008B21000090E1FF1F94E1FF1F1E
S113254050E1FF1F68280000F10E0000342800004D
S1132550410F000070B50A4C0A4E2546236863B14A
S113256023680948102B96BF084A314652F82310B5
S11325702B68FEF79DF900BEF0E7206870BD00BF30
S1132580B4E6FF1F1D3000000CE1FF1F2C300000DB
S113259000F01F0301229A4043099B0003F16043AA
S11325A0002803F56143A8BF00F16040C3F880210F
S11325B04FEA01111A60BABF00F00F00044B00F596
S11325C06140C9B2B4BF195480F80013704700BF0A
S11325D014ED00E00368DB0706D4437803B1FFDEA3
S11325E0012343701846704700207047012303609D
S11325F070470B460146184600F004B800F000B8D6
S113260000F046B810B5054C13462CB10A460146F5
S11326100220AFF3008010BD2046FCE7000000005C
S113262008B5074B044613B10021AFF30080054BF6
S11326301868836A03B198472046FEF7D7FB00BFAA
S113264000000000C831000070B50D4D0D4C641B36
S1132650A4100026A64209D10B4D0C4C00F0B6FD87
S1132660641BA4100026A64205D170BD55F8043B96
S113267098470136EEE755F8043B98470136F2E7F0
S1132680E4310000E4310000E4310000F8310000DE
S1132690024B0146186800F019B800BF88E0FF1F1C
S11326A00A44914200F1FF3300D1704710B511F88C
S11326B0014B03F8014F9142F9D110BD0244034686
S11326C0934200D1704703F8011BF9E738B505467A
S11326D0002945D051F8043C0C1F002BB8BFE41866
S11326E000F042F81F4A1368104633B9636014605F
S11326F02846BDE8384000F03DB8A3420CD9216813
S11327006218934204BF1A685B68636004BF52187E
S113271022600460ECE713465A680AB1A242FAD96F
S113272019685818A0420BD12068014458188242F5
S11327301960DDD1106852685A6001441960D7E706
S113274002D90C232B60D3E7206821188A4204BFE6
S113275011685268626004BF091821605C60C7E7B1
S113276038BD00BFB8E6FF1F014800F009B800BF3C
S1132770C0E6FF1F014800F004B800BFC0E6FF1F19
S11327807047704700000000000000004D08000082
S1132790550800000D080000170800007508000027
S11327A03708000041080000FD0800004F08000041
S11327B000000311000001000722250003000000AF
S11327C00000000000000F33000000000522250077
S11327D000000000000000000000031100000000E1
S11327E00122256000000000000000000001020238
S11327F004040404000002020404040400010003AD
S1132800040404040202020202020202000102029F
S1132810000506060404040404040606040404046F
S11328200405040706060606060606060000000060
S113283000000000490E0000050F00000000000029
S1132840000000004B0E0000210F00005B0E000092
S11328505F0E0000650E00004D0E0000530E0000D8
S11328600000000000000000F10E0000130F000043
S113287000000000000000000100000000000A5BEE
S1132880486172646661756C745D0A202D2053740E
S113289061636B206672616D653A0A0052302020D4
S11328A03D20307800523120203D203078005232D3
S11328B020203D20307800523320203D2030780005
S11328C0523132203D203078004C5220203D2030BF
S11328D07800504320203D20307800505352203D52
S11328E0203078002D204653522F4641523A0A0098
S11328F043465352203D2030780048465352203DF1
S11329002030780044465352203D20307800414620
S11329105352203D203078004D4D464152203D20F9
S1132920300042464152203D203078002D204D6930
S11329307363004C522F4558435F52455455524ED1
S11329403D20307800303132333435363738394130
S1132950424344454600417373657274696F6E2047
S11329604661696C65642040433A2F557365727300
S11329702F706F646F6E6F676875652F446F637532
S11329806D656E74732F446576656C6F706D656EDE
S1132990742F4469676974616C4C6162426F61723F
S11329A0642F436F64655F44657369676E2F426F7C
S11329B06F746C6F616465725F4469676974616C9C
S11329C04C6F676963426F6172642F50726F6A65FE
S11329D063745F486561646572732F7573625F65C4
S11329E06E64706F696E742E683A343833202D200B
S11329F04D435520646F65736E2774206F776E2086
S1132A004244542100417373657274696F6E2046A9
S1132A1061696C65642040433A2F55736572732F66
S1132A20706F646F6E6F676875652F446F63756D43
S1132A30656E74732F446576656C6F706D656E7426
S1132A402F4469676974616C4C6162426F6172649E
S1132A502F436F64655F44657369676E2F426F6FC0
S1132A60746C6F616465725F4469676974616C4C0E
S1132A706F676963426F6172642F50726F6A656336
S1132A80745F486561646572732F7573625F656E08
S1132A9064706F696E742E683A343137202D204D7E
S1132AA0435520646F65736E2774206F776E2042E0
S1132AB044542100417373657274696F6E204661DA
S1132AC0696C65642040433A2F55736572732F70A7
S1132AD06F646F6E6F676875652F446F63756D659E
S1132AE06E74732F446576656C6F706D656E742FAC
S1132AF04469676974616C4C6162426F6172642FEE
S1132B00436F64655F44657369676E2F426F6F74CA
S1132B106C6F616465725F4469676974616C4C6F62
S1132B20676963426F6172642F50726F6A65637480
S1132B305F486561646572732F7573622E683A31FC
S1132B40333334202D204E554C4C20456E64706F29
S1132B50696E7400417373657274696F6E204661A7
S1132B60696C65642040433A2F55736572732F7006
S1132B706F646F6E6F676875652F446F63756D65FD
S1132B806E74732F446576656C6F706D656E742F0B
S1132B904469676974616C4C6162426F6172642F4D
S1132BA0436F64655F44657369676E2F426F6F742A
S1132BB06C6F616465725F4469676974616C4C6FC2
S1132BC0676963426F6172642F50726F6A656374E0
S1132BD05F486561646572732F7573622E683A315C
S1132BE0323837202D204E554C4C20456E64706F82
S1132BF0696E74004B696E65746973426F6F742DEE
S1132C0000417373657274696F6E204661696C6507
S1132C10642040433A2F55736572732F706F646F4D
S1132C206E6F676875652F446F63756D656E747339
S1132C302F446576656C6F706D656E742F4469679B
S1132C406974616C4C6162426F6172642F436F649A
S1132C50655F44657369676E2F426F6F746C6F6153
S1132C606465725F4469676974616C4C6F6769631A
S1132C70426F6172642F50726F6A6563745F486556
S1132C8061646572732F7573625F656E64706F69DA
S1132C906E742E683A323836202D2057726F6E6764
S1132CA020656E6420706F696E74210041737365D2
S1132CB07274696F6E204661696C656420402E2EC3
S1132CC02F536F75726365732F6674666C2E637011
S1132CD0703A323532202D2041646472657373205A
S1132CE06E6F74206F6E20466C61736820626F751E
S1132CF06E6461727900417373657274696F6E20DA
S1132D004661696C656420402E2E2F536F75726383
S1132D1065732F6674666C2E6370703A3235332097
S1132D202D2053697A65206973206E6F74206D7548
S1132D306C7469706C65206F6620466C61736820E2
S1132D407068726173652073697A65004173736595
S1132D507274696F6E204661696C656420402E2E22
S1132D602F536F75726365732F6674666C2E637070
S1132D70703A323033202D204164647265737320BD
S1132D806E6F74206F6E20466C61736820626F757D
S1132D906E6461727900417373657274696F6E2039
S1132DA04661696C656420402E2E2F536F757263E3
S1132DB065732F6674666C2E6370703A32303420FB
S1132DC02D2053697A65206973206E6F74206D75A8
S1132DD06C7469706C65206F6620466C6173682042
S1132DE07068726173652073697A650041737365F5
S1132DF07274696F6E204661696C656420402E2E82
S1132E002F536F75726365732F6674666C2E6370CF
S1132E10703A3831202D20466C6173682052414D40
S1132E202062756666657220746F6F20736D616CC5
S1132E306C00F8000000000105000200860000009C
S1132E40070000002A004400650076006900630062
S1132E50650049006E007400650072006600610040
S1132E6063006500470055004900440073000000FA
S1132E704E0000007B00390033004600450042004C
S1132E804400350031002D003600300030003000A1
S1132E902D0034004500370045002D00410032006C
S1132EA0300045002D00410038003000460043004A
S1132EB037003800430037004500410031007D00F1
S1132EC0000068000000070000000C0049006300D7
S1132ED06F006E00730000004E00000025005300D8
S1132EE079007300740065006D0052006F006F007C
S1132EF0740025005C0073007900730074006500A1
S1132F006D00330032005C007300680065006C00E3
S1132F106C00330032002E0064006C006C002C0046
S1132F202D003200330033000000280000000001AF
S1132F3004000100000000000000000157494E5544
S1132F4053420000000000000000000000000000E8
S1132F50000012034D0053004600540031003000BD
S1132F603000300000000000000000008D2100004F
S1132F709D21000000000000000000008B210000E3
S1132F808F21000012010002FFFFFF40D0162743EB
S1132F900001010203010902200001010480FA0971
S1132FA004000002FFFFFF050705010240000107BE
S1132FB00582024000010000D02F0000D42F000041
S1132FC00A300000FD2F0000E72F0000D82F00007A
S1132FD00403090C70676F0042756C6B20496E74B2
S1132FE06572666163650044656661756C7420632F
S1132FF06F6E66696775726174696F6E004B696E96
S113300065746973426F6F742D004B696E657469E2
S11330107320426F6F746C6F6164657200556E6BE0
S11330206E6F776E206572726F7200006C300000F4
S113303075300000833000008D30000097300000B0
S1133040A9300000C1300000DD300000F430000081
S11330501A3100002F310000423100005F310000BE
S11330607631000092310000AD3100004E6F2065D2
S113307072726F720047656E6572616C2065727260
S11330806F7200546F6F20736D616C6C00546F6FBE
S1133090206C6172676500496C6C6567616C2070B7
S11330A06172616D657465720043616C6C2D62615F
S11330B0636B206E6F7420696E7374616C6C6564ED
S11330C000466C61736820696E697469616C697328
S11330D06174696F6E206661696C65640041444384
S11330E02043616C6962726174696F6E2066616904
S11330F06C656400496C6C6567616C2070726F6309
S11331006573736F722072756E2D6D6F64652074B4
S113311072616E736974696F6E004661696C65648F
S113312020636F6D6D756E69636174696F6E0049BC
S11331303243204E6F2061636B6E6F776C656467FA
S11331406500493243204C6F737420617262697464
S1133150726174696F6E20666F72206275730050BD
S1133160726F6772616D20686173207465726D6936
S11331706E6174656400436C6F636B20696E69747F
S113318069616C69736174696F6E206661696C65ED
S1133190640043616C6C6261636B20616C72656195
S11331A0647920696E7374616C6C6564004661694E
S11331B06C6564207265736F7572636520616C6CF5
S11331C06F636174696F6E008CE0FF1FF8B500BF18
S11331D0F8BC08BC9E467047F8B500BFF8BC08BCF4
S11331E09E4670473504000061090000290E000066
S11331F01D1C000035240000110400000000000024
S113320050D2FF7F010000000000000000127A008D
S113321000093D00310F0000310F0000310F0000A4
S1133220310F0000850E0000810E0000F50E000035
S11332308CE0FF1F00000000000000000000000000
S1133240000000000000000000000000000000007A
S1133250000000000000000000000000000000006A
S1133260000000000000000000000000000000005A
S1133270000000000000000000000000000000004A
S1133280000000000000000000000000000000003A
S113329000000000FFFFFFFFFFFFFFFFFFFFFFFF36
S113400000200020C5440000195D0000355D00005B
S1134010195D0000195D0000195D0000000000003A
S1134020000000000000000000000000195D000016
S1134030195D000000000000195D0000195D00001A
S1134040195D0000195D0000195D0000195D000094
S1134050195D0000195D0000195D0000195D000084
S1134060195D0000495D0000195D0000195D000044
S1134070195D0000195D0000195D0000195D000064
S1134080195D0000195D0000195D0000195D000054
S1134090195D0000195D0000195E0000195D000043
S11340A0195D0000555D0000195D0000195D0000F8
S11340B0195D0000195D0000A15E0000B55D0000FF
S11340C0D15E0000055F0000195D00005568000026
S11340D0195D0000195D0000195D0000195D000004
S11340E0195D0000195D0000195D0000195D0000F4
S11340F0195D0000195D00000000000000000000D0
S113410000000000000000000000000000000000AB
S1134110000000000000000000000000000000009B
S1134120000000000000000000000000000000008B
S1134130000000000000000000000000000000007B
S11344000001020304050607FFFFFFFFFEF9FFFF9B
S113441010B5054C237833B9044B13B10448AFF3FA
S113442000800123237010BD18E1FF1F000000006D
S11344304CE0000008B5034B1BB103490348AFF33C
S1134440008008BD000000001CE1FF1F4CE00000DC
S1134450154B002B08BF134B9D46A3F5803A002152
S11344608B460F461348144A121A05F081F80F4B75
S1134470002B00D098470E4B002B00D0984700200B
S1134480002104000D000D48002802D00C48AFF3B1
S1134490008005F033F82000290003F079FB05F0D3
S11344A019F800BF000008000020002000000000F0
S11344B0835C000018E1FF1F3CEAFF1F00000000BE
S11344C00000000001F0DEFB0A490B4A0B4B9A4244
S11344D0BEBF51F8040B42F8040BF8E70849094A37
S11344E000209142BCBF41F8040BFAE701F0C9FB7C
S11344F0FFF7AEFF58E0000060E0FF1F18E1FF1F68
S113450018E1FF1F3CEAFF1F81F0004102E000BFF9
S113451083F0004330B54FEA41044FEA430594EA7F
S1134520050F08BF90EA020F1FBF54EA000C55EABA
S1134530020C7FEA645C7FEA655C00F0E2804FEA8B
S11345405454D4EB5555B8BF6D420CDD2C4480EA6D
S1134550020281EA030382EA000083EA010180EA9D
S1134560020281EA0303362D88BF30BD11F0004FEB
S11345704FEA01314FF4801C4CEA113102D0404221
S113458061EB410113F0004F4FEA03334CEA13335C
S113459002D0524263EB430394EA050F00F0A78074
S11345A0A4F10104D5F1200E0DDB02FA0EFC22FA6F
S11345B005F2801841F1000103FA0EF2801843FA63
S11345C005F359410EE0A5F120050EF1200E012A54
S11345D003FA0EFC28BF4CF0020C43FA05F3C01892
S11345E051EBE37101F0004507D54FF0000EDCF10B
S11345F0000C7EEB00006EEB0101B1F5801F1BD3B4
S1134600B1F5001F0CD349085FEA30004FEA3C0CB7
S113461004F101044FEA445212F5800F80F09A80AD
S1134620BCF1004F08BF5FEA500C50F1000041EBB1
S1134630045141EA050130BD5FEA4C0C404141EBB5
S1134640010111F4801FA4F10104E9D191F0000FDC
S113465004BF01460020B1FA81F308BF2033A3F15F
S11346600B03B3F120020CDA0C3208DD02F1140C56
S1134670C2F10C0201FA0CF021FA02F10CE002F191
S11346801402D8BFC2F1200C01FA02F120FA0CFC8A
S1134690DCBF41EA0C019040E41AA2BF01EB0451D3
S11346A0294330BD6FEA04041F3C1CDA0C340EDCD1
S11346B004F11404C4F1200220FA04F001FA02F314
S11346C040EA030021FA04F345EA030130BDC4F1D2
S11346D00C04C4F1200220FA02F001FA04F340EAC7
S11346E00300294630BD21FA04F0294630BD94F078
S11346F0000F83F4801306BF81F480110134013D5F
S11347004EE77FEA645C18BF7FEA655C29D094EACF
S1134710050F08BF90EA020F05D054EA000C04BF4D
S11347201946104630BD91EA030F1EBF0021002038
S113473030BD5FEA545C05D14000494128BF41F0D7
S1134740004130BD14F580043CBF01F5801130BD3B
S113475001F0004545F0FE4141F470014FF00000C6
S113476030BD7FEA645C1ABF194610467FEA655C77
S11347701CBF0B46024650EA013406BF52EA033519
S113478091EA030F41F4002130BD00BF90F0000F07
S113479004BF0021704730B54FF4806404F1320443
S11347A04FF000054FF0000150E700BF90F0000FFC
S11347B004BF0021704730B54FF4806404F1320423
S11347C010F0004548BF40424FF000013EE700BFF3
S11347D042004FEAE2014FEA31014FEA02701FBF83
S11347E012F07F4393F07F4F81F06051704732F0B5
S11347F07F4208BF704793F07F4F04BF41F400210C
S1134800704730B54FF4607401F0004521F0004169
S11348101CE700BF50EA010208BF704730B54FF0F3
S113482000050AE050EA010208BF704730B511F0F4
S1134830004502D5404261EB41014FF4806404F12C
S113484032045FEA915C3FF4D8AE4FF003025FEAB2
S1134850DC0C18BF03325FEADC0C18BF033202EB36
S1134860DC02C2F1200300FA03FC20FA02F001FA90
S113487003FE40EA0E0021FA02F11444BDE600BF33
S113488070B54FF0FF0C4CF4E06C1CEA11541DBFE2
S11348901CEA135594EA0C0F95EA0C0F00F0DEF8AD
S11348A02C4481EA030621EA4C5123EA4C5350EA92
S11348B0013518BF52EA033541F4801143F48013E3
S11348C038D0A0FB02CE4FF00005E1FB02E506F074
S11348D00042E0FB03E54FF00006E1FB03569CF0C9
S11348E0000F18BF4EF0010EA4F1FF04B6F5007FCF
S11348F064F5407404D25FEA4E0E6D4146EB060641
S113490042EAC62141EA55514FEAC52040EA5E50C9
S11349104FEACE2EB4F1FD0C88BFBCF5E06F1ED873
S1134920BEF1004F08BF5FEA500E50F1000041EBAA
S1134930045170BD06F0004646EA010140EA020057
S113494081EA0301B4EB5C04C2BFD4EB0C0541EA79
S1134950045170BD41F480114FF0000E013C00F38E
S1134960AB8014F1360FDEBF002001F0004170BDB2
S1134970C4F10004203C35DA0C341BDC04F11404CB
S1134980C4F1200500FA05F320FA04F001FA05F257
S113499040EA020001F0004221F0004110EBD37024
S11349A021FA04F642EB06015EEA430E08BF20EA50
S11349B0D37070BDC4F10C04C4F1200500FA04F3F3
S11349C020FA05F001FA04F240EA020001F0004185
S11349D010EBD37041F100015EEA430E08BF20EAF8
S11349E0D37070BDC4F1200500FA05F24EEA020E40
S11349F020FA04F301FA05F243EA020321FA04F06F
S1134A0001F0004121FA04F220EA020000EBD37025
S1134A105EEA430E08BF20EAD37070BD94F0000F25
S1134A200FD101F00046400041EB010111F4801F59
S1134A3008BF013CF7D041EA060195F0000F18BF0A
S1134A40704703F00046520043EB030313F4801F46
S1134A5008BF013DF7D043EA0603704794EA0C0F00
S1134A600CEA135518BF95EA0C0F0CD050EA410616
S1134A7018BF52EA4306D1D181EA030101F0004193
S1134A804FF0000070BD50EA410606BF10461946BB
S1134A9052EA430619D094EA0C0F02D150EA0136C7
S1134AA013D195EA0C0F05D152EA03361CBF104608
S1134AB019460AD181EA030101F0004141F0FE41A7
S1134AC041F470014FF0000070BD41F0FE4141F42B
S1134AD0780170BD70B54FF0FF0C4CF4E06C1CEA2B
S1134AE011541DBF1CEA135594EA0C0F95EA0C0FE0
S1134AF000F0A7F8A4EB050481EA030E52EA03359B
S1134B004FEA013100F088804FEA03334FF08055BB
S1134B1045EA131343EA12634FEA022245EA1115E8
S1134B2045EA10654FEA00260EF000419D4208BF99
S1134B30964244F1FD0404F5407402D25B084FEA46
S1134B403202B61A65EB03055B084FEA32024FF4F2
S1134B5080104FF4002CB6EB020E75EB030E22BF4F
S1134B60B61A754640EA0C005B084FEA3202B6EB0F
S1134B70020E75EB030E22BFB61A754640EA5C00BE
S1134B805B084FEA3202B6EB020E75EB030E22BF4E
S1134B90B61A754640EA9C005B084FEA3202B6EB4F
S1134BA0020E75EB030E22BFB61A754640EADC000E
S1134BB055EA060E18D04FEA051545EA16754FEA70
S1134BC006164FEAC30343EA52734FEAC2025FEA8E
S1134BD01C1CC0D111F4801F0BD141EA00014FF01D
S1134BE000004FF0004CB6E711F4801F04BF0143EE
S1134BF00020B4F1FD0C88BFBCF5E06F3FF6AFAE0A
S1134C00B5EB030C04BFB6EB020C5FEA500C50F199
S1134C10000041EB045170BD0EF0004E4EEA11311C
S1134C2014EB5C04C2BFD4EB0C0541EA045170BD23
S1134C3041F480114FF0000E013C90E645EA060E67
S1134C408DE60CEA135594EA0C0F08BF95EA0C0F95
S1134C503FF43BAF94EA0C0F0AD150EA01347FF4DD
S1134C6034AF95EA0C0F7FF425AF104619462CE7B4
S1134C7095EA0C0F06D152EA03353FF4FDAE104617
S1134C80194622E750EA410618BF52EA43067FF468
S1134C90C5AE50EA41047FF40DAF52EA43057FF4F8
S1134CA0EBAE12E74A0011D212F5001211D20DD563
S1134CB06FF47873B3EB62520ED44FEAC12343F01E
S1134CC0004343EA505323FA02F070474FF00000C8
S1134CD0704750EA013002D14FF0FF3070474FF077
S1134CE0000070474FEA4102B2F1E04324BFB3F53C
S1134CF0001CDCF1FE5C0DD901F0004C4FEAC0024F
S1134D004CEA5070B2F1004F40EB830008BF20F032
S1134D100100704711F0804F21D113F13872BCBFEC
S1134D2001F00040704741F480114FEA5252C2F141
S1134D301802C2F1200C10FA0CF320FA02F018BF8A
S1134D4040F001004FEAC1234FEAD32303FA0CFCDD
S1134D5040EA0C0023FA02F34FEA4303CCE77FEA6C
S1134D60625307D150EA01331EBF4FF0FE4040F4B6
S1134D704000704701F0004040F0FE4040F4000065
S1134D80704700BF80F0004002E000BF81F00041A6
S1134D9042001FBF5FEA410392EA030F7FEA226CDD
S1134DA07FEA236C6AD04FEA1262D2EB1363C1BF6D
S1134DB0D218414048404140B8BF5B42192B88BFDC
S1134DC0704710F0004F40F4000020F07F4018BFFF
S1134DD0404211F0004F41F4000121F07F4118BF1F
S1134DE0494292EA030F3FD0A2F1010241FA03FCC7
S1134DF010EB0C00C3F1200301FA03F100F00043AF
S1134E0002D5494260EB4000B0F5000F13D3B0F176
S1134E10807F06D340084FEA310102F10102FE2AE5
S1134E2051D2B1F1004F40EBC25008BF20F0010055
S1134E3040EA03007047490040EB000010F4000F03
S1134E40A2F10102EDD1B0FA80FCACF1080CB2EB96
S1134E500C0200FA0CF0AABF00EBC25052421843F5
S1134E60BCBFD0401843704792F0000F81F400019A
S1134E7006BF80F400000132013BB5E74FEA41036D
S1134E807FEA226C18BF7FEA236C21D092EA030FD9
S1134E9004D092F0000F08BF0846704790EA010F53
S1134EA01CBF0020704712F07F4F04D1400028BF80
S1134EB040F00040704712F100723CBF00F5000062
S1134EC0704700F0004343F0FE4040F40000704798
S1134ED07FEA226216BF08467FEA23630146420244
S1134EE006BF5FEA412390EA010F40F48000704757
S1134EF04FF0000304E000BF10F0004348BF4042FD
S1134F005FEA000C08BF704743F0964301464FF038
S1134F1000001CE050EA010208BF70474FF0000394
S1134F200AE000BF50EA010208BF704711F00043D5
S1134F3002D5404261EB41015FEA010C02BF8446A5
S1134F400146002043F0B64308BFA3F18053A3F504
S1134F500003BCFA8CF2083AA3EBC25310DB01FA4B
S1134F6002FC634400FA02FCC2F12002BCF1004FCF
S1134F7020FA02F243EB020008BF20F00100704760
S1134F8002F1200201FA02FCC2F1200250EA4C00B4
S1134F9021FA02F243EB020008BF20EADC707047FA
S1134FA04FF0FF0C1CEAD0521EBF1CEAD15392EA08
S1134FB00C0F93EA0C0F6FD01A4480EA010C4002E4
S1134FC018BF5FEA41211ED04FF0006343EA50103E
S1134FD043EA5111A0FB01310CF00040B1F5000F80
S1134FE03EBF490041EAD3715B0040EA010062F12F
S1134FF07F02FD2A1DD8B3F1004F40EBC25008BF19
S113500020F00100704790F0000F0CF0004C08BF36
S113501049024CEA502040EA51207F3AC2BFD2F103
S1135020FF0340EAC250704740F400004FF0000311
S1135030013A5DDC12F1190FDCBF00F0004070474B
S1135040C2F10002410021FA02F1C2F1200200FA89
S113505002FC5FEA310040F1000053EA4C0308BF50
S113506020EADC70704792F0000F00F0004C02BFA1
S1135070400010F4000F013AF9D040EA0C0093F01C
S1135080000F01F0004C02BF490011F4000F013B76
S1135090F9D041EA0C018FE70CEAD15392EA0C0FE4
S11350A018BF93EA0C0F0AD030F0004C18BF31F04F
S11350B0004CD8D180EA010000F00040704790F025
S11350C0000F17BF90F0004F084691F0000F91F0C9
S11350D0004F14D092EA0C0F01D142020FD193EA8F
S11350E00C0F03D14B0218BF084608D180EA010017
S11350F000F0004040F0FE4040F40000704740F0F3
S1135100FE4040F4400070474FF0FF0C1CEAD052C0
S11351101EBF1CEAD15392EA0C0F93EA0C0F69D01C
S1135120A2EB030280EA010C49024FEA402037D087
S11351304FF0805343EA111143EA10130CF000407E
S11351408B4238BF5B0042F17D024FF4000C8B426E
S113515024BF5B1A40EA0C00B3EB510F24BFA3EB4E
S1135160510340EA5C00B3EB910F24BFA3EB91031E
S113517040EA9C00B3EBD10F24BFA3EBD10340EA78
S1135180DC001B0118BF5FEA1C1CE0D1FD2A3FF6BE
S113519050AF8B4240EBC25008BF20F00100704773
S11351A00CF0004C4CEA50207F32C2BFD2F1FF0316
S11351B040EAC250704740F400004FF00003013A47
S11351C037E792F0000F00F0004C02BF400010F4EB
S11351D0000F013AF9D040EA0C0093F0000F01F0FF
S11351E0004C02BF490011F4000F013BF9D041EA21
S11351F00C0195E70CEAD15392EA0C0F08D1420254
S11352007FF47DAF93EA0C0F7FF470AF084676E726
S113521093EA0C0F04D14B023FF44CAF08466EE7FF
S113522030F0004C18BF31F0004CCAD130F00042CD
S11352307FF45CAF31F000437FF43CAF5FE700BF25
S11352404FF0FF3C06E000BF4FF0010C02E000BF4E
S11352504FF0010C4DF804CD4FEA40024FEA4103F0
S11352607FEA226C18BF7FEA236C11D001B052EAA6
S1135270530C18BF90EA010F58BFB2EB030088BF6C
S1135280C81738BF6FEAE17018BF40F001007047DB
S11352907FEA226C02D15FEA402C05D17FEA236CBD
S11352A0E4D15FEA412CE1D05DF8040B704700BF04
S11352B0844608466146FFE70FB5FFF7C9FF00289B
S11352C048BF10F1000F0FBD4DF808EDFFF7F4FFD4
S11352D00CBF012000205DF808FB00BF4DF808ED6D
S11352E0FFF7EAFF34BF012000205DF808FB00BF90
S11352F04DF808EDFFF7E0FF94BF012000205DF8B2
S113530008FB00BF4DF808EDFFF7D2FF94BF012062
S113531000205DF808FB00BF4DF808EDFFF7C8FF5B
S113532034BF012000205DF808FB00BF4FEA4002B3
S1135330B2F1FE4F0FD34FF09E03B3EB12620DD9BF
S11353404FEA002343F0004310F0004F23FA02F029
S113535018BF404270474FF00000704712F1610FD0
S113536001D1420205D110F0004008BF6FF00040A7
S113537070474FF00000704742000ED2B2F1FE4F6A
S11353800BD34FF09E03B3EB126209D44FEA002310
S113539043F0004323FA02F070474FF000007047D7
S11353A012F1610F01D1420202D14FF0FF30704778
S11353B04FF00000704700BF53B94AB9002908BF35
S11353C000281CBF4FF0FF314FF0FF3000F074B9DC
S11353D0ADF1080C6DE904CE00F006F8DDF804E048
S11353E0DDE9022304B070472DE9F047089E044626
S11353F08846002B40F085808A42154648D9B2FA87
S113540082F24AB1C2F1200701FA02F320FA07F747
S1135410954047EA030894404FEA154E230CB8FB25
S1135420FEF71FFA85FC0EFB178843EA084307FBC7
S11354300CF1994209D9EB1807F1FF3080F0E380B1
S1135440994240F2E080023F2B445B1AA4B2B3FBC2
S1135450FEF00EFB103344EA034400FB0CFCA445AD
S113546009D92C1900F1FF3380F0CB80A44540F218
S1135470C88002382C4440EA0740A4EB0C040027FF
S11354801EB1D4400023C6E900433946BDE8F08785
S1135490002A53D0B2FA82F2002A40F0B680491BA7
S11354A04FEA154E1FFA85F80127B1FBFEFC230CC9
S11354B00EFB1C1143EA014308FB0CF1994207D986
S11354C0EB180CF1FF3002D2994200F2EC808446D2
S11354D0591AA3B2B1FBFEF00EFB101443EA0444C4
S11354E008FB00F8A04507D92C1900F1FF3302D2BC
S11354F0A04500F2DC801846A4EB080440EA0C4006
S1135500BEE78B4208D9002E78D00027C6E90001F7
S113551038463946BDE8F087B3FA83F77FB98B4242
S113552002D3824200F2BD80841A61EB030301209E
S11355309846002EA9D0C6E90048A6E7FFDEC7F1C9
S11355402005BB4022FA05FC4CEA030C01FA07F4DF
S113555020FA05F821FA05F34FEA1C4E48EA040440
S1135560B3FBFEF9210C0EFB19331FFA8CF841EA48
S1135570034309FB08FA9A4502FA07F200FA07F115
S11355800BD91CEB030309F1FF3080F088809A45A6
S113559040F28580A9F102096344A3EB0A03A4B293
S11355A0B3FBFEF00EFB103344EA034400FB08F89F
S11355B0A04508D91CEB040400F1FF336BD2A045CD
S11355C069D90238644440EA0940A4EB0804A0FB0A
S11355D002894C45C6464B4654D351D0002E69D05F
S11355E0B1EB0E0264EB030404FA05F522FA07F3A7
S11355F0FC401D43C6E90054002746E737463046C1
S113560043E7184637E707461FE7C2F1200320FAAD
S113561003F7954001FA02F021FA03F34FEA154E1D
S11356203843010CB3FBFEF71FFA85F80EFB173362
S113563041EA034107FB08F38B4204FA02F407D959
S1135640691807F1FF3C28D28B4226D9023F29442E
S1135650CB1A81B2B3FBFEF00EFB103341EA0341D7
S113566000FB08F38B4207D9691800F1FF3C10D204
S11356708B420ED902382944C91A40EA074714E775
S11356804145ABD2B8EB020E69EB0C02013813466C
S1135690A4E76046F0E7184695E76746D8E78146F1
S11356A07BE7384645E7ACF1020C2B4410E702389F
S11356B02C4421E73746E8E6704700BF4369187970
S11356C0C0F34010704738B5044663691D79EDB2E4
S11356D02A0703D0236820461B6A9847AB06F4D5F3
S11356E06369D87938BD426913795B06FCD5704784
S11356F04369DB794FF6FF73438270477047436910
S1135700DB79704710B51821044603F035FE2046B6
S113571010BD03681B69184708B543691A79120656
S113572001D400BFF9E70A29D97102D10D21FFF78D
S1135730F0FF08BD38B504464D1E15F8011F20467C
S113574011B1FFF7E6FFF8E738BD10B50446FFF7DF
S1135750F1FF20460A21FFF7DCFF204610BD10B5FB
S113576043690024D878DC701C78520004F0E0040B
S1135770B2FBF1F1C1F3443222431A70C1F3471270
S11357805A709A7A01F01F0102F0E002C0B211438C
S11357909972D87010BD000008B5024B1A68FFF763
S11357A0DEFF08BD68E0FF1F10B50B4C4FF4E1317C
S11357B02046FFF7F1FF094941F2380201236372E1
S11357C08B5843F400738B50BFF35F8F044B054A2F
S11357D0C3F8802010BD00BF34E1FF1F00700440F7
S11357E0009004400002060010B5184C18484FF40D
S11357F07A724FF48573C4E9012300230322A38141
S1135800A2732374134A626141F234014FF6FF73A9
S11358106382435843F4806343500C23D3700E4B8C
S1135820802283F80F23204683F810234FF4E131BC
S113583083F81123094B2360FFF7AEFF2046084A83
S11358400849BDE8104003F092BD00BF34E1FF1FDA
S11358500070044000A0064000E100E04096000013
S113586060E0FF1FFD560000064B1B7BDB0707D5DE
S1135870054B186910F4807018BF4FF4004070474E
S1135880024870470040064000D003400024F40062
S1135890F8B5FFF7E9FF4B4A137813F0040F4A4BAE
S11358A056D11178C1F3C20120FA01F1196051787F
S11358B011F0300F0CD0117BC90709D4117801F015
S11358C0380130293AD11A681421B2FBF1F21A6076
S11358D03C4A3E4ED178D3F800C0D3783C4C11F00A
S11358E0800F517901F01F0101F118014FF00A05F1
S11358F0B0FBF5F000FB01F0117901F01F0101F19B
S11359000101B0FBF1F0334905FB00F54FF0000055
S113591030600860927902F00C0214BF4FF43777BC
S11359204FF42077DBB20C2A1DD8DFE802F0141CF8
S11359301C1C361C1C1C441C1C1C4800127802F045
S11359403802382A1A6801D10C21BEE75209BEE791
S11359504FF40042BBE7C3F3411303FB0CCC07FB3A
S11359600CF727600F60174B1B481B7941F2440169
S11359705B0648BF3560226843581B0F0133B2FBF6
S1135980F3F3164A136022684358C3F303630133E5
S1135990B2FBF3F3124A1360F8BD0A4B5A78D207EC
S11359A043BF1B7AC3F342020E4B4FF4004348BF7C
S11359B0D3402360D7E7FFF757FF2060D3E7256084
S11359C03560D0E7004006404CE1FF1F58E1FF1F5F
S11359D054E1FF1F50E1FF1F0070044068E0FF1F07
S11359E064E0FF1F00093D00F8B55B4A5B4990F98C
S11359F0085041F244030446D150594BC27B1A73F8
S1135A00827B1A72574800225A7390F900305F1C47
S1135A101EBF03EBC303544AD2566E1C00F08880A9
S1135A204F4B514F0726511C08291ED8DFE801F0BF
S1135A30070728377B4E715D6E000A46F3E7E17B6A
S1135A401973A17A5970617A41F004011970D978F7
S1135A5094F80BC001F01F0141EA0C01D97000BF9A
S1135A60997901F01C011029F9D107EBC201013E1B
S1135A70027049575AD13D4B0D221A601868F8BD7F
S1135A80617A197000BF997911F01C0FFAD1A17ACB
S1135A904907EAD500BF99798907FBD5E5E7E17B9A
S1135AA01973A17A5970617A41F044011970D97857
S1135AB094F80BC001F01F0141EA0C01D97000BF3A
S1135AC0997901F01C011429F9D1CEE7A17A597012
S1135AD0617A41F080011970617B597100BF997935
S1135AE001F01C010829F9D1D1E7A17A5970217B71
S1135AF01971617B41F040015971617A41F0800173
S1135B00197099798906C2D400BFFAE7617A1970CD
S1135B10BDE74FF0010CA17A41F002015970BCF1CC
S1135B20000FA2D0B3E74FF0000CF4E7AA4284D1EF
S1135B30094A216841F24403D15041F204016068EA
S1135B40535823F4803303435350FFF7A1FE044B0F
S1135B50227C5A73002092E700700440000005552F
S1135B60004006405CE1FF1FA09600001CE6FF1FFA
S1135B7008B5144B1448FF221A70FFF735FF134B76
S1135B8041F234015A5822F480225A504FF4002230
S1135B901A6041F204020E49995041F20C010022AC
S1135BA05A5041F210015A5041F218015A5041F230
S1135BB0480202219950074B40225A60BDE8084030
S1135BC0FFF766BE5CE1FF1F6496000000700440AE
S1135BD05000050000E100E041F23C0212498B58FC
S1135BE043F000538B50114B5A69D20717D5012249
S1135BF01A6100221A614FF410621A610C4A00BF44
S1135C00013AFCD1094B0B49196010215961DA6042
S1135C1078229A61FF22C3F80028C3F80428034BB2
S1135C204FF410621A6170470070044000D00340C2
S1135C30A0860100C0F5195D08B50C4941F238028F
S1135C408B5843F400738B50BFF35F8F084B4FF4B2
S1135C504022C3F8842003F5E03382221A70FFF750
S1135C60BBFFBDE80840FFF783BF00BF00700440DE
S1135C700090044000BEFDE708B5012003F02AFCB3
S1135C8070477047094B0A4A9A605A6942F01002F9
S1135C905A61084B4CF22052DA814DF62812DA810F
S1135CA0BFF34F8F10221A80704700BF00ED00E051
S1135CB0004000000020054008B5064A937843F0F0
S1135CC008039370FFF7B8FFFFF76EFDFFF7D8FFE7
S1135CD008BD00BF00D00740704770474369836127
S1135CE070474FF6FF7343827047002070474FF0B0
S1135CF0FF30704783691970D0E90523C1690A44EC
S1135D0093423CBF01338361836900221A70704758
S1135D1005207047052070476846054B20F00701B1
S1135D205B688D4682B0C3F30803019300BEFDE7B0
S1135D3000ED00E01EF0040F0CBFEFF30880EFF35A
S1135D400980714600F06EBA014B1B68184700BF0A
S1135D507CE0FF1F134B5A6D110610B509D55A6F1D
S1135D60120606D55A6F22F080025A670E4B1B6842
S1135D7098470C4C236803F0C003C02B06D123685A
S1135D8023F080032360094B1B689847206D38B1CA
S1135D90C3432365064BC0B21B68BDE810401847D7
S1135DA010BD00BF0080034090E0FF1F94E0FF1F80
S1135DB0B8E1FF1F084B0122C3F81C21074A53789E
S1135DC033B107498B6823F001038B6000235370C0
S1135DD0044B5B68184700BF007003405DE1FF1F80
S1135DE0107103406CE0FF1F00207047704710B52E
S1135DF02821044603F0C0FA204610BD10B528211E
S1135E00044603F0B9FA204610BD10B5202104461B
S1135E1003F0B2FA204610BD10B50C4B1A681106F7
S1135E2006D5186919680A4B01F01F011B689847C9
S1135E30064B5A68120608D558695968044B01F094
S1135E401F011B68BDE81040184710BD00B0034097
S1135E508CE0FF1F034B05221A6018680028FCD150
S1135E601B6870471CE6FF1F034B05221A601A6863
S1135E70002AFCD1186870471CE6FF1F034B05225B
S1135E801A601A68002AFCD1186870471CE6FF1FC4
S1135E90FFF7F4BFFFF7F2BFFFF7F0BFFFF7EEBF66
S1135EA0084B09490122C3F80C210A783AB1D3F806
S1135EB0082122F00102C3F8082100230B70034BD0
S1135EC01B681847007003405DE1FF1F6CE0FF1F73
S1135ED0084B0122C3F82C21074A937833B10749B0
S1135EE08B6823F001038B6000239370044B9B6841
S1135EF0184700BF007003405DE1FF1F207103409D
S1135F006CE0FF1F084B0122C3F83C21074AD378F9
S1135F1033B107498B6823F001038B600023D370EE
S1135F20044BDB68184700BF007003405DE1FF1FAE
S1135F30307103406CE0FF1F2DE9F041069E9DF88F
S1135F401C70DFF8A08005460446B1FBF2FC02FB9E
S1135F501C1E204618F80EE000F801EB8A420CD90A
S1135F60012B1CD063B1022B0ED1711E3022441BB5
S1135F708C421FDA00F8012BF9E761460446E4E796
S1135F8017B12D220270A01C421E29468A421CD938
S1135F900C78177801F8017B02F80149F6E717B18C
S1135FA02D220270A01C2022411BB142ECDA00F821
S1135FB0012BF9E717B12D2200F8012B421BB24245
S1135FC0BCBF302200F8012BDEE7032B06D12023CF
S1135FD0421BB24202DA00F8013BF9E700230370E6
S1135FE0BDE8F0813297000010B58CB00023019316
S1135FF0C37A0093837A044603A8FFF79DFF03A99D
S11360002046FFF797FB0CB010BD0000002343713E
S1136010C3608371D0E90721C371037243720382A1
S11360204382054B4361054B03EB41135A60DA602D
S11360305A61DA61704700BF555E000000E0FF1F3F
S113604005230372026A836903EB820393F8C02079
S113605042F0020283F8C0207047026A836903EBAE
S1136060820393F8C02002F0FD0283F8C0200023CD
S11360700372437170470000036A81791A4A70B54C
S11360805B01C1B118331A441378DB0900D000BE98
S1136090038A818C9BB299420FD301D900214172AA
S11360A0C5687DB1C66900218B4208D06C5CE4B23E
S11360B074540131F8E71033E5E70B46F0E7C168A3
S11360C01944C160418A194489B24182018AC91ABA
S11360D089B2DBB201825380437913B1C8231370B0
S11360E070BD8823FBE700BF00E0FF1F036AC1798E
S11360F05A01064B01B108321344828C5A8042790A
S113610012B1C8221A7070478822FBE700E0FF1F13
S1136110437983F0010370B54371057AEDB2022D22
S1136120044605D0042D4FF0000344D003722AE046
S1136130036AC179264A5B0101B9083313445D88B7
S113614015F0FF0516D0238AE0689D42C4BF258A56
S1136150EDB230B12A46E16903F0FCF9E3682B445F
S1136160E360628AA9B20A4492B26282238A5B1A09
S11361709BB22382A38C9D4206DB238A9BB21BB174
S11361802046FFF7B3FF70BD25797DB901230326AF
S11361906371E5606582204625822672FFF76CFFF5
S11361A06571E560658225822672E9E763690220EC
S11361B098472072E7E74371C36043820382037206
S11361C0FFF794FF63692846BDE87040184700BF95
S11361D000E0FF1F38B50E4C0E4D2046FFF716FFAA
S11361E0A369092283F8C420236A45F823400A4B93
S11361F063610A4C2046FFF709FFA369052283F86F
S1136200C820236A45F82340054B636138BD00BFAD
S1136210F4E5FF1F38E5FF1F85820000CCE5FF1F72
S11362208982000000BEFDE710B5002160221148FC
S1136230114C03F09DF9114B032283F894200122A1
S113624083F89420226A0E4B204643F82240FFF73D
S1136250DDFEA3690D2283F8C0200A4B636120464A
S113626000236371E360638223822372FFF73EFF9E
S113627010BD00BF00E0FF1FC0E1FF1F002007406A
S113628038E5FF1FE95D0000014B1B68184700BF9C
S113629084E0FF1F08B5044B04481B68984710B1FD
S11362A00348FFF7CDFE08BD88E0FF1F61E1FF1F33
S11362B0C0E1FF1F08B50C4BDA88904288BFD8882C
S11362C0DA880A4B88BFC0B290422CBF0022012258
S11362D05A7200225A8201221882D9601A72184610
S11362E0FFF7CAFE08BD00BF61E1FF1FC0E1FF1F49
S11362F0134A08B51378812B1BD0822B04D0802B32
S11363001AD104200F4911E09388DBB25A0713D441
S113631003F0070330330C4A0C4912F8233013F00E
S1136320020F0B4B4FF0040008BF1946FFF7C2FFE2
S113633008BD02200749F9E70748FFF781FEF7E7A0
S113634061E1FF1F6CE1FF1F002007402C97000054
S11363502897000030970000C0E1FF1F70B539494D
S11363600A784B88802A8CB004D03748FFF768FE3F
S11363700CB070BD4A88120A022A06D0032A0ED035
S1136380012AF2D1314C122005E04B8813F0FF0FA3
S1136390EBD12F4C20202146FFF78CFFE8E7DBB23E
S11363A0EE2B02D12B4C2078F5E7052BDDD813B961
S11363B0294B1C68F7E7032B234E3CD1274A41F2B3
S11363C054010025545841F25801505841F25C01DF
S11363D04440515802F583524C4012688DF81E30E7
S11363E054404FF6FF72ADF822201D4A04920F224A
S11363F00B921C4A8DF820504FF47A71CDE90512A6
S113640004A81949CDF824D0CDF828D08DF800502F
S1136410ADF81C50FFF78EF910222146FFF7E4FD7A
S1136420036829461B699847F46940226946204657
S113643001F078FEB7E70849F46951F823104022C7
S1136440F5E700BF61E1FF1FC0E1FF1FFCDC0000B6
S11364500EDD0000CADC000030DD000000700440E6
S1136460F89600000A0102064397000008B50122CD
S1136470427100224282C260028203220272FFF74A
S1136480FBFD08BD134A08B513782BB1022B12D0BB
S11364901148FFF7D5FD0DE05388012BF8D1928800
S11364A0002AF5D10D490B7862F341030B700A48B9
S11364B0FFF7DCFF08BD93885288002AE8D103F077
S11364C00703022BE4D8064A52F82300FFF7C5FD60
S11364D0EDE700BF61E1FF1FC0E1FF1F6CE1FF1F9B
S11364E038E5FF1F134A08B513782BB1022B12D0DD
S11364F01148FFF7A5FD0DE05388012BF8D19388CF
S1136500002BF5D10D4A137843F0020313700A48A7
S1136510FFF7ACFF08BD93885288002AE8D103F046
S11365200703022BE4D8064A52F82300FFF788FD3C
S1136530EDE700BF61E1FF1FC0E1FF1F6CE1FF1F3A
S113654038E5FF1F0E4B1A78012A10B505D1DA88F9
S11365501AB90C4A1278042A03D00B48FFF770FDCD
S113656010BD5B88002BF8D1084C6068FFF775FDFF
S1136570A068FFF772FD0448FFF778FFF0E700BF5B
S113658061E1FF1F71E1FF1FC0E1FF1F38E5FF1F3D
S113659010B50849084A094B28B902240C7082F83E
S11365A09800187010BD03240C7082F89800002223
S11365B01A70F7E771E1FF1F0020074070E1FF1F29
S11365C008B5044B1878FFF7E3FF034B034A5A61FD
S11365D0002008BDEDE1FF1FC0E1FF1FE95D0000E1
S11365E008B5044B1878FFF7D3FF034B034A5A61ED
S11365F0002008BDEDE1FF1FC0E1FF1FE95D0000C1
S113660008B5124B1A783AB95A8812F0FF0F07D01E
S11366105A88D2B2012A03D00D48FFF711FD08BDF4
S11366205B8813F0FF030AD10A4B93F89800FFF735
S1136630AFFFFFF7CFFD0648FFF718FFEFE7064A65
S113664004211170054A1370F3E700BF61E1FF1FD5
S1136650C0E1FF1F0020074071E1FF1F70E1FF1F31
S113666070B5444C444BE66900221846D518B1185D
S11366700132092A03D00978C9B22970F6E7002249
S11366802272012262713D4A62611A78C2F3411199
S113669002295CD0032969D0012967D05B780B2BD0
S11366A064D8DFE803F03106631A631D3463372BC3
S11366B04D2EFFF7E7FE236AE179314A5B0101B110
S11366C0083313441B78DB0902D12A48FFF70EFD77
S11366D02C4B012283F8942070BDFFF703FFEAE7F7
S11366E01AB12448FFF7ACFCE5E7274B42881A703F
S11366F02048264B6361FFF7B9FEDCE7FFF780FF14
S1136700D9E7FFF71FFFD6E7FFF7F2FDD3E7FFF75F
S113671025FED0E71E4D2B78BFF35B8FDB070AD431
S1136720284602F015FE30B11A4B1A781A4B284647
S11367301A7002F019FE18490120FFF7BBFDBAE7F1
S1136740812ACED1C0880128CBD11449F5E75A78E3
S1136750302A0BD19A88042A02D111492820ECE767
S11367609B88052B02D10F49F820E6E7FFF792FD3D
S1136770A1E700BFC0E1FF1F61E1FF1FE95D000069
S113678000E0FF1F00200740EDE1FF1FE16500006E
S1136790E8E1FF1F70E1FF1FECE1FF1F24970000F9
S11367A0A2DC0000AADB0000C0F3031238B5D1B2AA
S11367B0254B53F82140C0F3800383F00103050700
S11367C04CBFA371E37100293BD1C0F385001F4B7B
S11367D013F83000C0F38304092C08D00D2C03D027
S11367E0012C2AD0012418E0FFF73AFFFAE7184DEC
S11367F06B7983F001036B71287AC4B2012C03D046
S1136800032C15D02A72EDE72B8A9BB263B96B7AFD
S113681053B92B791BB904232B72204638BD6B69FD
S1136820204698472872F8E70948FFF725FCD9E77E
S11368302A726B6920469847D4E70548FFF768FC3D
S1136840EBE70024E9E700BF38E5FF1F00E0FF1F86
S1136850C0E1FF1F2DE9F0413E4C3F4EDFF80481BB
S113686094F8805094F884301D4025D0EA0725D54B
S1136870002384F8843084F88C30364C1A4603F1B3
S113688030010133102B04F82120F8D1324BFF25BD
S1136890022684F8885084F880501E702F4B84F8A8
S11368A098201A70FFF7C0FC9F2384F88430304688
S11368B084F88C50FFF7E8FCBDE8F0812B0709D57C
S11368C094F89070FFB23846FFF76EFF10B938465F
S11368D001F090FCAF0614D594F8843003F0DF0384
S11368E084F884303378052B0BD1042301203370D2
S11368F0FFF7CAFCFFF76EFCFFF796FC012384F850
S11369009430280602D54046FFF7A7FB690708D54F
S113691094F8A400124B94F8A0201B6842EA0020CB
S11369209847EA060DD53378042B0AD194F88430BD
S113693043F0210384F88430002005233370FFF7EB
S1136940A3FCAB0744BFFF2384F8883084F880504D
S113695086E700BF0020074071E1FF1F70E1FF1FC1
S113696080E0FF1FC0E1FF1F144A136813F0010306
S113697010B522D1124C01211160124A2260124A30
S11369806261124AA261124A6371C4E90723A371C6
S11369902371E371E360237220466372238263826E
S11369A04023A384FFF732FB0A4B236020460A4AA4
S11369B00A49BDE8104002F0DABC10BDBCE1FF1F7B
S11369C0C0E1FF1FE8960000555E0000002007406C
S11369D078E1FF1F1C97000060E0FF1FED5D0000E1
S11369E0C2680023C0E902230375024B18225A63CC
S11369F0704700BF00800340704710B51C21044657
S1136A0002F0BAFC204610BD024B1B68586800F027
S1136A108BBB00BFF0E1FF1F08B50020FFF7F4FFB8
S1136A2008BD00008B060ED50C4A13680133632B96
S1136A30136009D900231360094A536B23F03C0304
S1136A4043F01C0353637047322BFCD1044A536B4D
S1136A5023F03C0343F01803F4E700BFF4E1FF1F05
S1136A6000800340024B01461868FFF7DBBF00BFFC
S1136A70F0E1FF1F37B5224C41F23805635943F466
S1136A8080636351BFF35F8F1E4B5A6922F4403217
S1136A905A61EFF3108072B601901A6842F44032E2
S1136AA01A60019880F31088174B40F203121A649D
S1136AB05A6441F23C02A35843F08073A350BFF3DD
S1136AC05F8F124B00221A601A680F221A60104B53
S1136AD0104A1A600521192001F05AFD635943F444
S1136AE080536351BFF35F8F0B4B40F244421A60F3
S1136AF00A4B1A68002AFCD11B6803B030BD00BFE2
S1136B000070044040F00F4000A0044000800340A7
S1136B10B8E1FF1F656A000014C004401CE6FF1FB3
S1136B2013B50346EFF3108072B601901A6B0A2A6C
S1136B3014BF012400240BD0DA6A101DD86211603E
S1136B401A6B01321A6303F12802904228BFDB62F8
S1136B50019880F31088204602B010BD70B5054638
S1136B6040680C4600F0B3FA6B681D4A5A618CB950
S1136B701C496868FEF7DEFD1B4B6C6803CBA16003
S1136B8019889B786060A181A37318492869FFF76D
S1136B90C7FF70BD2046FEF7ABF915490646FEF760
S1136BA0B1FB80B1134E144BB4FBF3F4686840F2AC
S1136BB0014343810A222146FFF716FA3146FEF7C4
S1136BC0B9FD0E49D6E70E493046FEF79BFB28B1C6
S1136BD04FF47A730B4EB4FBF3F4E7E70A4EE5E7A0
S1136BE098E0FF1F679700004C970000196A0000A7
S1136BF0002474495897000040420F00ABDE0000A7
S1136C0000007A445D970000629700002DE9F0418E
S1136C102E4C226802F01802082A064632D0102AA6
S1136C2033D00020FEF764F9236813F0200F4FF6E9
S1136C30FE77804608BF4FF480370125002428469C
S1136C40FEF756F901464046FEF75EFA3146FEF776
S1136C50A7F9FDF7BDFD02F093FBFEF723F8B84258
S1136C60034614D8194A002011681060106810688F
S1136C70800618D4013BB3F5803F18D20020D064BD
S1136C80936018E0124B1868CCE7124BFBE7013411
S1136C90082C4FEA4505D2D10F4A03211160106830
S1136CA078B90724DEE70133B3F5803F0BD30A4BF1
S1136CB0032018601B6821F0070300202343506061
S1136CC01360BDE8F0815B08D8E700BF0080034093
S1136CD064E0FF1F4CE1FF1F1CE6FF1F38B50C46A4
S1136CE0C16019B9184B18225A6338BD0846FEF71B
S1136CF0FFF816490546FEF7F1FA68B1134928462C
S1136D00FEF74EF901464FF07E50FEF7FDF9FFF70E
S1136D107DFF0D4B5822E7E70B4D14236B63204690
S1136D20FDF734FD02460B46FDF7F4FB0B46024625
S1136D3007490020FDF7CEFEFDF7D4FFFFF766FFFD
S1136D400123AB63D1E700BF008003400000C842C9
S1136D500000F03F10B581680446FFF7BFFF012330
S1136D602375606800F0C2F9A3696BB16368094ACE
S1136D705A61A1696068FEF7DDFC0023A36106493E
S1136D802069FFF7CDFE10BDE1682046BDE8104044
S1136D90FFF7E4BEA0E0FF1F196A0000037D10B5F1
S1136DA0044663B11B4B1C481B6902681B49DB4347
S1136DB0C3F301439A4203D000220A60036010BD6A
S1136DC00B68042BFBD80133042B0B60F7D1012A89
S1136DD018D0022AF3D1124B1A680132142A88BF40
S1136DE000221A601A680F4B53F82200FEF7C4FA07
S1136DF001462046FFF772FFE1682046BDE81040D7
S1136E00FFF7ACBE064B1A68013A142A88BF142255
S1136E10E7E700BF40F00F4000E2FF1FF8E1FF1F6B
S1136E20FCE1FF1F70970000704710B51421044661
S1136E3002F0A2FA204610BD82B00346EFF31080A0
S1136E4072B60190064A106803F01F0320F01F0079
S1136E5018431060019880F3108802B0704700BF97
S1136E6080F00F4070B50A4D15F811400E462046CB
S1136E7005EB4605FFF7E0FF064A697853690C43C2
S1136E8004F01F0423F01F031C43546170BD00BFB2
S1136E900099000080F00F40437B002B3ED0204B34
S1136EA01A69204B1978C2F30312914201D01A7067
S1136EB07047037B13B98AB301230373036903F097
S1136EC0030102291AD003291ED0012910D0082A4F
S1136ED003D0022A08D1013303610369D3B90C2317
S1136EE003610169FFF7BEBF012AF6D1013BF3E755
S1136EF0022AF2D0042AEED0082AF6E7042AECD0BB
S1136F00012AE8D0022AF0E7012AE6D0082AE2D0D2
S1136F10042AEAE70C2BE4D90123E1E7704700BF18
S1136F2080F00F4008E2FF1F014B1868FFF7B4BF61
S1136F3004E2FF1F1A4B2DE9F0410D460446186880
S1136F401646FDF7D5FF2946FEF72AF802F060FA47
S1136F504FF09F418046FEF7DFF918B1114B032231
S1136F601A601B6800214046FEF7C2F918B10D4BA8
S1136F7002221A601B680C4F2401E5190023AB6040
S1136F804046FEF7F9F9FDF7B3FFFEF7CFF9012309
S1136F9001381E43E051EB60AE60BDE8F08100BFF4
S1136FA064E0FF1F1CE6FF1F0071034038B5002595
S1136FB0044645732A4605494068FFF7BBFF294646
S1136FC02046BDE83840FFF74DBF00BF6F12833A3B
S1136FD010B50E4941F2380204468B5843F400635D
